{"abi":[{"inputs":[{"internalType":"address","name":"creator","type":"address"},{"internalType":"uint256","name":"minimumValue","type":"uint256"},{"internalType":"uint256","name":"goal","type":"uint256"},{"internalType":"uint256","name":"durationInDays","type":"uint256"}],"stateMutability":"nonpayable","type":"constructor"},{"inputs":[{"internalType":"uint256","name":"requestIndex","type":"uint256"}],"name":"approveRequest","outputs":[],"stateMutability":"nonpayable","type":"function"},{"inputs":[],"name":"cancelCampaign","outputs":[],"stateMutability":"nonpayable","type":"function"},{"inputs":[],"name":"contribute","outputs":[],"stateMutability":"payable","type":"function"},{"inputs":[{"internalType":"address","name":"","type":"address"}],"name":"contributors","outputs":[{"internalType":"uint256","name":"","type":"uint256"}],"stateMutability":"view","type":"function"},{"inputs":[],"name":"contributorsCount","outputs":[{"internalType":"uint256","name":"","type":"uint256"}],"stateMutability":"view","type":"function"},{"inputs":[{"internalType":"string","name":"description","type":"string"},{"internalType":"uint256","name":"value","type":"uint256"},{"internalType":"address","name":"recipient","type":"address"}],"name":"createRequest","outputs":[],"stateMutability":"nonpayable","type":"function"},{"inputs":[],"name":"deadline","outputs":[{"internalType":"uint256","name":"","type":"uint256"}],"stateMutability":"view","type":"function"},{"inputs":[{"internalType":"uint256","name":"index","type":"uint256"}],"name":"finalizeRequest","outputs":[],"stateMutability":"nonpayable","type":"function"},{"inputs":[],"name":"getBalance","outputs":[{"internalType":"uint256","name":"","type":"uint256"}],"stateMutability":"view","type":"function"},{"inputs":[],"name":"getRefund","outputs":[],"stateMutability":"nonpayable","type":"function"},{"inputs":[],"name":"getRequestCount","outputs":[{"internalType":"uint256","name":"","type":"uint256"}],"stateMutability":"view","type":"function"},{"inputs":[],"name":"getSummary","outputs":[{"internalType":"uint256","name":"","type":"uint256"},{"internalType":"uint256","name":"","type":"uint256"},{"internalType":"uint256","name":"","type":"uint256"},{"internalType":"uint256","name":"","type":"uint256"},{"internalType":"uint256","name":"","type":"uint256"},{"internalType":"bool","name":"","type":"bool"},{"internalType":"bool","name":"","type":"bool"},{"internalType":"uint256","name":"","type":"uint256"},{"internalType":"address","name":"","type":"address"}],"stateMutability":"view","type":"function"},{"inputs":[],"name":"goalAmount","outputs":[{"internalType":"uint256","name":"","type":"uint256"}],"stateMutability":"view","type":"function"},{"inputs":[],"name":"goalReached","outputs":[{"internalType":"bool","name":"","type":"bool"}],"stateMutability":"view","type":"function"},{"inputs":[],"name":"isCanceled","outputs":[{"internalType":"bool","name":"","type":"bool"}],"stateMutability":"view","type":"function"},{"inputs":[],"name":"manager","outputs":[{"internalType":"address","name":"","type":"address"}],"stateMutability":"view","type":"function"},{"inputs":[],"name":"minimumContribution","outputs":[{"internalType":"uint256","name":"","type":"uint256"}],"stateMutability":"view","type":"function"},{"inputs":[{"internalType":"uint256","name":"","type":"uint256"}],"name":"requests","outputs":[{"internalType":"string","name":"description","type":"string"},{"internalType":"address","name":"recipient","type":"address"},{"internalType":"uint256","name":"value","type":"uint256"},{"internalType":"bool","name":"complete","type":"bool"},{"internalType":"uint256","name":"approvalCount","type":"uint256"}],"stateMutability":"view","type":"function"}],"devdoc":{"kind":"dev","methods":{},"version":1},"evm":{"assembly":"    /* \"Campaign.sol\":502:4166  contract Campaign {... */\n  mstore(0x40, 0x80)\n    /* \"Campaign.sol\":957:962  false */\n  0x00\n    /* \"Campaign.sol\":932:962  bool public isCanceled = false */\n  0x06\n  exp(0x0100, 0x00)\n  dup2\n  sload\n  dup2\n  0xff\n  mul\n  not\n  and\n  swap1\n  dup4\n  iszero\n  iszero\n  mul\n  or\n  swap1\n  sstore\n  pop\n    /* \"Campaign.sol\":994:999  false */\n  0x00\n    /* \"Campaign.sol\":968:999  bool public goalReached = false */\n  0x06\n  exp(0x0100, 0x01)\n  dup2\n  sload\n  dup2\n  0xff\n  mul\n  not\n  and\n  swap1\n  dup4\n  iszero\n  iszero\n  mul\n  or\n  swap1\n  sstore\n  pop\n    /* \"Campaign.sol\":1040:1041  0 */\n  0x00\n    /* \"Campaign.sol\":1005:1041  uint256 public contributorsCount = 0 */\n  0x07\n  sstore\n    /* \"Campaign.sol\":1085:1086  0 */\n  0x00\n    /* \"Campaign.sol\":1047:1086  uint256 private currentIndexRequest = 0 */\n  0x08\n  sstore\n    /* \"Campaign.sol\":1093:1342  constructor(address creator, uint minimumValue, uint goal, uint durationInDays) {... */\n  callvalue\n  dup1\n  iszero\n  tag_1\n  jumpi\n  0x00\n  dup1\n  revert\ntag_1:\n  pop\n  mload(0x40)\n  sub(codesize, bytecodeSize)\n  dup1\n  bytecodeSize\n  dup4\n  codecopy\n  dup2\n  dup2\n  add\n  0x40\n  mstore\n  dup2\n  add\n  swap1\n  tag_2\n  swap2\n  swap1\n  tag_3\n  jump\t// in\ntag_2:\n    /* \"Campaign.sol\":1193:1200  creator */\n  dup4\n    /* \"Campaign.sol\":1183:1190  manager */\n  0x00\n  dup1\n    /* \"Campaign.sol\":1183:1200  manager = creator */\n  0x0100\n  exp\n  dup2\n  sload\n  dup2\n  0xffffffffffffffffffffffffffffffffffffffff\n  mul\n  not\n  and\n  swap1\n  dup4\n  0xffffffffffffffffffffffffffffffffffffffff\n  and\n  mul\n  or\n  swap1\n  sstore\n  pop\n    /* \"Campaign.sol\":1232:1244  minimumValue */\n  dup3\n    /* \"Campaign.sol\":1210:1229  minimumContribution */\n  0x03\n    /* \"Campaign.sol\":1210:1244  minimumContribution = minimumValue */\n  dup2\n  swap1\n  sstore\n  pop\n    /* \"Campaign.sol\":1267:1271  goal */\n  dup2\n    /* \"Campaign.sol\":1254:1264  goalAmount */\n  0x04\n    /* \"Campaign.sol\":1254:1271  goalAmount = goal */\n  dup2\n  swap1\n  sstore\n  pop\n    /* \"Campaign.sol\":1328:1334  1 days */\n  0x015180\n    /* \"Campaign.sol\":1311:1325  durationInDays */\n  dup2\n    /* \"Campaign.sol\":1311:1334  durationInDays * 1 days */\n  tag_6\n  swap2\n  swap1\n  tag_7\n  jump\t// in\ntag_6:\n    /* \"Campaign.sol\":1292:1307  block.timestamp */\n  timestamp\n    /* \"Campaign.sol\":1292:1335  block.timestamp + (durationInDays * 1 days) */\n  tag_8\n  swap2\n  swap1\n  tag_9\n  jump\t// in\ntag_8:\n    /* \"Campaign.sol\":1281:1289  deadline */\n  0x05\n    /* \"Campaign.sol\":1281:1335  deadline = block.timestamp + (durationInDays * 1 days) */\n  dup2\n  swap1\n  sstore\n  pop\n    /* \"Campaign.sol\":1093:1342  constructor(address creator, uint minimumValue, uint goal, uint durationInDays) {... */\n  pop\n  pop\n  pop\n  pop\n    /* \"Campaign.sol\":502:4166  contract Campaign {... */\n  jump(tag_10)\n    /* \"#utility.yul\":88:205   */\ntag_12:\n    /* \"#utility.yul\":197:198   */\n  0x00\n    /* \"#utility.yul\":194:195   */\n  dup1\n    /* \"#utility.yul\":187:199   */\n  revert\n    /* \"#utility.yul\":334:460   */\ntag_14:\n    /* \"#utility.yul\":371:378   */\n  0x00\n    /* \"#utility.yul\":411:453   */\n  0xffffffffffffffffffffffffffffffffffffffff\n    /* \"#utility.yul\":404:409   */\n  dup3\n    /* \"#utility.yul\":400:454   */\n  and\n    /* \"#utility.yul\":389:454   */\n  swap1\n  pop\n    /* \"#utility.yul\":334:460   */\n  swap2\n  swap1\n  pop\n  jump\t// out\n    /* \"#utility.yul\":466:562   */\ntag_15:\n    /* \"#utility.yul\":503:510   */\n  0x00\n    /* \"#utility.yul\":532:556   */\n  tag_28\n    /* \"#utility.yul\":550:555   */\n  dup3\n    /* \"#utility.yul\":532:556   */\n  tag_14\n  jump\t// in\ntag_28:\n    /* \"#utility.yul\":521:556   */\n  swap1\n  pop\n    /* \"#utility.yul\":466:562   */\n  swap2\n  swap1\n  pop\n  jump\t// out\n    /* \"#utility.yul\":568:690   */\ntag_16:\n    /* \"#utility.yul\":641:665   */\n  tag_30\n    /* \"#utility.yul\":659:664   */\n  dup2\n    /* \"#utility.yul\":641:665   */\n  tag_15\n  jump\t// in\ntag_30:\n    /* \"#utility.yul\":634:639   */\n  dup2\n    /* \"#utility.yul\":631:666   */\n  eq\n    /* \"#utility.yul\":621:684   */\n  tag_31\n  jumpi\n    /* \"#utility.yul\":680:681   */\n  0x00\n    /* \"#utility.yul\":677:678   */\n  dup1\n    /* \"#utility.yul\":670:682   */\n  revert\n    /* \"#utility.yul\":621:684   */\ntag_31:\n    /* \"#utility.yul\":568:690   */\n  pop\n  jump\t// out\n    /* \"#utility.yul\":696:839   */\ntag_17:\n    /* \"#utility.yul\":753:758   */\n  0x00\n    /* \"#utility.yul\":784:790   */\n  dup2\n    /* \"#utility.yul\":778:791   */\n  mload\n    /* \"#utility.yul\":769:791   */\n  swap1\n  pop\n    /* \"#utility.yul\":800:833   */\n  tag_33\n    /* \"#utility.yul\":827:832   */\n  dup2\n    /* \"#utility.yul\":800:833   */\n  tag_16\n  jump\t// in\ntag_33:\n    /* \"#utility.yul\":696:839   */\n  swap3\n  swap2\n  pop\n  pop\n  jump\t// out\n    /* \"#utility.yul\":845:922   */\ntag_18:\n    /* \"#utility.yul\":882:889   */\n  0x00\n    /* \"#utility.yul\":911:916   */\n  dup2\n    /* \"#utility.yul\":900:916   */\n  swap1\n  pop\n    /* \"#utility.yul\":845:922   */\n  swap2\n  swap1\n  pop\n  jump\t// out\n    /* \"#utility.yul\":928:1050   */\ntag_19:\n    /* \"#utility.yul\":1001:1025   */\n  tag_36\n    /* \"#utility.yul\":1019:1024   */\n  dup2\n    /* \"#utility.yul\":1001:1025   */\n  tag_18\n  jump\t// in\ntag_36:\n    /* \"#utility.yul\":994:999   */\n  dup2\n    /* \"#utility.yul\":991:1026   */\n  eq\n    /* \"#utility.yul\":981:1044   */\n  tag_37\n  jumpi\n    /* \"#utility.yul\":1040:1041   */\n  0x00\n    /* \"#utility.yul\":1037:1038   */\n  dup1\n    /* \"#utility.yul\":1030:1042   */\n  revert\n    /* \"#utility.yul\":981:1044   */\ntag_37:\n    /* \"#utility.yul\":928:1050   */\n  pop\n  jump\t// out\n    /* \"#utility.yul\":1056:1199   */\ntag_20:\n    /* \"#utility.yul\":1113:1118   */\n  0x00\n    /* \"#utility.yul\":1144:1150   */\n  dup2\n    /* \"#utility.yul\":1138:1151   */\n  mload\n    /* \"#utility.yul\":1129:1151   */\n  swap1\n  pop\n    /* \"#utility.yul\":1160:1193   */\n  tag_39\n    /* \"#utility.yul\":1187:1192   */\n  dup2\n    /* \"#utility.yul\":1160:1193   */\n  tag_19\n  jump\t// in\ntag_39:\n    /* \"#utility.yul\":1056:1199   */\n  swap3\n  swap2\n  pop\n  pop\n  jump\t// out\n    /* \"#utility.yul\":1205:2025   */\ntag_3:\n    /* \"#utility.yul\":1302:1308   */\n  0x00\n    /* \"#utility.yul\":1310:1316   */\n  dup1\n    /* \"#utility.yul\":1318:1324   */\n  0x00\n    /* \"#utility.yul\":1326:1332   */\n  dup1\n    /* \"#utility.yul\":1375:1378   */\n  0x80\n    /* \"#utility.yul\":1363:1372   */\n  dup6\n    /* \"#utility.yul\":1354:1361   */\n  dup8\n    /* \"#utility.yul\":1350:1373   */\n  sub\n    /* \"#utility.yul\":1346:1379   */\n  slt\n    /* \"#utility.yul\":1343:1463   */\n  iszero\n  tag_41\n  jumpi\n    /* \"#utility.yul\":1382:1461   */\n  tag_42\n  tag_12\n  jump\t// in\ntag_42:\n    /* \"#utility.yul\":1343:1463   */\ntag_41:\n    /* \"#utility.yul\":1502:1503   */\n  0x00\n    /* \"#utility.yul\":1527:1591   */\n  tag_43\n    /* \"#utility.yul\":1583:1590   */\n  dup8\n    /* \"#utility.yul\":1574:1580   */\n  dup3\n    /* \"#utility.yul\":1563:1572   */\n  dup9\n    /* \"#utility.yul\":1559:1581   */\n  add\n    /* \"#utility.yul\":1527:1591   */\n  tag_17\n  jump\t// in\ntag_43:\n    /* \"#utility.yul\":1517:1591   */\n  swap5\n  pop\n    /* \"#utility.yul\":1473:1601   */\n  pop\n    /* \"#utility.yul\":1640:1642   */\n  0x20\n    /* \"#utility.yul\":1666:1730   */\n  tag_44\n    /* \"#utility.yul\":1722:1729   */\n  dup8\n    /* \"#utility.yul\":1713:1719   */\n  dup3\n    /* \"#utility.yul\":1702:1711   */\n  dup9\n    /* \"#utility.yul\":1698:1720   */\n  add\n    /* \"#utility.yul\":1666:1730   */\n  tag_20\n  jump\t// in\ntag_44:\n    /* \"#utility.yul\":1656:1730   */\n  swap4\n  pop\n    /* \"#utility.yul\":1611:1740   */\n  pop\n    /* \"#utility.yul\":1779:1781   */\n  0x40\n    /* \"#utility.yul\":1805:1869   */\n  tag_45\n    /* \"#utility.yul\":1861:1868   */\n  dup8\n    /* \"#utility.yul\":1852:1858   */\n  dup3\n    /* \"#utility.yul\":1841:1850   */\n  dup9\n    /* \"#utility.yul\":1837:1859   */\n  add\n    /* \"#utility.yul\":1805:1869   */\n  tag_20\n  jump\t// in\ntag_45:\n    /* \"#utility.yul\":1795:1869   */\n  swap3\n  pop\n    /* \"#utility.yul\":1750:1879   */\n  pop\n    /* \"#utility.yul\":1918:1920   */\n  0x60\n    /* \"#utility.yul\":1944:2008   */\n  tag_46\n    /* \"#utility.yul\":2000:2007   */\n  dup8\n    /* \"#utility.yul\":1991:1997   */\n  dup3\n    /* \"#utility.yul\":1980:1989   */\n  dup9\n    /* \"#utility.yul\":1976:1998   */\n  add\n    /* \"#utility.yul\":1944:2008   */\n  tag_20\n  jump\t// in\ntag_46:\n    /* \"#utility.yul\":1934:2008   */\n  swap2\n  pop\n    /* \"#utility.yul\":1889:2018   */\n  pop\n    /* \"#utility.yul\":1205:2025   */\n  swap3\n  swap6\n  swap2\n  swap5\n  pop\n  swap3\n  pop\n  jump\t// out\n    /* \"#utility.yul\":2031:2211   */\ntag_21:\n    /* \"#utility.yul\":2079:2156   */\n  0x4e487b7100000000000000000000000000000000000000000000000000000000\n    /* \"#utility.yul\":2076:2077   */\n  0x00\n    /* \"#utility.yul\":2069:2157   */\n  mstore\n    /* \"#utility.yul\":2176:2180   */\n  0x11\n    /* \"#utility.yul\":2173:2174   */\n  0x04\n    /* \"#utility.yul\":2166:2181   */\n  mstore\n    /* \"#utility.yul\":2200:2204   */\n  0x24\n    /* \"#utility.yul\":2197:2198   */\n  0x00\n    /* \"#utility.yul\":2190:2205   */\n  revert\n    /* \"#utility.yul\":2217:2565   */\ntag_7:\n    /* \"#utility.yul\":2257:2264   */\n  0x00\n    /* \"#utility.yul\":2280:2300   */\n  tag_49\n    /* \"#utility.yul\":2298:2299   */\n  dup3\n    /* \"#utility.yul\":2280:2300   */\n  tag_18\n  jump\t// in\ntag_49:\n    /* \"#utility.yul\":2275:2300   */\n  swap2\n  pop\n    /* \"#utility.yul\":2314:2334   */\n  tag_50\n    /* \"#utility.yul\":2332:2333   */\n  dup4\n    /* \"#utility.yul\":2314:2334   */\n  tag_18\n  jump\t// in\ntag_50:\n    /* \"#utility.yul\":2309:2334   */\n  swap3\n  pop\n    /* \"#utility.yul\":2502:2503   */\n  dup2\n    /* \"#utility.yul\":2434:2500   */\n  0xffffffffffffffffffffffffffffffffffffffffffffffffffffffffffffffff\n    /* \"#utility.yul\":2430:2504   */\n  div\n    /* \"#utility.yul\":2427:2428   */\n  dup4\n    /* \"#utility.yul\":2424:2505   */\n  gt\n    /* \"#utility.yul\":2419:2420   */\n  dup3\n    /* \"#utility.yul\":2412:2421   */\n  iszero\n    /* \"#utility.yul\":2405:2422   */\n  iszero\n    /* \"#utility.yul\":2401:2506   */\n  and\n    /* \"#utility.yul\":2398:2529   */\n  iszero\n  tag_51\n  jumpi\n    /* \"#utility.yul\":2509:2527   */\n  tag_52\n  tag_21\n  jump\t// in\ntag_52:\n    /* \"#utility.yul\":2398:2529   */\ntag_51:\n    /* \"#utility.yul\":2557:2558   */\n  dup3\n    /* \"#utility.yul\":2554:2555   */\n  dup3\n    /* \"#utility.yul\":2550:2559   */\n  mul\n    /* \"#utility.yul\":2539:2559   */\n  swap1\n  pop\n    /* \"#utility.yul\":2217:2565   */\n  swap3\n  swap2\n  pop\n  pop\n  jump\t// out\n    /* \"#utility.yul\":2571:2876   */\ntag_9:\n    /* \"#utility.yul\":2611:2614   */\n  0x00\n    /* \"#utility.yul\":2630:2650   */\n  tag_54\n    /* \"#utility.yul\":2648:2649   */\n  dup3\n    /* \"#utility.yul\":2630:2650   */\n  tag_18\n  jump\t// in\ntag_54:\n    /* \"#utility.yul\":2625:2650   */\n  swap2\n  pop\n    /* \"#utility.yul\":2664:2684   */\n  tag_55\n    /* \"#utility.yul\":2682:2683   */\n  dup4\n    /* \"#utility.yul\":2664:2684   */\n  tag_18\n  jump\t// in\ntag_55:\n    /* \"#utility.yul\":2659:2684   */\n  swap3\n  pop\n    /* \"#utility.yul\":2818:2819   */\n  dup3\n    /* \"#utility.yul\":2750:2816   */\n  0xffffffffffffffffffffffffffffffffffffffffffffffffffffffffffffffff\n    /* \"#utility.yul\":2746:2820   */\n  sub\n    /* \"#utility.yul\":2743:2744   */\n  dup3\n    /* \"#utility.yul\":2740:2821   */\n  gt\n    /* \"#utility.yul\":2737:2844   */\n  iszero\n  tag_56\n  jumpi\n    /* \"#utility.yul\":2824:2842   */\n  tag_57\n  tag_21\n  jump\t// in\ntag_57:\n    /* \"#utility.yul\":2737:2844   */\ntag_56:\n    /* \"#utility.yul\":2868:2869   */\n  dup3\n    /* \"#utility.yul\":2865:2866   */\n  dup3\n    /* \"#utility.yul\":2861:2870   */\n  add\n    /* \"#utility.yul\":2854:2870   */\n  swap1\n  pop\n    /* \"#utility.yul\":2571:2876   */\n  swap3\n  swap2\n  pop\n  pop\n  jump\t// out\n    /* \"Campaign.sol\":502:4166  contract Campaign {... */\ntag_10:\n  dataSize(sub_0)\n  dup1\n  dataOffset(sub_0)\n  0x00\n  codecopy\n  0x00\n  return\nstop\n\nsub_0: assembly {\n        /* \"Campaign.sol\":502:4166  contract Campaign {... */\n      mstore(0x40, 0x80)\n      jumpi(tag_1, lt(calldatasize, 0x04))\n      shr(0xe0, calldataload(0x00))\n      dup1\n      0x7569b3d7\n      gt\n      tag_20\n      jumpi\n      dup1\n      0x937e09b1\n      gt\n      tag_21\n      jumpi\n      dup1\n      0x937e09b1\n      eq\n      tag_15\n      jumpi\n      dup1\n      0x980e7844\n      eq\n      tag_16\n      jumpi\n      dup1\n      0xb2d5ae44\n      eq\n      tag_17\n      jumpi\n      dup1\n      0xd7bb99ba\n      eq\n      tag_18\n      jumpi\n      dup1\n      0xd7d1bbdb\n      eq\n      tag_19\n      jumpi\n      jump(tag_1)\n    tag_21:\n      dup1\n      0x7569b3d7\n      eq\n      tag_11\n      jumpi\n      dup1\n      0x7d3d6522\n      eq\n      tag_12\n      jumpi\n      dup1\n      0x81d12c58\n      eq\n      tag_13\n      jumpi\n      dup1\n      0x8a9cfd55\n      eq\n      tag_14\n      jumpi\n      jump(tag_1)\n    tag_20:\n      dup1\n      0x2636b945\n      gt\n      tag_22\n      jumpi\n      dup1\n      0x2636b945\n      eq\n      tag_6\n      jumpi\n      dup1\n      0x29dcb0cf\n      eq\n      tag_7\n      jumpi\n      dup1\n      0x3fad1834\n      eq\n      tag_8\n      jumpi\n      dup1\n      0x4051ddac\n      eq\n      tag_9\n      jumpi\n      dup1\n      0x481c6a75\n      eq\n      tag_10\n      jumpi\n      jump(tag_1)\n    tag_22:\n      dup1\n      0x03441006\n      eq\n      tag_2\n      jumpi\n      dup1\n      0x0ed5a933\n      eq\n      tag_3\n      jumpi\n      dup1\n      0x12065fe0\n      eq\n      tag_4\n      jumpi\n      dup1\n      0x1f6d4942\n      eq\n      tag_5\n      jumpi\n    tag_1:\n      0x00\n      dup1\n      revert\n        /* \"Campaign.sol\":3690:4000  function finalizeRequest(uint index) public restricted {... */\n    tag_2:\n      callvalue\n      dup1\n      iszero\n      tag_23\n      jumpi\n      0x00\n      dup1\n      revert\n    tag_23:\n      pop\n      tag_24\n      0x04\n      dup1\n      calldatasize\n      sub\n      dup2\n      add\n      swap1\n      tag_25\n      swap2\n      swap1\n      tag_26\n      jump\t// in\n    tag_25:\n      tag_27\n      jump\t// in\n    tag_24:\n      stop\n        /* \"Campaign.sol\":932:962  bool public isCanceled = false */\n    tag_3:\n      callvalue\n      dup1\n      iszero\n      tag_28\n      jumpi\n      0x00\n      dup1\n      revert\n    tag_28:\n      pop\n      tag_29\n      tag_30\n      jump\t// in\n    tag_29:\n      mload(0x40)\n      tag_31\n      swap2\n      swap1\n      tag_32\n      jump\t// in\n    tag_31:\n      mload(0x40)\n      dup1\n      swap2\n      sub\n      swap1\n      return\n        /* \"Campaign.sol\":2573:2676  function getBalance() public restricted view returns (uint) {... */\n    tag_4:\n      callvalue\n      dup1\n      iszero\n      tag_33\n      jumpi\n      0x00\n      dup1\n      revert\n    tag_33:\n      pop\n      tag_34\n      tag_35\n      jump\t// in\n    tag_34:\n      mload(0x40)\n      tag_36\n      swap2\n      swap1\n      tag_37\n      jump\t// in\n    tag_36:\n      mload(0x40)\n      dup1\n      swap2\n      sub\n      swap1\n      return\n        /* \"Campaign.sol\":789:834  mapping (address => uint) public contributors */\n    tag_5:\n      callvalue\n      dup1\n      iszero\n      tag_38\n      jumpi\n      0x00\n      dup1\n      revert\n    tag_38:\n      pop\n      tag_39\n      0x04\n      dup1\n      calldatasize\n      sub\n      dup2\n      add\n      swap1\n      tag_40\n      swap2\n      swap1\n      tag_41\n      jump\t// in\n    tag_40:\n      tag_42\n      jump\t// in\n    tag_39:\n      mload(0x40)\n      tag_43\n      swap2\n      swap1\n      tag_37\n      jump\t// in\n    tag_43:\n      mload(0x40)\n      dup1\n      swap2\n      sub\n      swap1\n      return\n        /* \"Campaign.sol\":878:900  uint public goalAmount */\n    tag_6:\n      callvalue\n      dup1\n      iszero\n      tag_44\n      jumpi\n      0x00\n      dup1\n      revert\n    tag_44:\n      pop\n      tag_45\n      tag_46\n      jump\t// in\n    tag_45:\n      mload(0x40)\n      tag_47\n      swap2\n      swap1\n      tag_37\n      jump\t// in\n    tag_47:\n      mload(0x40)\n      dup1\n      swap2\n      sub\n      swap1\n      return\n        /* \"Campaign.sol\":906:926  uint public deadline */\n    tag_7:\n      callvalue\n      dup1\n      iszero\n      tag_48\n      jumpi\n      0x00\n      dup1\n      revert\n    tag_48:\n      pop\n      tag_49\n      tag_50\n      jump\t// in\n    tag_49:\n      mload(0x40)\n      tag_51\n      swap2\n      swap1\n      tag_37\n      jump\t// in\n    tag_51:\n      mload(0x40)\n      dup1\n      swap2\n      sub\n      swap1\n      return\n        /* \"Campaign.sol\":2682:2777  function getRequestCount() public view returns (uint) {... */\n    tag_8:\n      callvalue\n      dup1\n      iszero\n      tag_52\n      jumpi\n      0x00\n      dup1\n      revert\n    tag_52:\n      pop\n      tag_53\n      tag_54\n      jump\t// in\n    tag_53:\n      mload(0x40)\n      tag_55\n      swap2\n      swap1\n      tag_37\n      jump\t// in\n    tag_55:\n      mload(0x40)\n      dup1\n      swap2\n      sub\n      swap1\n      return\n        /* \"Campaign.sol\":2783:3209  function getSummary() public view returns (... */\n    tag_9:\n      callvalue\n      dup1\n      iszero\n      tag_56\n      jumpi\n      0x00\n      dup1\n      revert\n    tag_56:\n      pop\n      tag_57\n      tag_58\n      jump\t// in\n    tag_57:\n      mload(0x40)\n      tag_59\n      swap10\n      swap9\n      swap8\n      swap7\n      swap6\n      swap5\n      swap4\n      swap3\n      swap2\n      swap1\n      tag_60\n      jump\t// in\n    tag_59:\n      mload(0x40)\n      dup1\n      swap2\n      sub\n      swap1\n      return\n        /* \"Campaign.sol\":527:549  address public manager */\n    tag_10:\n      callvalue\n      dup1\n      iszero\n      tag_61\n      jumpi\n      0x00\n      dup1\n      revert\n    tag_61:\n      pop\n      tag_62\n      tag_63\n      jump\t// in\n    tag_62:\n      mload(0x40)\n      tag_64\n      swap2\n      swap1\n      tag_65\n      jump\t// in\n    tag_64:\n      mload(0x40)\n      dup1\n      swap2\n      sub\n      swap1\n      return\n        /* \"Campaign.sol\":1005:1041  uint256 public contributorsCount = 0 */\n    tag_11:\n      callvalue\n      dup1\n      iszero\n      tag_66\n      jumpi\n      0x00\n      dup1\n      revert\n    tag_66:\n      pop\n      tag_67\n      tag_68\n      jump\t// in\n    tag_67:\n      mload(0x40)\n      tag_69\n      swap2\n      swap1\n      tag_37\n      jump\t// in\n    tag_69:\n      mload(0x40)\n      dup1\n      swap2\n      sub\n      swap1\n      return\n        /* \"Campaign.sol\":968:999  bool public goalReached = false */\n    tag_12:\n      callvalue\n      dup1\n      iszero\n      tag_70\n      jumpi\n      0x00\n      dup1\n      revert\n    tag_70:\n      pop\n      tag_71\n      tag_72\n      jump\t// in\n    tag_71:\n      mload(0x40)\n      tag_73\n      swap2\n      swap1\n      tag_32\n      jump\t// in\n    tag_73:\n      mload(0x40)\n      dup1\n      swap2\n      sub\n      swap1\n      return\n        /* \"Campaign.sol\":739:783  mapping (uint256 => Request) public requests */\n    tag_13:\n      callvalue\n      dup1\n      iszero\n      tag_74\n      jumpi\n      0x00\n      dup1\n      revert\n    tag_74:\n      pop\n      tag_75\n      0x04\n      dup1\n      calldatasize\n      sub\n      dup2\n      add\n      swap1\n      tag_76\n      swap2\n      swap1\n      tag_26\n      jump\t// in\n    tag_76:\n      tag_77\n      jump\t// in\n    tag_75:\n      mload(0x40)\n      tag_78\n      swap6\n      swap5\n      swap4\n      swap3\n      swap2\n      swap1\n      tag_79\n      jump\t// in\n    tag_78:\n      mload(0x40)\n      dup1\n      swap2\n      sub\n      swap1\n      return\n        /* \"Campaign.sol\":3243:3685  function createRequest(string memory description, uint value, address recipient) public restricted {... */\n    tag_14:\n      callvalue\n      dup1\n      iszero\n      tag_80\n      jumpi\n      0x00\n      dup1\n      revert\n    tag_80:\n      pop\n      tag_81\n      0x04\n      dup1\n      calldatasize\n      sub\n      dup2\n      add\n      swap1\n      tag_82\n      swap2\n      swap1\n      tag_83\n      jump\t// in\n    tag_82:\n      tag_84\n      jump\t// in\n    tag_81:\n      stop\n        /* \"Campaign.sol\":841:872  uint public minimumContribution */\n    tag_15:\n      callvalue\n      dup1\n      iszero\n      tag_85\n      jumpi\n      0x00\n      dup1\n      revert\n    tag_85:\n      pop\n      tag_86\n      tag_87\n      jump\t// in\n    tag_86:\n      mload(0x40)\n      tag_88\n      swap2\n      swap1\n      tag_37\n      jump\t// in\n    tag_88:\n      mload(0x40)\n      dup1\n      swap2\n      sub\n      swap1\n      return\n        /* \"Campaign.sol\":4006:4082  function cancelCampaign() public restricted {... */\n    tag_16:\n      callvalue\n      dup1\n      iszero\n      tag_89\n      jumpi\n      0x00\n      dup1\n      revert\n    tag_89:\n      pop\n      tag_90\n      tag_91\n      jump\t// in\n    tag_90:\n      stop\n        /* \"Campaign.sol\":2212:2567  function getRefund() public {... */\n    tag_17:\n      callvalue\n      dup1\n      iszero\n      tag_92\n      jumpi\n      0x00\n      dup1\n      revert\n    tag_92:\n      pop\n      tag_93\n      tag_94\n      jump\t// in\n    tag_93:\n      stop\n        /* \"Campaign.sol\":1348:1779  function contribute() public payable {... */\n    tag_18:\n      tag_95\n      tag_96\n      jump\t// in\n    tag_95:\n      stop\n        /* \"Campaign.sol\":1785:2206  function approveRequest(uint requestIndex) public {... */\n    tag_19:\n      callvalue\n      dup1\n      iszero\n      tag_97\n      jumpi\n      0x00\n      dup1\n      revert\n    tag_97:\n      pop\n      tag_98\n      0x04\n      dup1\n      calldatasize\n      sub\n      dup2\n      add\n      swap1\n      tag_99\n      swap2\n      swap1\n      tag_26\n      jump\t// in\n    tag_99:\n      tag_100\n      jump\t// in\n    tag_98:\n      stop\n        /* \"Campaign.sol\":3690:4000  function finalizeRequest(uint index) public restricted {... */\n    tag_27:\n        /* \"Campaign.sol\":4140:4147  manager */\n      0x00\n      dup1\n      sload\n      swap1\n      0x0100\n      exp\n      swap1\n      div\n      0xffffffffffffffffffffffffffffffffffffffff\n      and\n        /* \"Campaign.sol\":4126:4147  msg.sender == manager */\n      0xffffffffffffffffffffffffffffffffffffffff\n      and\n        /* \"Campaign.sol\":4126:4136  msg.sender */\n      caller\n        /* \"Campaign.sol\":4126:4147  msg.sender == manager */\n      0xffffffffffffffffffffffffffffffffffffffff\n      and\n      eq\n        /* \"Campaign.sol\":4118:4148  require(msg.sender == manager) */\n      tag_102\n      jumpi\n      0x00\n      dup1\n      revert\n    tag_102:\n        /* \"Campaign.sol\":3755:3778  Request storage request */\n      0x00\n        /* \"Campaign.sol\":3781:3789  requests */\n      0x01\n        /* \"Campaign.sol\":3781:3796  requests[index] */\n      0x00\n        /* \"Campaign.sol\":3790:3795  index */\n      dup4\n        /* \"Campaign.sol\":3781:3796  requests[index] */\n      dup2\n      mstore\n      0x20\n      add\n      swap1\n      dup2\n      mstore\n      0x20\n      add\n      0x00\n      keccak256\n        /* \"Campaign.sol\":3755:3796  Request storage request = requests[index] */\n      swap1\n      pop\n        /* \"Campaign.sol\":3860:3861  2 */\n      0x02\n        /* \"Campaign.sol\":3840:3857  contributorsCount */\n      sload(0x07)\n        /* \"Campaign.sol\":3840:3861  contributorsCount / 2 */\n      tag_104\n      swap2\n      swap1\n      tag_105\n      jump\t// in\n    tag_104:\n        /* \"Campaign.sol\":3815:3822  request */\n      dup2\n        /* \"Campaign.sol\":3815:3836  request.approvalCount */\n      0x04\n      add\n      sload\n        /* \"Campaign.sol\":3815:3862  request.approvalCount > (contributorsCount / 2) */\n      gt\n        /* \"Campaign.sol\":3807:3863  require(request.approvalCount > (contributorsCount / 2)) */\n      tag_106\n      jumpi\n      0x00\n      dup1\n      revert\n    tag_106:\n        /* \"Campaign.sol\":3882:3889  request */\n      dup1\n        /* \"Campaign.sol\":3882:3898  request.complete */\n      0x03\n      add\n      0x00\n      swap1\n      sload\n      swap1\n      0x0100\n      exp\n      swap1\n      div\n      0xff\n      and\n        /* \"Campaign.sol\":3881:3898  !request.complete */\n      iszero\n        /* \"Campaign.sol\":3873:3899  require(!request.complete) */\n      tag_107\n      jumpi\n      0x00\n      dup1\n      revert\n    tag_107:\n        /* \"Campaign.sol\":3918:3925  request */\n      dup1\n        /* \"Campaign.sol\":3918:3935  request.recipient */\n      0x01\n      add\n      0x00\n      swap1\n      sload\n      swap1\n      0x0100\n      exp\n      swap1\n      div\n      0xffffffffffffffffffffffffffffffffffffffff\n      and\n        /* \"Campaign.sol\":3910:3945  payable(request.recipient).transfer */\n      0xffffffffffffffffffffffffffffffffffffffff\n      and\n        /* \"Campaign.sol\":3910:3960  payable(request.recipient).transfer(request.value) */\n      0x08fc\n        /* \"Campaign.sol\":3946:3953  request */\n      dup3\n        /* \"Campaign.sol\":3946:3959  request.value */\n      0x02\n      add\n      sload\n        /* \"Campaign.sol\":3910:3960  payable(request.recipient).transfer(request.value) */\n      swap1\n      dup2\n      iszero\n      mul\n      swap1\n      mload(0x40)\n      0x00\n      mload(0x40)\n      dup1\n      dup4\n      sub\n      dup2\n      dup6\n      dup9\n      dup9\n      call\n      swap4\n      pop\n      pop\n      pop\n      pop\n      iszero\n      dup1\n      iszero\n      tag_109\n      jumpi\n      returndatasize\n      0x00\n      dup1\n      returndatacopy\n      revert(0x00, returndatasize)\n    tag_109:\n      pop\n        /* \"Campaign.sol\":3989:3993  true */\n      0x01\n        /* \"Campaign.sol\":3970:3977  request */\n      dup2\n        /* \"Campaign.sol\":3970:3986  request.complete */\n      0x03\n      add\n      0x00\n        /* \"Campaign.sol\":3970:3993  request.complete = true */\n      0x0100\n      exp\n      dup2\n      sload\n      dup2\n      0xff\n      mul\n      not\n      and\n      swap1\n      dup4\n      iszero\n      iszero\n      mul\n      or\n      swap1\n      sstore\n      pop\n        /* \"Campaign.sol\":3745:4000  {... */\n      pop\n        /* \"Campaign.sol\":3690:4000  function finalizeRequest(uint index) public restricted {... */\n      pop\n      jump\t// out\n        /* \"Campaign.sol\":932:962  bool public isCanceled = false */\n    tag_30:\n      0x06\n      0x00\n      swap1\n      sload\n      swap1\n      0x0100\n      exp\n      swap1\n      div\n      0xff\n      and\n      dup2\n      jump\t// out\n        /* \"Campaign.sol\":2573:2676  function getBalance() public restricted view returns (uint) {... */\n    tag_35:\n        /* \"Campaign.sol\":2627:2631  uint */\n      0x00\n        /* \"Campaign.sol\":4140:4147  manager */\n      dup1\n      0x00\n      swap1\n      sload\n      swap1\n      0x0100\n      exp\n      swap1\n      div\n      0xffffffffffffffffffffffffffffffffffffffff\n      and\n        /* \"Campaign.sol\":4126:4147  msg.sender == manager */\n      0xffffffffffffffffffffffffffffffffffffffff\n      and\n        /* \"Campaign.sol\":4126:4136  msg.sender */\n      caller\n        /* \"Campaign.sol\":4126:4147  msg.sender == manager */\n      0xffffffffffffffffffffffffffffffffffffffff\n      and\n      eq\n        /* \"Campaign.sol\":4118:4148  require(msg.sender == manager) */\n      tag_111\n      jumpi\n      0x00\n      dup1\n      revert\n    tag_111:\n        /* \"Campaign.sol\":2648:2669  address(this).balance */\n      selfbalance\n        /* \"Campaign.sol\":2641:2669  return address(this).balance */\n      swap1\n      pop\n        /* \"Campaign.sol\":2573:2676  function getBalance() public restricted view returns (uint) {... */\n      swap1\n      jump\t// out\n        /* \"Campaign.sol\":789:834  mapping (address => uint) public contributors */\n    tag_42:\n      mstore(0x20, 0x02)\n      dup1\n      0x00\n      mstore\n      keccak256(0x00, 0x40)\n      0x00\n      swap2\n      pop\n      swap1\n      pop\n      sload\n      dup2\n      jump\t// out\n        /* \"Campaign.sol\":878:900  uint public goalAmount */\n    tag_46:\n      sload(0x04)\n      dup2\n      jump\t// out\n        /* \"Campaign.sol\":906:926  uint public deadline */\n    tag_50:\n      sload(0x05)\n      dup2\n      jump\t// out\n        /* \"Campaign.sol\":2682:2777  function getRequestCount() public view returns (uint) {... */\n    tag_54:\n        /* \"Campaign.sol\":2730:2734  uint */\n      0x00\n        /* \"Campaign.sol\":2751:2770  currentIndexRequest */\n      sload(0x08)\n        /* \"Campaign.sol\":2744:2770  return currentIndexRequest */\n      swap1\n      pop\n        /* \"Campaign.sol\":2682:2777  function getRequestCount() public view returns (uint) {... */\n      swap1\n      jump\t// out\n        /* \"Campaign.sol\":2783:3209  function getSummary() public view returns (... */\n    tag_58:\n        /* \"Campaign.sol\":2833:2837  uint */\n      0x00\n        /* \"Campaign.sol\":2839:2843  uint */\n      dup1\n        /* \"Campaign.sol\":2845:2849  uint */\n      0x00\n        /* \"Campaign.sol\":2851:2855  uint */\n      dup1\n        /* \"Campaign.sol\":2857:2861  uint */\n      0x00\n        /* \"Campaign.sol\":2863:2867  bool */\n      dup1\n        /* \"Campaign.sol\":2869:2873  bool */\n      0x00\n        /* \"Campaign.sol\":2875:2879  uint */\n      dup1\n        /* \"Campaign.sol\":2881:2888  address */\n      0x00\n        /* \"Campaign.sol\":2903:2915  uint balance */\n      dup1\n        /* \"Campaign.sol\":2918:2939  address(this).balance */\n      selfbalance\n        /* \"Campaign.sol\":2903:2939  uint balance = address(this).balance */\n      swap1\n      pop\n        /* \"Campaign.sol\":2947:2965  uint requestsCount */\n      0x00\n        /* \"Campaign.sol\":2968:2987  currentIndexRequest */\n      sload(0x08)\n        /* \"Campaign.sol\":2947:2987  uint requestsCount = currentIndexRequest */\n      swap1\n      pop\n        /* \"Campaign.sol\":3012:3019  balance */\n      dup2\n        /* \"Campaign.sol\":3029:3046  contributorsCount */\n      sload(0x07)\n        /* \"Campaign.sol\":3056:3075  minimumContribution */\n      sload(0x03)\n        /* \"Campaign.sol\":3085:3095  goalAmount */\n      sload(0x04)\n        /* \"Campaign.sol\":3105:3113  deadline */\n      sload(0x05)\n        /* \"Campaign.sol\":3123:3133  isCanceled */\n      0x06\n      0x00\n      swap1\n      sload\n      swap1\n      0x0100\n      exp\n      swap1\n      div\n      0xff\n      and\n        /* \"Campaign.sol\":3143:3154  goalReached */\n      0x06\n      0x01\n      swap1\n      sload\n      swap1\n      0x0100\n      exp\n      swap1\n      div\n      0xff\n      and\n        /* \"Campaign.sol\":3164:3177  requestsCount */\n      dup8\n        /* \"Campaign.sol\":3187:3194  manager */\n      0x00\n      dup1\n      sload\n      swap1\n      0x0100\n      exp\n      swap1\n      div\n      0xffffffffffffffffffffffffffffffffffffffff\n      and\n        /* \"Campaign.sol\":2995:3202  return (... */\n      swap11\n      pop\n      swap11\n      pop\n      swap11\n      pop\n      swap11\n      pop\n      swap11\n      pop\n      swap11\n      pop\n      swap11\n      pop\n      swap11\n      pop\n      swap11\n      pop\n      pop\n      pop\n        /* \"Campaign.sol\":2783:3209  function getSummary() public view returns (... */\n      swap1\n      swap2\n      swap3\n      swap4\n      swap5\n      swap6\n      swap7\n      swap8\n      swap9\n      jump\t// out\n        /* \"Campaign.sol\":527:549  address public manager */\n    tag_63:\n      0x00\n      dup1\n      sload\n      swap1\n      0x0100\n      exp\n      swap1\n      div\n      0xffffffffffffffffffffffffffffffffffffffff\n      and\n      dup2\n      jump\t// out\n        /* \"Campaign.sol\":1005:1041  uint256 public contributorsCount = 0 */\n    tag_68:\n      sload(0x07)\n      dup2\n      jump\t// out\n        /* \"Campaign.sol\":968:999  bool public goalReached = false */\n    tag_72:\n      0x06\n      0x01\n      swap1\n      sload\n      swap1\n      0x0100\n      exp\n      swap1\n      div\n      0xff\n      and\n      dup2\n      jump\t// out\n        /* \"Campaign.sol\":739:783  mapping (uint256 => Request) public requests */\n    tag_77:\n      mstore(0x20, 0x01)\n      dup1\n      0x00\n      mstore\n      keccak256(0x00, 0x40)\n      0x00\n      swap2\n      pop\n      swap1\n      pop\n      dup1\n      0x00\n      add\n      dup1\n      sload\n      tag_115\n      swap1\n      tag_116\n      jump\t// in\n    tag_115:\n      dup1\n      0x1f\n      add\n      0x20\n      dup1\n      swap2\n      div\n      mul\n      0x20\n      add\n      mload(0x40)\n      swap1\n      dup2\n      add\n      0x40\n      mstore\n      dup1\n      swap3\n      swap2\n      swap1\n      dup2\n      dup2\n      mstore\n      0x20\n      add\n      dup3\n      dup1\n      sload\n      tag_117\n      swap1\n      tag_116\n      jump\t// in\n    tag_117:\n      dup1\n      iszero\n      tag_118\n      jumpi\n      dup1\n      0x1f\n      lt\n      tag_119\n      jumpi\n      0x0100\n      dup1\n      dup4\n      sload\n      div\n      mul\n      dup4\n      mstore\n      swap2\n      0x20\n      add\n      swap2\n      jump(tag_118)\n    tag_119:\n      dup3\n      add\n      swap2\n      swap1\n      0x00\n      mstore\n      keccak256(0x00, 0x20)\n      swap1\n    tag_120:\n      dup2\n      sload\n      dup2\n      mstore\n      swap1\n      0x01\n      add\n      swap1\n      0x20\n      add\n      dup1\n      dup4\n      gt\n      tag_120\n      jumpi\n      dup3\n      swap1\n      sub\n      0x1f\n      and\n      dup3\n      add\n      swap2\n    tag_118:\n      pop\n      pop\n      pop\n      pop\n      pop\n      swap1\n      dup1\n      0x01\n      add\n      0x00\n      swap1\n      sload\n      swap1\n      0x0100\n      exp\n      swap1\n      div\n      0xffffffffffffffffffffffffffffffffffffffff\n      and\n      swap1\n      dup1\n      0x02\n      add\n      sload\n      swap1\n      dup1\n      0x03\n      add\n      0x00\n      swap1\n      sload\n      swap1\n      0x0100\n      exp\n      swap1\n      div\n      0xff\n      and\n      swap1\n      dup1\n      0x04\n      add\n      sload\n      swap1\n      pop\n      dup6\n      jump\t// out\n        /* \"Campaign.sol\":3243:3685  function createRequest(string memory description, uint value, address recipient) public restricted {... */\n    tag_84:\n        /* \"Campaign.sol\":4140:4147  manager */\n      0x00\n      dup1\n      sload\n      swap1\n      0x0100\n      exp\n      swap1\n      div\n      0xffffffffffffffffffffffffffffffffffffffff\n      and\n        /* \"Campaign.sol\":4126:4147  msg.sender == manager */\n      0xffffffffffffffffffffffffffffffffffffffff\n      and\n        /* \"Campaign.sol\":4126:4136  msg.sender */\n      caller\n        /* \"Campaign.sol\":4126:4147  msg.sender == manager */\n      0xffffffffffffffffffffffffffffffffffffffff\n      and\n      eq\n        /* \"Campaign.sol\":4118:4148  require(msg.sender == manager) */\n      tag_122\n      jumpi\n      0x00\n      dup1\n      revert\n    tag_122:\n        /* \"Campaign.sol\":3350:3385  Request storage newRequestInStorage */\n      0x00\n        /* \"Campaign.sol\":3388:3396  requests */\n      0x01\n        /* \"Campaign.sol\":3388:3417  requests[currentIndexRequest] */\n      0x00\n        /* \"Campaign.sol\":3397:3416  currentIndexRequest */\n      sload(0x08)\n        /* \"Campaign.sol\":3388:3417  requests[currentIndexRequest] */\n      dup2\n      mstore\n      0x20\n      add\n      swap1\n      dup2\n      mstore\n      0x20\n      add\n      0x00\n      keccak256\n        /* \"Campaign.sol\":3350:3417  Request storage newRequestInStorage = requests[currentIndexRequest] */\n      swap1\n      pop\n        /* \"Campaign.sol\":3459:3470  description */\n      dup4\n        /* \"Campaign.sol\":3425:3444  newRequestInStorage */\n      dup2\n        /* \"Campaign.sol\":3425:3456  newRequestInStorage.description */\n      0x00\n      add\n        /* \"Campaign.sol\":3425:3470  newRequestInStorage.description = description */\n      swap1\n      dup1\n      mload\n      swap1\n      0x20\n      add\n      swap1\n      tag_124\n      swap3\n      swap2\n      swap1\n      tag_125\n      jump\t// in\n    tag_124:\n      pop\n        /* \"Campaign.sol\":3506:3511  value */\n      dup3\n        /* \"Campaign.sol\":3478:3497  newRequestInStorage */\n      dup2\n        /* \"Campaign.sol\":3478:3503  newRequestInStorage.value */\n      0x02\n      add\n        /* \"Campaign.sol\":3478:3511  newRequestInStorage.value = value */\n      dup2\n      swap1\n      sstore\n      pop\n        /* \"Campaign.sol\":3551:3560  recipient */\n      dup2\n        /* \"Campaign.sol\":3519:3538  newRequestInStorage */\n      dup2\n        /* \"Campaign.sol\":3519:3548  newRequestInStorage.recipient */\n      0x01\n      add\n      0x00\n        /* \"Campaign.sol\":3519:3560  newRequestInStorage.recipient = recipient */\n      0x0100\n      exp\n      dup2\n      sload\n      dup2\n      0xffffffffffffffffffffffffffffffffffffffff\n      mul\n      not\n      and\n      swap1\n      dup4\n      0xffffffffffffffffffffffffffffffffffffffff\n      and\n      mul\n      or\n      swap1\n      sstore\n      pop\n        /* \"Campaign.sol\":3599:3604  false */\n      0x00\n        /* \"Campaign.sol\":3568:3587  newRequestInStorage */\n      dup2\n        /* \"Campaign.sol\":3568:3596  newRequestInStorage.complete */\n      0x03\n      add\n      0x00\n        /* \"Campaign.sol\":3568:3604  newRequestInStorage.complete = false */\n      0x0100\n      exp\n      dup2\n      sload\n      dup2\n      0xff\n      mul\n      not\n      and\n      swap1\n      dup4\n      iszero\n      iszero\n      mul\n      or\n      swap1\n      sstore\n      pop\n        /* \"Campaign.sol\":3648:3649  0 */\n      0x00\n        /* \"Campaign.sol\":3612:3631  newRequestInStorage */\n      dup2\n        /* \"Campaign.sol\":3612:3645  newRequestInStorage.approvalCount */\n      0x04\n      add\n        /* \"Campaign.sol\":3612:3649  newRequestInStorage.approvalCount = 0 */\n      dup2\n      swap1\n      sstore\n      pop\n        /* \"Campaign.sol\":3657:3676  currentIndexRequest */\n      0x08\n      0x00\n        /* \"Campaign.sol\":3657:3678  currentIndexRequest++ */\n      dup2\n      sload\n      dup1\n      swap3\n      swap2\n      swap1\n      tag_126\n      swap1\n      tag_127\n      jump\t// in\n    tag_126:\n      swap2\n      swap1\n      pop\n      sstore\n      pop\n        /* \"Campaign.sol\":3342:3685  {... */\n      pop\n        /* \"Campaign.sol\":3243:3685  function createRequest(string memory description, uint value, address recipient) public restricted {... */\n      pop\n      pop\n      pop\n      jump\t// out\n        /* \"Campaign.sol\":841:872  uint public minimumContribution */\n    tag_87:\n      sload(0x03)\n      dup2\n      jump\t// out\n        /* \"Campaign.sol\":4006:4082  function cancelCampaign() public restricted {... */\n    tag_91:\n        /* \"Campaign.sol\":4140:4147  manager */\n      0x00\n      dup1\n      sload\n      swap1\n      0x0100\n      exp\n      swap1\n      div\n      0xffffffffffffffffffffffffffffffffffffffff\n      and\n        /* \"Campaign.sol\":4126:4147  msg.sender == manager */\n      0xffffffffffffffffffffffffffffffffffffffff\n      and\n        /* \"Campaign.sol\":4126:4136  msg.sender */\n      caller\n        /* \"Campaign.sol\":4126:4147  msg.sender == manager */\n      0xffffffffffffffffffffffffffffffffffffffff\n      and\n      eq\n        /* \"Campaign.sol\":4118:4148  require(msg.sender == manager) */\n      tag_129\n      jumpi\n      0x00\n      dup1\n      revert\n    tag_129:\n        /* \"Campaign.sol\":4071:4075  true */\n      0x01\n        /* \"Campaign.sol\":4058:4068  isCanceled */\n      0x06\n      0x00\n        /* \"Campaign.sol\":4058:4075  isCanceled = true */\n      0x0100\n      exp\n      dup2\n      sload\n      dup2\n      0xff\n      mul\n      not\n      and\n      swap1\n      dup4\n      iszero\n      iszero\n      mul\n      or\n      swap1\n      sstore\n      pop\n        /* \"Campaign.sol\":4006:4082  function cancelCampaign() public restricted {... */\n      jump\t// out\n        /* \"Campaign.sol\":2212:2567  function getRefund() public {... */\n    tag_94:\n        /* \"Campaign.sol\":2256:2266  isCanceled */\n      0x06\n      0x00\n      swap1\n      sload\n      swap1\n      0x0100\n      exp\n      swap1\n      div\n      0xff\n      and\n        /* \"Campaign.sol\":2256:2296  isCanceled || block.timestamp > deadline */\n      dup1\n      tag_132\n      jumpi\n      pop\n        /* \"Campaign.sol\":2288:2296  deadline */\n      sload(0x05)\n        /* \"Campaign.sol\":2270:2285  block.timestamp */\n      timestamp\n        /* \"Campaign.sol\":2270:2296  block.timestamp > deadline */\n      gt\n        /* \"Campaign.sol\":2256:2296  isCanceled || block.timestamp > deadline */\n    tag_132:\n        /* \"Campaign.sol\":2248:2322  require(isCanceled || block.timestamp > deadline, 'Refunds not available') */\n      tag_133\n      jumpi\n      mload(0x40)\n      0x08c379a000000000000000000000000000000000000000000000000000000000\n      dup2\n      mstore\n      0x04\n      add\n      tag_134\n      swap1\n      tag_135\n      jump\t// in\n    tag_134:\n      mload(0x40)\n      dup1\n      swap2\n      sub\n      swap1\n      revert\n    tag_133:\n        /* \"Campaign.sol\":2339:2350  goalReached */\n      0x06\n      0x01\n      swap1\n      sload\n      swap1\n      0x0100\n      exp\n      swap1\n      div\n      0xff\n      and\n        /* \"Campaign.sol\":2338:2350  !goalReached */\n      iszero\n        /* \"Campaign.sol\":2330:2375  require(!goalReached, \"The goal was reached\") */\n      tag_136\n      jumpi\n      mload(0x40)\n      0x08c379a000000000000000000000000000000000000000000000000000000000\n      dup2\n      mstore\n      0x04\n      add\n      tag_137\n      swap1\n      tag_138\n      jump\t// in\n    tag_137:\n      mload(0x40)\n      dup1\n      swap2\n      sub\n      swap1\n      revert\n    tag_136:\n        /* \"Campaign.sol\":2383:2394  uint amount */\n      0x00\n        /* \"Campaign.sol\":2397:2409  contributors */\n      0x02\n        /* \"Campaign.sol\":2397:2421  contributors[msg.sender] */\n      0x00\n        /* \"Campaign.sol\":2410:2420  msg.sender */\n      caller\n        /* \"Campaign.sol\":2397:2421  contributors[msg.sender] */\n      0xffffffffffffffffffffffffffffffffffffffff\n      and\n      0xffffffffffffffffffffffffffffffffffffffff\n      and\n      dup2\n      mstore\n      0x20\n      add\n      swap1\n      dup2\n      mstore\n      0x20\n      add\n      0x00\n      keccak256\n      sload\n        /* \"Campaign.sol\":2383:2421  uint amount = contributors[msg.sender] */\n      swap1\n      pop\n        /* \"Campaign.sol\":2446:2447  0 */\n      0x00\n        /* \"Campaign.sol\":2437:2443  amount */\n      dup2\n        /* \"Campaign.sol\":2437:2447  amount > 0 */\n      gt\n        /* \"Campaign.sol\":2429:2479  require(amount > 0, \"You have no funds to refund\") */\n      tag_139\n      jumpi\n      mload(0x40)\n      0x08c379a000000000000000000000000000000000000000000000000000000000\n      dup2\n      mstore\n      0x04\n      add\n      tag_140\n      swap1\n      tag_141\n      jump\t// in\n    tag_140:\n      mload(0x40)\n      dup1\n      swap2\n      sub\n      swap1\n      revert\n    tag_139:\n        /* \"Campaign.sol\":2515:2516  0 */\n      0x00\n        /* \"Campaign.sol\":2488:2500  contributors */\n      0x02\n        /* \"Campaign.sol\":2488:2512  contributors[msg.sender] */\n      0x00\n        /* \"Campaign.sol\":2501:2511  msg.sender */\n      caller\n        /* \"Campaign.sol\":2488:2512  contributors[msg.sender] */\n      0xffffffffffffffffffffffffffffffffffffffff\n      and\n      0xffffffffffffffffffffffffffffffffffffffff\n      and\n      dup2\n      mstore\n      0x20\n      add\n      swap1\n      dup2\n      mstore\n      0x20\n      add\n      0x00\n      keccak256\n        /* \"Campaign.sol\":2488:2516  contributors[msg.sender] = 0 */\n      dup2\n      swap1\n      sstore\n      pop\n        /* \"Campaign.sol\":2532:2542  msg.sender */\n      caller\n        /* \"Campaign.sol\":2524:2552  payable(msg.sender).transfer */\n      0xffffffffffffffffffffffffffffffffffffffff\n      and\n        /* \"Campaign.sol\":2524:2560  payable(msg.sender).transfer(amount) */\n      0x08fc\n        /* \"Campaign.sol\":2553:2559  amount */\n      dup3\n        /* \"Campaign.sol\":2524:2560  payable(msg.sender).transfer(amount) */\n      swap1\n      dup2\n      iszero\n      mul\n      swap1\n      mload(0x40)\n      0x00\n      mload(0x40)\n      dup1\n      dup4\n      sub\n      dup2\n      dup6\n      dup9\n      dup9\n      call\n      swap4\n      pop\n      pop\n      pop\n      pop\n      iszero\n      dup1\n      iszero\n      tag_143\n      jumpi\n      returndatasize\n      0x00\n      dup1\n      returndatacopy\n      revert(0x00, returndatasize)\n    tag_143:\n      pop\n        /* \"Campaign.sol\":2240:2567  {... */\n      pop\n        /* \"Campaign.sol\":2212:2567  function getRefund() public {... */\n      jump\t// out\n        /* \"Campaign.sol\":1348:1779  function contribute() public payable {... */\n    tag_96:\n        /* \"Campaign.sol\":1415:1422  manager */\n      0x00\n      dup1\n      sload\n      swap1\n      0x0100\n      exp\n      swap1\n      div\n      0xffffffffffffffffffffffffffffffffffffffff\n      and\n        /* \"Campaign.sol\":1401:1422  msg.sender != manager */\n      0xffffffffffffffffffffffffffffffffffffffff\n      and\n        /* \"Campaign.sol\":1401:1411  msg.sender */\n      caller\n        /* \"Campaign.sol\":1401:1422  msg.sender != manager */\n      0xffffffffffffffffffffffffffffffffffffffff\n      and\n      eq\n      iszero\n        /* \"Campaign.sol\":1393:1454  require(msg.sender != manager, \"The manager cant contribute\") */\n      tag_145\n      jumpi\n      mload(0x40)\n      0x08c379a000000000000000000000000000000000000000000000000000000000\n      dup2\n      mstore\n      0x04\n      add\n      tag_146\n      swap1\n      tag_147\n      jump\t// in\n    tag_146:\n      mload(0x40)\n      dup1\n      swap2\n      sub\n      swap1\n      revert\n    tag_145:\n        /* \"Campaign.sol\":1482:1501  minimumContribution */\n      sload(0x03)\n        /* \"Campaign.sol\":1470:1479  msg.value */\n      callvalue\n        /* \"Campaign.sol\":1470:1501  msg.value > minimumContribution */\n      gt\n        /* \"Campaign.sol\":1462:1560  require(msg.value > minimumContribution, \"Ether value must be greater than minimum contribution.\") */\n      tag_148\n      jumpi\n      mload(0x40)\n      0x08c379a000000000000000000000000000000000000000000000000000000000\n      dup2\n      mstore\n      0x04\n      add\n      tag_149\n      swap1\n      tag_150\n      jump\t// in\n    tag_149:\n      mload(0x40)\n      dup1\n      swap2\n      sub\n      swap1\n      revert\n    tag_148:\n        /* \"Campaign.sol\":1601:1602  0 */\n      0x00\n        /* \"Campaign.sol\":1573:1585  contributors */\n      0x02\n        /* \"Campaign.sol\":1573:1597  contributors[msg.sender] */\n      0x00\n        /* \"Campaign.sol\":1586:1596  msg.sender */\n      caller\n        /* \"Campaign.sol\":1573:1597  contributors[msg.sender] */\n      0xffffffffffffffffffffffffffffffffffffffff\n      and\n      0xffffffffffffffffffffffffffffffffffffffff\n      and\n      dup2\n      mstore\n      0x20\n      add\n      swap1\n      dup2\n      mstore\n      0x20\n      add\n      0x00\n      keccak256\n      sload\n        /* \"Campaign.sol\":1573:1602  contributors[msg.sender] == 0 */\n      eq\n        /* \"Campaign.sol\":1569:1642  if (contributors[msg.sender] == 0) {... */\n      iszero\n      tag_151\n      jumpi\n        /* \"Campaign.sol\":1614:1631  contributorsCount */\n      0x07\n      0x00\n        /* \"Campaign.sol\":1614:1633  contributorsCount++ */\n      dup2\n      sload\n      dup1\n      swap3\n      swap2\n      swap1\n      tag_152\n      swap1\n      tag_127\n      jump\t// in\n    tag_152:\n      swap2\n      swap1\n      pop\n      sstore\n      pop\n        /* \"Campaign.sol\":1569:1642  if (contributors[msg.sender] == 0) {... */\n    tag_151:\n        /* \"Campaign.sol\":1677:1686  msg.value */\n      callvalue\n        /* \"Campaign.sol\":1649:1661  contributors */\n      0x02\n        /* \"Campaign.sol\":1649:1673  contributors[msg.sender] */\n      0x00\n        /* \"Campaign.sol\":1662:1672  msg.sender */\n      caller\n        /* \"Campaign.sol\":1649:1673  contributors[msg.sender] */\n      0xffffffffffffffffffffffffffffffffffffffff\n      and\n      0xffffffffffffffffffffffffffffffffffffffff\n      and\n      dup2\n      mstore\n      0x20\n      add\n      swap1\n      dup2\n      mstore\n      0x20\n      add\n      0x00\n      keccak256\n      0x00\n        /* \"Campaign.sol\":1649:1686  contributors[msg.sender] += msg.value */\n      dup3\n      dup3\n      sload\n      tag_153\n      swap2\n      swap1\n      tag_154\n      jump\t// in\n    tag_153:\n      swap3\n      pop\n      pop\n      dup2\n      swap1\n      sstore\n      pop\n        /* \"Campaign.sol\":1724:1734  goalAmount */\n      sload(0x04)\n        /* \"Campaign.sol\":1699:1720  address(this).balance */\n      selfbalance\n        /* \"Campaign.sol\":1699:1734  address(this).balance >= goalAmount */\n      lt\n        /* \"Campaign.sol\":1695:1773  if (address(this).balance >= goalAmount) {... */\n      tag_155\n      jumpi\n        /* \"Campaign.sol\":1760:1764  true */\n      0x01\n        /* \"Campaign.sol\":1746:1757  goalReached */\n      0x06\n      0x01\n        /* \"Campaign.sol\":1746:1764  goalReached = true */\n      0x0100\n      exp\n      dup2\n      sload\n      dup2\n      0xff\n      mul\n      not\n      and\n      swap1\n      dup4\n      iszero\n      iszero\n      mul\n      or\n      swap1\n      sstore\n      pop\n        /* \"Campaign.sol\":1695:1773  if (address(this).balance >= goalAmount) {... */\n    tag_155:\n        /* \"Campaign.sol\":1348:1779  function contribute() public payable {... */\n      jump\t// out\n        /* \"Campaign.sol\":1785:2206  function approveRequest(uint requestIndex) public {... */\n    tag_100:\n        /* \"Campaign.sol\":1865:1872  manager */\n      0x00\n      dup1\n      sload\n      swap1\n      0x0100\n      exp\n      swap1\n      div\n      0xffffffffffffffffffffffffffffffffffffffff\n      and\n        /* \"Campaign.sol\":1851:1872  msg.sender != manager */\n      0xffffffffffffffffffffffffffffffffffffffff\n      and\n        /* \"Campaign.sol\":1851:1861  msg.sender */\n      caller\n        /* \"Campaign.sol\":1851:1872  msg.sender != manager */\n      0xffffffffffffffffffffffffffffffffffffffff\n      and\n      eq\n      iszero\n        /* \"Campaign.sol\":1843:1901  require(msg.sender != manager, \"The manager cant approve\") */\n      tag_157\n      jumpi\n      mload(0x40)\n      0x08c379a000000000000000000000000000000000000000000000000000000000\n      dup2\n      mstore\n      0x04\n      add\n      tag_158\n      swap1\n      tag_159\n      jump\t// in\n    tag_158:\n      mload(0x40)\n      dup1\n      swap2\n      sub\n      swap1\n      revert\n    tag_157:\n        /* \"Campaign.sol\":1944:1945  0 */\n      0x00\n        /* \"Campaign.sol\":1917:1929  contributors */\n      0x02\n        /* \"Campaign.sol\":1917:1941  contributors[msg.sender] */\n      0x00\n        /* \"Campaign.sol\":1930:1940  msg.sender */\n      caller\n        /* \"Campaign.sol\":1917:1941  contributors[msg.sender] */\n      0xffffffffffffffffffffffffffffffffffffffff\n      and\n      0xffffffffffffffffffffffffffffffffffffffff\n      and\n      dup2\n      mstore\n      0x20\n      add\n      swap1\n      dup2\n      mstore\n      0x20\n      add\n      0x00\n      keccak256\n      sload\n        /* \"Campaign.sol\":1917:1945  contributors[msg.sender] > 0 */\n      gt\n        /* \"Campaign.sol\":1909:2004  require(contributors[msg.sender] > 0, \"You must be a contributer in order to approve requests\") */\n      tag_160\n      jumpi\n      mload(0x40)\n      0x08c379a000000000000000000000000000000000000000000000000000000000\n      dup2\n      mstore\n      0x04\n      add\n      tag_161\n      swap1\n      tag_162\n      jump\t// in\n    tag_161:\n      mload(0x40)\n      dup1\n      swap2\n      sub\n      swap1\n      revert\n    tag_160:\n        /* \"Campaign.sol\":2013:2036  Request storage request */\n      0x00\n        /* \"Campaign.sol\":2039:2047  requests */\n      0x01\n        /* \"Campaign.sol\":2039:2061  requests[requestIndex] */\n      0x00\n        /* \"Campaign.sol\":2048:2060  requestIndex */\n      dup4\n        /* \"Campaign.sol\":2039:2061  requests[requestIndex] */\n      dup2\n      mstore\n      0x20\n      add\n      swap1\n      dup2\n      mstore\n      0x20\n      add\n      0x00\n      keccak256\n        /* \"Campaign.sol\":2013:2061  Request storage request = requests[requestIndex] */\n      swap1\n      pop\n        /* \"Campaign.sol\":2078:2085  request */\n      dup1\n        /* \"Campaign.sol\":2078:2092  request.voters */\n      0x05\n      add\n        /* \"Campaign.sol\":2078:2104  request.voters[msg.sender] */\n      0x00\n        /* \"Campaign.sol\":2093:2103  msg.sender */\n      caller\n        /* \"Campaign.sol\":2078:2104  request.voters[msg.sender] */\n      0xffffffffffffffffffffffffffffffffffffffff\n      and\n      0xffffffffffffffffffffffffffffffffffffffff\n      and\n      dup2\n      mstore\n      0x20\n      add\n      swap1\n      dup2\n      mstore\n      0x20\n      add\n      0x00\n      keccak256\n      0x00\n      swap1\n      sload\n      swap1\n      0x0100\n      exp\n      swap1\n      div\n      0xff\n      and\n        /* \"Campaign.sol\":2077:2104  !request.voters[msg.sender] */\n      iszero\n        /* \"Campaign.sol\":2069:2126  require(!request.voters[msg.sender], \"You already voted\") */\n      tag_163\n      jumpi\n      mload(0x40)\n      0x08c379a000000000000000000000000000000000000000000000000000000000\n      dup2\n      mstore\n      0x04\n      add\n      tag_164\n      swap1\n      tag_165\n      jump\t// in\n    tag_164:\n      mload(0x40)\n      dup1\n      swap2\n      sub\n      swap1\n      revert\n    tag_163:\n        /* \"Campaign.sol\":2164:2168  true */\n      0x01\n        /* \"Campaign.sol\":2135:2142  request */\n      dup2\n        /* \"Campaign.sol\":2135:2149  request.voters */\n      0x05\n      add\n        /* \"Campaign.sol\":2135:2161  request.voters[msg.sender] */\n      0x00\n        /* \"Campaign.sol\":2150:2160  msg.sender */\n      caller\n        /* \"Campaign.sol\":2135:2161  request.voters[msg.sender] */\n      0xffffffffffffffffffffffffffffffffffffffff\n      and\n      0xffffffffffffffffffffffffffffffffffffffff\n      and\n      dup2\n      mstore\n      0x20\n      add\n      swap1\n      dup2\n      mstore\n      0x20\n      add\n      0x00\n      keccak256\n      0x00\n        /* \"Campaign.sol\":2135:2168  request.voters[msg.sender] = true */\n      0x0100\n      exp\n      dup2\n      sload\n      dup2\n      0xff\n      mul\n      not\n      and\n      swap1\n      dup4\n      iszero\n      iszero\n      mul\n      or\n      swap1\n      sstore\n      pop\n        /* \"Campaign.sol\":2176:2183  request */\n      dup1\n        /* \"Campaign.sol\":2176:2197  request.approvalCount */\n      0x04\n      add\n      0x00\n        /* \"Campaign.sol\":2176:2199  request.approvalCount++ */\n      dup2\n      sload\n      dup1\n      swap3\n      swap2\n      swap1\n      tag_166\n      swap1\n      tag_127\n      jump\t// in\n    tag_166:\n      swap2\n      swap1\n      pop\n      sstore\n      pop\n        /* \"Campaign.sol\":1835:2206  {... */\n      pop\n        /* \"Campaign.sol\":1785:2206  function approveRequest(uint requestIndex) public {... */\n      pop\n      jump\t// out\n    tag_125:\n      dup3\n      dup1\n      sload\n      tag_167\n      swap1\n      tag_116\n      jump\t// in\n    tag_167:\n      swap1\n      0x00\n      mstore\n      keccak256(0x00, 0x20)\n      swap1\n      0x1f\n      add\n      0x20\n      swap1\n      div\n      dup2\n      add\n      swap3\n      dup3\n      tag_169\n      jumpi\n      0x00\n      dup6\n      sstore\n      jump(tag_168)\n    tag_169:\n      dup3\n      0x1f\n      lt\n      tag_170\n      jumpi\n      dup1\n      mload\n      not(0xff)\n      and\n      dup4\n      dup1\n      add\n      or\n      dup6\n      sstore\n      jump(tag_168)\n    tag_170:\n      dup3\n      dup1\n      add\n      0x01\n      add\n      dup6\n      sstore\n      dup3\n      iszero\n      tag_168\n      jumpi\n      swap2\n      dup3\n      add\n    tag_171:\n      dup3\n      dup2\n      gt\n      iszero\n      tag_172\n      jumpi\n      dup3\n      mload\n      dup3\n      sstore\n      swap2\n      0x20\n      add\n      swap2\n      swap1\n      0x01\n      add\n      swap1\n      jump(tag_171)\n    tag_172:\n    tag_168:\n      pop\n      swap1\n      pop\n      tag_173\n      swap2\n      swap1\n      tag_174\n      jump\t// in\n    tag_173:\n      pop\n      swap1\n      jump\t// out\n    tag_174:\n    tag_175:\n      dup1\n      dup3\n      gt\n      iszero\n      tag_176\n      jumpi\n      0x00\n      dup2\n      0x00\n      swap1\n      sstore\n      pop\n      0x01\n      add\n      jump(tag_175)\n    tag_176:\n      pop\n      swap1\n      jump\t// out\n        /* \"#utility.yul\":7:82   */\n    tag_177:\n        /* \"#utility.yul\":40:46   */\n      0x00\n        /* \"#utility.yul\":73:75   */\n      0x40\n        /* \"#utility.yul\":67:76   */\n      mload\n        /* \"#utility.yul\":57:76   */\n      swap1\n      pop\n        /* \"#utility.yul\":7:82   */\n      swap1\n      jump\t// out\n        /* \"#utility.yul\":88:205   */\n    tag_178:\n        /* \"#utility.yul\":197:198   */\n      0x00\n        /* \"#utility.yul\":194:195   */\n      dup1\n        /* \"#utility.yul\":187:199   */\n      revert\n        /* \"#utility.yul\":211:328   */\n    tag_179:\n        /* \"#utility.yul\":320:321   */\n      0x00\n        /* \"#utility.yul\":317:318   */\n      dup1\n        /* \"#utility.yul\":310:322   */\n      revert\n        /* \"#utility.yul\":334:411   */\n    tag_180:\n        /* \"#utility.yul\":371:378   */\n      0x00\n        /* \"#utility.yul\":400:405   */\n      dup2\n        /* \"#utility.yul\":389:405   */\n      swap1\n      pop\n        /* \"#utility.yul\":334:411   */\n      swap2\n      swap1\n      pop\n      jump\t// out\n        /* \"#utility.yul\":417:539   */\n    tag_181:\n        /* \"#utility.yul\":490:514   */\n      tag_230\n        /* \"#utility.yul\":508:513   */\n      dup2\n        /* \"#utility.yul\":490:514   */\n      tag_180\n      jump\t// in\n    tag_230:\n        /* \"#utility.yul\":483:488   */\n      dup2\n        /* \"#utility.yul\":480:515   */\n      eq\n        /* \"#utility.yul\":470:533   */\n      tag_231\n      jumpi\n        /* \"#utility.yul\":529:530   */\n      0x00\n        /* \"#utility.yul\":526:527   */\n      dup1\n        /* \"#utility.yul\":519:531   */\n      revert\n        /* \"#utility.yul\":470:533   */\n    tag_231:\n        /* \"#utility.yul\":417:539   */\n      pop\n      jump\t// out\n        /* \"#utility.yul\":545:684   */\n    tag_182:\n        /* \"#utility.yul\":591:596   */\n      0x00\n        /* \"#utility.yul\":629:635   */\n      dup2\n        /* \"#utility.yul\":616:636   */\n      calldataload\n        /* \"#utility.yul\":607:636   */\n      swap1\n      pop\n        /* \"#utility.yul\":645:678   */\n      tag_233\n        /* \"#utility.yul\":672:677   */\n      dup2\n        /* \"#utility.yul\":645:678   */\n      tag_181\n      jump\t// in\n    tag_233:\n        /* \"#utility.yul\":545:684   */\n      swap3\n      swap2\n      pop\n      pop\n      jump\t// out\n        /* \"#utility.yul\":690:1019   */\n    tag_26:\n        /* \"#utility.yul\":749:755   */\n      0x00\n        /* \"#utility.yul\":798:800   */\n      0x20\n        /* \"#utility.yul\":786:795   */\n      dup3\n        /* \"#utility.yul\":777:784   */\n      dup5\n        /* \"#utility.yul\":773:796   */\n      sub\n        /* \"#utility.yul\":769:801   */\n      slt\n        /* \"#utility.yul\":766:885   */\n      iszero\n      tag_235\n      jumpi\n        /* \"#utility.yul\":804:883   */\n      tag_236\n      tag_178\n      jump\t// in\n    tag_236:\n        /* \"#utility.yul\":766:885   */\n    tag_235:\n        /* \"#utility.yul\":924:925   */\n      0x00\n        /* \"#utility.yul\":949:1002   */\n      tag_237\n        /* \"#utility.yul\":994:1001   */\n      dup5\n        /* \"#utility.yul\":985:991   */\n      dup3\n        /* \"#utility.yul\":974:983   */\n      dup6\n        /* \"#utility.yul\":970:992   */\n      add\n        /* \"#utility.yul\":949:1002   */\n      tag_182\n      jump\t// in\n    tag_237:\n        /* \"#utility.yul\":939:1002   */\n      swap2\n      pop\n        /* \"#utility.yul\":895:1012   */\n      pop\n        /* \"#utility.yul\":690:1019   */\n      swap3\n      swap2\n      pop\n      pop\n      jump\t// out\n        /* \"#utility.yul\":1025:1115   */\n    tag_183:\n        /* \"#utility.yul\":1059:1066   */\n      0x00\n        /* \"#utility.yul\":1102:1107   */\n      dup2\n        /* \"#utility.yul\":1095:1108   */\n      iszero\n        /* \"#utility.yul\":1088:1109   */\n      iszero\n        /* \"#utility.yul\":1077:1109   */\n      swap1\n      pop\n        /* \"#utility.yul\":1025:1115   */\n      swap2\n      swap1\n      pop\n      jump\t// out\n        /* \"#utility.yul\":1121:1230   */\n    tag_184:\n        /* \"#utility.yul\":1202:1223   */\n      tag_240\n        /* \"#utility.yul\":1217:1222   */\n      dup2\n        /* \"#utility.yul\":1202:1223   */\n      tag_183\n      jump\t// in\n    tag_240:\n        /* \"#utility.yul\":1197:1200   */\n      dup3\n        /* \"#utility.yul\":1190:1224   */\n      mstore\n        /* \"#utility.yul\":1121:1230   */\n      pop\n      pop\n      jump\t// out\n        /* \"#utility.yul\":1236:1446   */\n    tag_32:\n        /* \"#utility.yul\":1323:1327   */\n      0x00\n        /* \"#utility.yul\":1361:1363   */\n      0x20\n        /* \"#utility.yul\":1350:1359   */\n      dup3\n        /* \"#utility.yul\":1346:1364   */\n      add\n        /* \"#utility.yul\":1338:1364   */\n      swap1\n      pop\n        /* \"#utility.yul\":1374:1439   */\n      tag_242\n        /* \"#utility.yul\":1436:1437   */\n      0x00\n        /* \"#utility.yul\":1425:1434   */\n      dup4\n        /* \"#utility.yul\":1421:1438   */\n      add\n        /* \"#utility.yul\":1412:1418   */\n      dup5\n        /* \"#utility.yul\":1374:1439   */\n      tag_184\n      jump\t// in\n    tag_242:\n        /* \"#utility.yul\":1236:1446   */\n      swap3\n      swap2\n      pop\n      pop\n      jump\t// out\n        /* \"#utility.yul\":1452:1570   */\n    tag_185:\n        /* \"#utility.yul\":1539:1563   */\n      tag_244\n        /* \"#utility.yul\":1557:1562   */\n      dup2\n        /* \"#utility.yul\":1539:1563   */\n      tag_180\n      jump\t// in\n    tag_244:\n        /* \"#utility.yul\":1534:1537   */\n      dup3\n        /* \"#utility.yul\":1527:1564   */\n      mstore\n        /* \"#utility.yul\":1452:1570   */\n      pop\n      pop\n      jump\t// out\n        /* \"#utility.yul\":1576:1798   */\n    tag_37:\n        /* \"#utility.yul\":1669:1673   */\n      0x00\n        /* \"#utility.yul\":1707:1709   */\n      0x20\n        /* \"#utility.yul\":1696:1705   */\n      dup3\n        /* \"#utility.yul\":1692:1710   */\n      add\n        /* \"#utility.yul\":1684:1710   */\n      swap1\n      pop\n        /* \"#utility.yul\":1720:1791   */\n      tag_246\n        /* \"#utility.yul\":1788:1789   */\n      0x00\n        /* \"#utility.yul\":1777:1786   */\n      dup4\n        /* \"#utility.yul\":1773:1790   */\n      add\n        /* \"#utility.yul\":1764:1770   */\n      dup5\n        /* \"#utility.yul\":1720:1791   */\n      tag_185\n      jump\t// in\n    tag_246:\n        /* \"#utility.yul\":1576:1798   */\n      swap3\n      swap2\n      pop\n      pop\n      jump\t// out\n        /* \"#utility.yul\":1804:1930   */\n    tag_186:\n        /* \"#utility.yul\":1841:1848   */\n      0x00\n        /* \"#utility.yul\":1881:1923   */\n      0xffffffffffffffffffffffffffffffffffffffff\n        /* \"#utility.yul\":1874:1879   */\n      dup3\n        /* \"#utility.yul\":1870:1924   */\n      and\n        /* \"#utility.yul\":1859:1924   */\n      swap1\n      pop\n        /* \"#utility.yul\":1804:1930   */\n      swap2\n      swap1\n      pop\n      jump\t// out\n        /* \"#utility.yul\":1936:2032   */\n    tag_187:\n        /* \"#utility.yul\":1973:1980   */\n      0x00\n        /* \"#utility.yul\":2002:2026   */\n      tag_249\n        /* \"#utility.yul\":2020:2025   */\n      dup3\n        /* \"#utility.yul\":2002:2026   */\n      tag_186\n      jump\t// in\n    tag_249:\n        /* \"#utility.yul\":1991:2026   */\n      swap1\n      pop\n        /* \"#utility.yul\":1936:2032   */\n      swap2\n      swap1\n      pop\n      jump\t// out\n        /* \"#utility.yul\":2038:2160   */\n    tag_188:\n        /* \"#utility.yul\":2111:2135   */\n      tag_251\n        /* \"#utility.yul\":2129:2134   */\n      dup2\n        /* \"#utility.yul\":2111:2135   */\n      tag_187\n      jump\t// in\n    tag_251:\n        /* \"#utility.yul\":2104:2109   */\n      dup2\n        /* \"#utility.yul\":2101:2136   */\n      eq\n        /* \"#utility.yul\":2091:2154   */\n      tag_252\n      jumpi\n        /* \"#utility.yul\":2150:2151   */\n      0x00\n        /* \"#utility.yul\":2147:2148   */\n      dup1\n        /* \"#utility.yul\":2140:2152   */\n      revert\n        /* \"#utility.yul\":2091:2154   */\n    tag_252:\n        /* \"#utility.yul\":2038:2160   */\n      pop\n      jump\t// out\n        /* \"#utility.yul\":2166:2305   */\n    tag_189:\n        /* \"#utility.yul\":2212:2217   */\n      0x00\n        /* \"#utility.yul\":2250:2256   */\n      dup2\n        /* \"#utility.yul\":2237:2257   */\n      calldataload\n        /* \"#utility.yul\":2228:2257   */\n      swap1\n      pop\n        /* \"#utility.yul\":2266:2299   */\n      tag_254\n        /* \"#utility.yul\":2293:2298   */\n      dup2\n        /* \"#utility.yul\":2266:2299   */\n      tag_188\n      jump\t// in\n    tag_254:\n        /* \"#utility.yul\":2166:2305   */\n      swap3\n      swap2\n      pop\n      pop\n      jump\t// out\n        /* \"#utility.yul\":2311:2640   */\n    tag_41:\n        /* \"#utility.yul\":2370:2376   */\n      0x00\n        /* \"#utility.yul\":2419:2421   */\n      0x20\n        /* \"#utility.yul\":2407:2416   */\n      dup3\n        /* \"#utility.yul\":2398:2405   */\n      dup5\n        /* \"#utility.yul\":2394:2417   */\n      sub\n        /* \"#utility.yul\":2390:2422   */\n      slt\n        /* \"#utility.yul\":2387:2506   */\n      iszero\n      tag_256\n      jumpi\n        /* \"#utility.yul\":2425:2504   */\n      tag_257\n      tag_178\n      jump\t// in\n    tag_257:\n        /* \"#utility.yul\":2387:2506   */\n    tag_256:\n        /* \"#utility.yul\":2545:2546   */\n      0x00\n        /* \"#utility.yul\":2570:2623   */\n      tag_258\n        /* \"#utility.yul\":2615:2622   */\n      dup5\n        /* \"#utility.yul\":2606:2612   */\n      dup3\n        /* \"#utility.yul\":2595:2604   */\n      dup6\n        /* \"#utility.yul\":2591:2613   */\n      add\n        /* \"#utility.yul\":2570:2623   */\n      tag_189\n      jump\t// in\n    tag_258:\n        /* \"#utility.yul\":2560:2623   */\n      swap2\n      pop\n        /* \"#utility.yul\":2516:2633   */\n      pop\n        /* \"#utility.yul\":2311:2640   */\n      swap3\n      swap2\n      pop\n      pop\n      jump\t// out\n        /* \"#utility.yul\":2646:2764   */\n    tag_190:\n        /* \"#utility.yul\":2733:2757   */\n      tag_260\n        /* \"#utility.yul\":2751:2756   */\n      dup2\n        /* \"#utility.yul\":2733:2757   */\n      tag_187\n      jump\t// in\n    tag_260:\n        /* \"#utility.yul\":2728:2731   */\n      dup3\n        /* \"#utility.yul\":2721:2758   */\n      mstore\n        /* \"#utility.yul\":2646:2764   */\n      pop\n      pop\n      jump\t// out\n        /* \"#utility.yul\":2770:3854   */\n    tag_60:\n        /* \"#utility.yul\":3075:3079   */\n      0x00\n        /* \"#utility.yul\":3113:3116   */\n      0x0120\n        /* \"#utility.yul\":3102:3111   */\n      dup3\n        /* \"#utility.yul\":3098:3117   */\n      add\n        /* \"#utility.yul\":3090:3117   */\n      swap1\n      pop\n        /* \"#utility.yul\":3127:3198   */\n      tag_262\n        /* \"#utility.yul\":3195:3196   */\n      0x00\n        /* \"#utility.yul\":3184:3193   */\n      dup4\n        /* \"#utility.yul\":3180:3197   */\n      add\n        /* \"#utility.yul\":3171:3177   */\n      dup13\n        /* \"#utility.yul\":3127:3198   */\n      tag_185\n      jump\t// in\n    tag_262:\n        /* \"#utility.yul\":3208:3280   */\n      tag_263\n        /* \"#utility.yul\":3276:3278   */\n      0x20\n        /* \"#utility.yul\":3265:3274   */\n      dup4\n        /* \"#utility.yul\":3261:3279   */\n      add\n        /* \"#utility.yul\":3252:3258   */\n      dup12\n        /* \"#utility.yul\":3208:3280   */\n      tag_185\n      jump\t// in\n    tag_263:\n        /* \"#utility.yul\":3290:3362   */\n      tag_264\n        /* \"#utility.yul\":3358:3360   */\n      0x40\n        /* \"#utility.yul\":3347:3356   */\n      dup4\n        /* \"#utility.yul\":3343:3361   */\n      add\n        /* \"#utility.yul\":3334:3340   */\n      dup11\n        /* \"#utility.yul\":3290:3362   */\n      tag_185\n      jump\t// in\n    tag_264:\n        /* \"#utility.yul\":3372:3444   */\n      tag_265\n        /* \"#utility.yul\":3440:3442   */\n      0x60\n        /* \"#utility.yul\":3429:3438   */\n      dup4\n        /* \"#utility.yul\":3425:3443   */\n      add\n        /* \"#utility.yul\":3416:3422   */\n      dup10\n        /* \"#utility.yul\":3372:3444   */\n      tag_185\n      jump\t// in\n    tag_265:\n        /* \"#utility.yul\":3454:3527   */\n      tag_266\n        /* \"#utility.yul\":3522:3525   */\n      0x80\n        /* \"#utility.yul\":3511:3520   */\n      dup4\n        /* \"#utility.yul\":3507:3526   */\n      add\n        /* \"#utility.yul\":3498:3504   */\n      dup9\n        /* \"#utility.yul\":3454:3527   */\n      tag_185\n      jump\t// in\n    tag_266:\n        /* \"#utility.yul\":3537:3604   */\n      tag_267\n        /* \"#utility.yul\":3599:3602   */\n      0xa0\n        /* \"#utility.yul\":3588:3597   */\n      dup4\n        /* \"#utility.yul\":3584:3603   */\n      add\n        /* \"#utility.yul\":3575:3581   */\n      dup8\n        /* \"#utility.yul\":3537:3604   */\n      tag_184\n      jump\t// in\n    tag_267:\n        /* \"#utility.yul\":3614:3681   */\n      tag_268\n        /* \"#utility.yul\":3676:3679   */\n      0xc0\n        /* \"#utility.yul\":3665:3674   */\n      dup4\n        /* \"#utility.yul\":3661:3680   */\n      add\n        /* \"#utility.yul\":3652:3658   */\n      dup7\n        /* \"#utility.yul\":3614:3681   */\n      tag_184\n      jump\t// in\n    tag_268:\n        /* \"#utility.yul\":3691:3764   */\n      tag_269\n        /* \"#utility.yul\":3759:3762   */\n      0xe0\n        /* \"#utility.yul\":3748:3757   */\n      dup4\n        /* \"#utility.yul\":3744:3763   */\n      add\n        /* \"#utility.yul\":3735:3741   */\n      dup6\n        /* \"#utility.yul\":3691:3764   */\n      tag_185\n      jump\t// in\n    tag_269:\n        /* \"#utility.yul\":3774:3847   */\n      tag_270\n        /* \"#utility.yul\":3842:3845   */\n      0x0100\n        /* \"#utility.yul\":3831:3840   */\n      dup4\n        /* \"#utility.yul\":3827:3846   */\n      add\n        /* \"#utility.yul\":3818:3824   */\n      dup5\n        /* \"#utility.yul\":3774:3847   */\n      tag_190\n      jump\t// in\n    tag_270:\n        /* \"#utility.yul\":2770:3854   */\n      swap11\n      swap10\n      pop\n      pop\n      pop\n      pop\n      pop\n      pop\n      pop\n      pop\n      pop\n      pop\n      jump\t// out\n        /* \"#utility.yul\":3860:4082   */\n    tag_65:\n        /* \"#utility.yul\":3953:3957   */\n      0x00\n        /* \"#utility.yul\":3991:3993   */\n      0x20\n        /* \"#utility.yul\":3980:3989   */\n      dup3\n        /* \"#utility.yul\":3976:3994   */\n      add\n        /* \"#utility.yul\":3968:3994   */\n      swap1\n      pop\n        /* \"#utility.yul\":4004:4075   */\n      tag_272\n        /* \"#utility.yul\":4072:4073   */\n      0x00\n        /* \"#utility.yul\":4061:4070   */\n      dup4\n        /* \"#utility.yul\":4057:4074   */\n      add\n        /* \"#utility.yul\":4048:4054   */\n      dup5\n        /* \"#utility.yul\":4004:4075   */\n      tag_190\n      jump\t// in\n    tag_272:\n        /* \"#utility.yul\":3860:4082   */\n      swap3\n      swap2\n      pop\n      pop\n      jump\t// out\n        /* \"#utility.yul\":4088:4187   */\n    tag_191:\n        /* \"#utility.yul\":4140:4146   */\n      0x00\n        /* \"#utility.yul\":4174:4179   */\n      dup2\n        /* \"#utility.yul\":4168:4180   */\n      mload\n        /* \"#utility.yul\":4158:4180   */\n      swap1\n      pop\n        /* \"#utility.yul\":4088:4187   */\n      swap2\n      swap1\n      pop\n      jump\t// out\n        /* \"#utility.yul\":4193:4362   */\n    tag_192:\n        /* \"#utility.yul\":4277:4288   */\n      0x00\n        /* \"#utility.yul\":4311:4317   */\n      dup3\n        /* \"#utility.yul\":4306:4309   */\n      dup3\n        /* \"#utility.yul\":4299:4318   */\n      mstore\n        /* \"#utility.yul\":4351:4355   */\n      0x20\n        /* \"#utility.yul\":4346:4349   */\n      dup3\n        /* \"#utility.yul\":4342:4356   */\n      add\n        /* \"#utility.yul\":4327:4356   */\n      swap1\n      pop\n        /* \"#utility.yul\":4193:4362   */\n      swap3\n      swap2\n      pop\n      pop\n      jump\t// out\n        /* \"#utility.yul\":4368:4675   */\n    tag_193:\n        /* \"#utility.yul\":4436:4437   */\n      0x00\n        /* \"#utility.yul\":4446:4559   */\n    tag_276:\n        /* \"#utility.yul\":4460:4466   */\n      dup4\n        /* \"#utility.yul\":4457:4458   */\n      dup2\n        /* \"#utility.yul\":4454:4467   */\n      lt\n        /* \"#utility.yul\":4446:4559   */\n      iszero\n      tag_278\n      jumpi\n        /* \"#utility.yul\":4545:4546   */\n      dup1\n        /* \"#utility.yul\":4540:4543   */\n      dup3\n        /* \"#utility.yul\":4536:4547   */\n      add\n        /* \"#utility.yul\":4530:4548   */\n      mload\n        /* \"#utility.yul\":4526:4527   */\n      dup2\n        /* \"#utility.yul\":4521:4524   */\n      dup5\n        /* \"#utility.yul\":4517:4528   */\n      add\n        /* \"#utility.yul\":4510:4549   */\n      mstore\n        /* \"#utility.yul\":4482:4484   */\n      0x20\n        /* \"#utility.yul\":4479:4480   */\n      dup2\n        /* \"#utility.yul\":4475:4485   */\n      add\n        /* \"#utility.yul\":4470:4485   */\n      swap1\n      pop\n        /* \"#utility.yul\":4446:4559   */\n      jump(tag_276)\n    tag_278:\n        /* \"#utility.yul\":4577:4583   */\n      dup4\n        /* \"#utility.yul\":4574:4575   */\n      dup2\n        /* \"#utility.yul\":4571:4584   */\n      gt\n        /* \"#utility.yul\":4568:4669   */\n      iszero\n      tag_279\n      jumpi\n        /* \"#utility.yul\":4657:4658   */\n      0x00\n        /* \"#utility.yul\":4648:4654   */\n      dup5\n        /* \"#utility.yul\":4643:4646   */\n      dup5\n        /* \"#utility.yul\":4639:4655   */\n      add\n        /* \"#utility.yul\":4632:4659   */\n      mstore\n        /* \"#utility.yul\":4568:4669   */\n    tag_279:\n        /* \"#utility.yul\":4417:4675   */\n      pop\n        /* \"#utility.yul\":4368:4675   */\n      pop\n      pop\n      pop\n      jump\t// out\n        /* \"#utility.yul\":4681:4783   */\n    tag_194:\n        /* \"#utility.yul\":4722:4728   */\n      0x00\n        /* \"#utility.yul\":4773:4775   */\n      0x1f\n        /* \"#utility.yul\":4769:4776   */\n      not\n        /* \"#utility.yul\":4764:4766   */\n      0x1f\n        /* \"#utility.yul\":4757:4762   */\n      dup4\n        /* \"#utility.yul\":4753:4767   */\n      add\n        /* \"#utility.yul\":4749:4777   */\n      and\n        /* \"#utility.yul\":4739:4777   */\n      swap1\n      pop\n        /* \"#utility.yul\":4681:4783   */\n      swap2\n      swap1\n      pop\n      jump\t// out\n        /* \"#utility.yul\":4789:5153   */\n    tag_195:\n        /* \"#utility.yul\":4877:4880   */\n      0x00\n        /* \"#utility.yul\":4905:4944   */\n      tag_282\n        /* \"#utility.yul\":4938:4943   */\n      dup3\n        /* \"#utility.yul\":4905:4944   */\n      tag_191\n      jump\t// in\n    tag_282:\n        /* \"#utility.yul\":4960:5031   */\n      tag_283\n        /* \"#utility.yul\":5024:5030   */\n      dup2\n        /* \"#utility.yul\":5019:5022   */\n      dup6\n        /* \"#utility.yul\":4960:5031   */\n      tag_192\n      jump\t// in\n    tag_283:\n        /* \"#utility.yul\":4953:5031   */\n      swap4\n      pop\n        /* \"#utility.yul\":5040:5092   */\n      tag_284\n        /* \"#utility.yul\":5085:5091   */\n      dup2\n        /* \"#utility.yul\":5080:5083   */\n      dup6\n        /* \"#utility.yul\":5073:5077   */\n      0x20\n        /* \"#utility.yul\":5066:5071   */\n      dup7\n        /* \"#utility.yul\":5062:5078   */\n      add\n        /* \"#utility.yul\":5040:5092   */\n      tag_193\n      jump\t// in\n    tag_284:\n        /* \"#utility.yul\":5117:5146   */\n      tag_285\n        /* \"#utility.yul\":5139:5145   */\n      dup2\n        /* \"#utility.yul\":5117:5146   */\n      tag_194\n      jump\t// in\n    tag_285:\n        /* \"#utility.yul\":5112:5115   */\n      dup5\n        /* \"#utility.yul\":5108:5147   */\n      add\n        /* \"#utility.yul\":5101:5147   */\n      swap2\n      pop\n        /* \"#utility.yul\":4881:5153   */\n      pop\n        /* \"#utility.yul\":4789:5153   */\n      swap3\n      swap2\n      pop\n      pop\n      jump\t// out\n        /* \"#utility.yul\":5159:5902   */\n    tag_79:\n        /* \"#utility.yul\":5378:5382   */\n      0x00\n        /* \"#utility.yul\":5416:5419   */\n      0xa0\n        /* \"#utility.yul\":5405:5414   */\n      dup3\n        /* \"#utility.yul\":5401:5420   */\n      add\n        /* \"#utility.yul\":5393:5420   */\n      swap1\n      pop\n        /* \"#utility.yul\":5466:5475   */\n      dup2\n        /* \"#utility.yul\":5460:5464   */\n      dup2\n        /* \"#utility.yul\":5456:5476   */\n      sub\n        /* \"#utility.yul\":5452:5453   */\n      0x00\n        /* \"#utility.yul\":5441:5450   */\n      dup4\n        /* \"#utility.yul\":5437:5454   */\n      add\n        /* \"#utility.yul\":5430:5477   */\n      mstore\n        /* \"#utility.yul\":5494:5572   */\n      tag_287\n        /* \"#utility.yul\":5567:5571   */\n      dup2\n        /* \"#utility.yul\":5558:5564   */\n      dup9\n        /* \"#utility.yul\":5494:5572   */\n      tag_195\n      jump\t// in\n    tag_287:\n        /* \"#utility.yul\":5486:5572   */\n      swap1\n      pop\n        /* \"#utility.yul\":5582:5654   */\n      tag_288\n        /* \"#utility.yul\":5650:5652   */\n      0x20\n        /* \"#utility.yul\":5639:5648   */\n      dup4\n        /* \"#utility.yul\":5635:5653   */\n      add\n        /* \"#utility.yul\":5626:5632   */\n      dup8\n        /* \"#utility.yul\":5582:5654   */\n      tag_190\n      jump\t// in\n    tag_288:\n        /* \"#utility.yul\":5664:5736   */\n      tag_289\n        /* \"#utility.yul\":5732:5734   */\n      0x40\n        /* \"#utility.yul\":5721:5730   */\n      dup4\n        /* \"#utility.yul\":5717:5735   */\n      add\n        /* \"#utility.yul\":5708:5714   */\n      dup7\n        /* \"#utility.yul\":5664:5736   */\n      tag_185\n      jump\t// in\n    tag_289:\n        /* \"#utility.yul\":5746:5812   */\n      tag_290\n        /* \"#utility.yul\":5808:5810   */\n      0x60\n        /* \"#utility.yul\":5797:5806   */\n      dup4\n        /* \"#utility.yul\":5793:5811   */\n      add\n        /* \"#utility.yul\":5784:5790   */\n      dup6\n        /* \"#utility.yul\":5746:5812   */\n      tag_184\n      jump\t// in\n    tag_290:\n        /* \"#utility.yul\":5822:5895   */\n      tag_291\n        /* \"#utility.yul\":5890:5893   */\n      0x80\n        /* \"#utility.yul\":5879:5888   */\n      dup4\n        /* \"#utility.yul\":5875:5894   */\n      add\n        /* \"#utility.yul\":5866:5872   */\n      dup5\n        /* \"#utility.yul\":5822:5895   */\n      tag_185\n      jump\t// in\n    tag_291:\n        /* \"#utility.yul\":5159:5902   */\n      swap7\n      swap6\n      pop\n      pop\n      pop\n      pop\n      pop\n      pop\n      jump\t// out\n        /* \"#utility.yul\":5908:6025   */\n    tag_196:\n        /* \"#utility.yul\":6017:6018   */\n      0x00\n        /* \"#utility.yul\":6014:6015   */\n      dup1\n        /* \"#utility.yul\":6007:6019   */\n      revert\n        /* \"#utility.yul\":6031:6148   */\n    tag_197:\n        /* \"#utility.yul\":6140:6141   */\n      0x00\n        /* \"#utility.yul\":6137:6138   */\n      dup1\n        /* \"#utility.yul\":6130:6142   */\n      revert\n        /* \"#utility.yul\":6154:6334   */\n    tag_198:\n        /* \"#utility.yul\":6202:6279   */\n      0x4e487b7100000000000000000000000000000000000000000000000000000000\n        /* \"#utility.yul\":6199:6200   */\n      0x00\n        /* \"#utility.yul\":6192:6280   */\n      mstore\n        /* \"#utility.yul\":6299:6303   */\n      0x41\n        /* \"#utility.yul\":6296:6297   */\n      0x04\n        /* \"#utility.yul\":6289:6304   */\n      mstore\n        /* \"#utility.yul\":6323:6327   */\n      0x24\n        /* \"#utility.yul\":6320:6321   */\n      0x00\n        /* \"#utility.yul\":6313:6328   */\n      revert\n        /* \"#utility.yul\":6340:6621   */\n    tag_199:\n        /* \"#utility.yul\":6423:6450   */\n      tag_296\n        /* \"#utility.yul\":6445:6449   */\n      dup3\n        /* \"#utility.yul\":6423:6450   */\n      tag_194\n      jump\t// in\n    tag_296:\n        /* \"#utility.yul\":6415:6421   */\n      dup2\n        /* \"#utility.yul\":6411:6451   */\n      add\n        /* \"#utility.yul\":6553:6559   */\n      dup2\n        /* \"#utility.yul\":6541:6551   */\n      dup2\n        /* \"#utility.yul\":6538:6560   */\n      lt\n        /* \"#utility.yul\":6517:6535   */\n      0xffffffffffffffff\n        /* \"#utility.yul\":6505:6515   */\n      dup3\n        /* \"#utility.yul\":6502:6536   */\n      gt\n        /* \"#utility.yul\":6499:6561   */\n      or\n        /* \"#utility.yul\":6496:6584   */\n      iszero\n      tag_297\n      jumpi\n        /* \"#utility.yul\":6564:6582   */\n      tag_298\n      tag_198\n      jump\t// in\n    tag_298:\n        /* \"#utility.yul\":6496:6584   */\n    tag_297:\n        /* \"#utility.yul\":6604:6614   */\n      dup1\n        /* \"#utility.yul\":6600:6602   */\n      0x40\n        /* \"#utility.yul\":6593:6615   */\n      mstore\n        /* \"#utility.yul\":6383:6621   */\n      pop\n        /* \"#utility.yul\":6340:6621   */\n      pop\n      pop\n      jump\t// out\n        /* \"#utility.yul\":6627:6756   */\n    tag_200:\n        /* \"#utility.yul\":6661:6667   */\n      0x00\n        /* \"#utility.yul\":6688:6708   */\n      tag_300\n      tag_177\n      jump\t// in\n    tag_300:\n        /* \"#utility.yul\":6678:6708   */\n      swap1\n      pop\n        /* \"#utility.yul\":6717:6750   */\n      tag_301\n        /* \"#utility.yul\":6745:6749   */\n      dup3\n        /* \"#utility.yul\":6737:6743   */\n      dup3\n        /* \"#utility.yul\":6717:6750   */\n      tag_199\n      jump\t// in\n    tag_301:\n        /* \"#utility.yul\":6627:6756   */\n      swap2\n      swap1\n      pop\n      jump\t// out\n        /* \"#utility.yul\":6762:7070   */\n    tag_201:\n        /* \"#utility.yul\":6824:6828   */\n      0x00\n        /* \"#utility.yul\":6914:6932   */\n      0xffffffffffffffff\n        /* \"#utility.yul\":6906:6912   */\n      dup3\n        /* \"#utility.yul\":6903:6933   */\n      gt\n        /* \"#utility.yul\":6900:6956   */\n      iszero\n      tag_303\n      jumpi\n        /* \"#utility.yul\":6936:6954   */\n      tag_304\n      tag_198\n      jump\t// in\n    tag_304:\n        /* \"#utility.yul\":6900:6956   */\n    tag_303:\n        /* \"#utility.yul\":6974:7003   */\n      tag_305\n        /* \"#utility.yul\":6996:7002   */\n      dup3\n        /* \"#utility.yul\":6974:7003   */\n      tag_194\n      jump\t// in\n    tag_305:\n        /* \"#utility.yul\":6966:7003   */\n      swap1\n      pop\n        /* \"#utility.yul\":7058:7062   */\n      0x20\n        /* \"#utility.yul\":7052:7056   */\n      dup2\n        /* \"#utility.yul\":7048:7063   */\n      add\n        /* \"#utility.yul\":7040:7063   */\n      swap1\n      pop\n        /* \"#utility.yul\":6762:7070   */\n      swap2\n      swap1\n      pop\n      jump\t// out\n        /* \"#utility.yul\":7076:7230   */\n    tag_202:\n        /* \"#utility.yul\":7160:7166   */\n      dup3\n        /* \"#utility.yul\":7155:7158   */\n      dup2\n        /* \"#utility.yul\":7150:7153   */\n      dup4\n        /* \"#utility.yul\":7137:7167   */\n      calldatacopy\n        /* \"#utility.yul\":7222:7223   */\n      0x00\n        /* \"#utility.yul\":7213:7219   */\n      dup4\n        /* \"#utility.yul\":7208:7211   */\n      dup4\n        /* \"#utility.yul\":7204:7220   */\n      add\n        /* \"#utility.yul\":7197:7224   */\n      mstore\n        /* \"#utility.yul\":7076:7230   */\n      pop\n      pop\n      pop\n      jump\t// out\n        /* \"#utility.yul\":7236:7648   */\n    tag_203:\n        /* \"#utility.yul\":7314:7319   */\n      0x00\n        /* \"#utility.yul\":7339:7405   */\n      tag_308\n        /* \"#utility.yul\":7355:7404   */\n      tag_309\n        /* \"#utility.yul\":7397:7403   */\n      dup5\n        /* \"#utility.yul\":7355:7404   */\n      tag_201\n      jump\t// in\n    tag_309:\n        /* \"#utility.yul\":7339:7405   */\n      tag_200\n      jump\t// in\n    tag_308:\n        /* \"#utility.yul\":7330:7405   */\n      swap1\n      pop\n        /* \"#utility.yul\":7428:7434   */\n      dup3\n        /* \"#utility.yul\":7421:7426   */\n      dup2\n        /* \"#utility.yul\":7414:7435   */\n      mstore\n        /* \"#utility.yul\":7466:7470   */\n      0x20\n        /* \"#utility.yul\":7459:7464   */\n      dup2\n        /* \"#utility.yul\":7455:7471   */\n      add\n        /* \"#utility.yul\":7504:7507   */\n      dup5\n        /* \"#utility.yul\":7495:7501   */\n      dup5\n        /* \"#utility.yul\":7490:7493   */\n      dup5\n        /* \"#utility.yul\":7486:7502   */\n      add\n        /* \"#utility.yul\":7483:7508   */\n      gt\n        /* \"#utility.yul\":7480:7592   */\n      iszero\n      tag_310\n      jumpi\n        /* \"#utility.yul\":7511:7590   */\n      tag_311\n      tag_197\n      jump\t// in\n    tag_311:\n        /* \"#utility.yul\":7480:7592   */\n    tag_310:\n        /* \"#utility.yul\":7601:7642   */\n      tag_312\n        /* \"#utility.yul\":7635:7641   */\n      dup5\n        /* \"#utility.yul\":7630:7633   */\n      dup3\n        /* \"#utility.yul\":7625:7628   */\n      dup6\n        /* \"#utility.yul\":7601:7642   */\n      tag_202\n      jump\t// in\n    tag_312:\n        /* \"#utility.yul\":7320:7648   */\n      pop\n        /* \"#utility.yul\":7236:7648   */\n      swap4\n      swap3\n      pop\n      pop\n      pop\n      jump\t// out\n        /* \"#utility.yul\":7668:8008   */\n    tag_204:\n        /* \"#utility.yul\":7724:7729   */\n      0x00\n        /* \"#utility.yul\":7773:7776   */\n      dup3\n        /* \"#utility.yul\":7766:7770   */\n      0x1f\n        /* \"#utility.yul\":7758:7764   */\n      dup4\n        /* \"#utility.yul\":7754:7771   */\n      add\n        /* \"#utility.yul\":7750:7777   */\n      slt\n        /* \"#utility.yul\":7740:7862   */\n      tag_314\n      jumpi\n        /* \"#utility.yul\":7781:7860   */\n      tag_315\n      tag_196\n      jump\t// in\n    tag_315:\n        /* \"#utility.yul\":7740:7862   */\n    tag_314:\n        /* \"#utility.yul\":7898:7904   */\n      dup2\n        /* \"#utility.yul\":7885:7905   */\n      calldataload\n        /* \"#utility.yul\":7923:8002   */\n      tag_316\n        /* \"#utility.yul\":7998:8001   */\n      dup5\n        /* \"#utility.yul\":7990:7996   */\n      dup3\n        /* \"#utility.yul\":7983:7987   */\n      0x20\n        /* \"#utility.yul\":7975:7981   */\n      dup7\n        /* \"#utility.yul\":7971:7988   */\n      add\n        /* \"#utility.yul\":7923:8002   */\n      tag_203\n      jump\t// in\n    tag_316:\n        /* \"#utility.yul\":7914:8002   */\n      swap2\n      pop\n        /* \"#utility.yul\":7730:8008   */\n      pop\n        /* \"#utility.yul\":7668:8008   */\n      swap3\n      swap2\n      pop\n      pop\n      jump\t// out\n        /* \"#utility.yul\":8014:8813   */\n    tag_83:\n        /* \"#utility.yul\":8101:8107   */\n      0x00\n        /* \"#utility.yul\":8109:8115   */\n      dup1\n        /* \"#utility.yul\":8117:8123   */\n      0x00\n        /* \"#utility.yul\":8166:8168   */\n      0x60\n        /* \"#utility.yul\":8154:8163   */\n      dup5\n        /* \"#utility.yul\":8145:8152   */\n      dup7\n        /* \"#utility.yul\":8141:8164   */\n      sub\n        /* \"#utility.yul\":8137:8169   */\n      slt\n        /* \"#utility.yul\":8134:8253   */\n      iszero\n      tag_318\n      jumpi\n        /* \"#utility.yul\":8172:8251   */\n      tag_319\n      tag_178\n      jump\t// in\n    tag_319:\n        /* \"#utility.yul\":8134:8253   */\n    tag_318:\n        /* \"#utility.yul\":8320:8321   */\n      0x00\n        /* \"#utility.yul\":8309:8318   */\n      dup5\n        /* \"#utility.yul\":8305:8322   */\n      add\n        /* \"#utility.yul\":8292:8323   */\n      calldataload\n        /* \"#utility.yul\":8350:8368   */\n      0xffffffffffffffff\n        /* \"#utility.yul\":8342:8348   */\n      dup2\n        /* \"#utility.yul\":8339:8369   */\n      gt\n        /* \"#utility.yul\":8336:8453   */\n      iszero\n      tag_320\n      jumpi\n        /* \"#utility.yul\":8372:8451   */\n      tag_321\n      tag_179\n      jump\t// in\n    tag_321:\n        /* \"#utility.yul\":8336:8453   */\n    tag_320:\n        /* \"#utility.yul\":8477:8540   */\n      tag_322\n        /* \"#utility.yul\":8532:8539   */\n      dup7\n        /* \"#utility.yul\":8523:8529   */\n      dup3\n        /* \"#utility.yul\":8512:8521   */\n      dup8\n        /* \"#utility.yul\":8508:8530   */\n      add\n        /* \"#utility.yul\":8477:8540   */\n      tag_204\n      jump\t// in\n    tag_322:\n        /* \"#utility.yul\":8467:8540   */\n      swap4\n      pop\n        /* \"#utility.yul\":8263:8550   */\n      pop\n        /* \"#utility.yul\":8589:8591   */\n      0x20\n        /* \"#utility.yul\":8615:8668   */\n      tag_323\n        /* \"#utility.yul\":8660:8667   */\n      dup7\n        /* \"#utility.yul\":8651:8657   */\n      dup3\n        /* \"#utility.yul\":8640:8649   */\n      dup8\n        /* \"#utility.yul\":8636:8658   */\n      add\n        /* \"#utility.yul\":8615:8668   */\n      tag_182\n      jump\t// in\n    tag_323:\n        /* \"#utility.yul\":8605:8668   */\n      swap3\n      pop\n        /* \"#utility.yul\":8560:8678   */\n      pop\n        /* \"#utility.yul\":8717:8719   */\n      0x40\n        /* \"#utility.yul\":8743:8796   */\n      tag_324\n        /* \"#utility.yul\":8788:8795   */\n      dup7\n        /* \"#utility.yul\":8779:8785   */\n      dup3\n        /* \"#utility.yul\":8768:8777   */\n      dup8\n        /* \"#utility.yul\":8764:8786   */\n      add\n        /* \"#utility.yul\":8743:8796   */\n      tag_189\n      jump\t// in\n    tag_324:\n        /* \"#utility.yul\":8733:8796   */\n      swap2\n      pop\n        /* \"#utility.yul\":8688:8806   */\n      pop\n        /* \"#utility.yul\":8014:8813   */\n      swap3\n      pop\n      swap3\n      pop\n      swap3\n      jump\t// out\n        /* \"#utility.yul\":8819:8999   */\n    tag_205:\n        /* \"#utility.yul\":8867:8944   */\n      0x4e487b7100000000000000000000000000000000000000000000000000000000\n        /* \"#utility.yul\":8864:8865   */\n      0x00\n        /* \"#utility.yul\":8857:8945   */\n      mstore\n        /* \"#utility.yul\":8964:8968   */\n      0x12\n        /* \"#utility.yul\":8961:8962   */\n      0x04\n        /* \"#utility.yul\":8954:8969   */\n      mstore\n        /* \"#utility.yul\":8988:8992   */\n      0x24\n        /* \"#utility.yul\":8985:8986   */\n      0x00\n        /* \"#utility.yul\":8978:8993   */\n      revert\n        /* \"#utility.yul\":9005:9185   */\n    tag_206:\n        /* \"#utility.yul\":9053:9130   */\n      0x4e487b7100000000000000000000000000000000000000000000000000000000\n        /* \"#utility.yul\":9050:9051   */\n      0x00\n        /* \"#utility.yul\":9043:9131   */\n      mstore\n        /* \"#utility.yul\":9150:9154   */\n      0x11\n        /* \"#utility.yul\":9147:9148   */\n      0x04\n        /* \"#utility.yul\":9140:9155   */\n      mstore\n        /* \"#utility.yul\":9174:9178   */\n      0x24\n        /* \"#utility.yul\":9171:9172   */\n      0x00\n        /* \"#utility.yul\":9164:9179   */\n      revert\n        /* \"#utility.yul\":9191:9376   */\n    tag_105:\n        /* \"#utility.yul\":9231:9232   */\n      0x00\n        /* \"#utility.yul\":9248:9268   */\n      tag_328\n        /* \"#utility.yul\":9266:9267   */\n      dup3\n        /* \"#utility.yul\":9248:9268   */\n      tag_180\n      jump\t// in\n    tag_328:\n        /* \"#utility.yul\":9243:9268   */\n      swap2\n      pop\n        /* \"#utility.yul\":9282:9302   */\n      tag_329\n        /* \"#utility.yul\":9300:9301   */\n      dup4\n        /* \"#utility.yul\":9282:9302   */\n      tag_180\n      jump\t// in\n    tag_329:\n        /* \"#utility.yul\":9277:9302   */\n      swap3\n      pop\n        /* \"#utility.yul\":9321:9322   */\n      dup3\n        /* \"#utility.yul\":9311:9346   */\n      tag_330\n      jumpi\n        /* \"#utility.yul\":9326:9344   */\n      tag_331\n      tag_205\n      jump\t// in\n    tag_331:\n        /* \"#utility.yul\":9311:9346   */\n    tag_330:\n        /* \"#utility.yul\":9368:9369   */\n      dup3\n        /* \"#utility.yul\":9365:9366   */\n      dup3\n        /* \"#utility.yul\":9361:9370   */\n      div\n        /* \"#utility.yul\":9356:9370   */\n      swap1\n      pop\n        /* \"#utility.yul\":9191:9376   */\n      swap3\n      swap2\n      pop\n      pop\n      jump\t// out\n        /* \"#utility.yul\":9382:9562   */\n    tag_207:\n        /* \"#utility.yul\":9430:9507   */\n      0x4e487b7100000000000000000000000000000000000000000000000000000000\n        /* \"#utility.yul\":9427:9428   */\n      0x00\n        /* \"#utility.yul\":9420:9508   */\n      mstore\n        /* \"#utility.yul\":9527:9531   */\n      0x22\n        /* \"#utility.yul\":9524:9525   */\n      0x04\n        /* \"#utility.yul\":9517:9532   */\n      mstore\n        /* \"#utility.yul\":9551:9555   */\n      0x24\n        /* \"#utility.yul\":9548:9549   */\n      0x00\n        /* \"#utility.yul\":9541:9556   */\n      revert\n        /* \"#utility.yul\":9568:9888   */\n    tag_116:\n        /* \"#utility.yul\":9612:9618   */\n      0x00\n        /* \"#utility.yul\":9649:9650   */\n      0x02\n        /* \"#utility.yul\":9643:9647   */\n      dup3\n        /* \"#utility.yul\":9639:9651   */\n      div\n        /* \"#utility.yul\":9629:9651   */\n      swap1\n      pop\n        /* \"#utility.yul\":9696:9697   */\n      0x01\n        /* \"#utility.yul\":9690:9694   */\n      dup3\n        /* \"#utility.yul\":9686:9698   */\n      and\n        /* \"#utility.yul\":9717:9735   */\n      dup1\n        /* \"#utility.yul\":9707:9788   */\n      tag_334\n      jumpi\n        /* \"#utility.yul\":9773:9777   */\n      0x7f\n        /* \"#utility.yul\":9765:9771   */\n      dup3\n        /* \"#utility.yul\":9761:9778   */\n      and\n        /* \"#utility.yul\":9751:9778   */\n      swap2\n      pop\n        /* \"#utility.yul\":9707:9788   */\n    tag_334:\n        /* \"#utility.yul\":9835:9837   */\n      0x20\n        /* \"#utility.yul\":9827:9833   */\n      dup3\n        /* \"#utility.yul\":9824:9838   */\n      lt\n        /* \"#utility.yul\":9804:9822   */\n      dup2\n        /* \"#utility.yul\":9801:9839   */\n      eq\n        /* \"#utility.yul\":9798:9882   */\n      iszero\n      tag_335\n      jumpi\n        /* \"#utility.yul\":9854:9872   */\n      tag_336\n      tag_207\n      jump\t// in\n    tag_336:\n        /* \"#utility.yul\":9798:9882   */\n    tag_335:\n        /* \"#utility.yul\":9619:9888   */\n      pop\n        /* \"#utility.yul\":9568:9888   */\n      swap2\n      swap1\n      pop\n      jump\t// out\n        /* \"#utility.yul\":9894:10127   */\n    tag_127:\n        /* \"#utility.yul\":9933:9936   */\n      0x00\n        /* \"#utility.yul\":9956:9980   */\n      tag_338\n        /* \"#utility.yul\":9974:9979   */\n      dup3\n        /* \"#utility.yul\":9956:9980   */\n      tag_180\n      jump\t// in\n    tag_338:\n        /* \"#utility.yul\":9947:9980   */\n      swap2\n      pop\n        /* \"#utility.yul\":10002:10068   */\n      0xffffffffffffffffffffffffffffffffffffffffffffffffffffffffffffffff\n        /* \"#utility.yul\":9995:10000   */\n      dup3\n        /* \"#utility.yul\":9992:10069   */\n      eq\n        /* \"#utility.yul\":9989:10092   */\n      iszero\n      tag_339\n      jumpi\n        /* \"#utility.yul\":10072:10090   */\n      tag_340\n      tag_206\n      jump\t// in\n    tag_340:\n        /* \"#utility.yul\":9989:10092   */\n    tag_339:\n        /* \"#utility.yul\":10119:10120   */\n      0x01\n        /* \"#utility.yul\":10112:10117   */\n      dup3\n        /* \"#utility.yul\":10108:10121   */\n      add\n        /* \"#utility.yul\":10101:10121   */\n      swap1\n      pop\n        /* \"#utility.yul\":9894:10127   */\n      swap2\n      swap1\n      pop\n      jump\t// out\n        /* \"#utility.yul\":10133:10304   */\n    tag_208:\n        /* \"#utility.yul\":10273:10296   */\n      0x526566756e6473206e6f7420617661696c61626c650000000000000000000000\n        /* \"#utility.yul\":10269:10270   */\n      0x00\n        /* \"#utility.yul\":10261:10267   */\n      dup3\n        /* \"#utility.yul\":10257:10271   */\n      add\n        /* \"#utility.yul\":10250:10297   */\n      mstore\n        /* \"#utility.yul\":10133:10304   */\n      pop\n      jump\t// out\n        /* \"#utility.yul\":10310:10676   */\n    tag_209:\n        /* \"#utility.yul\":10452:10455   */\n      0x00\n        /* \"#utility.yul\":10473:10540   */\n      tag_343\n        /* \"#utility.yul\":10537:10539   */\n      0x15\n        /* \"#utility.yul\":10532:10535   */\n      dup4\n        /* \"#utility.yul\":10473:10540   */\n      tag_192\n      jump\t// in\n    tag_343:\n        /* \"#utility.yul\":10466:10540   */\n      swap2\n      pop\n        /* \"#utility.yul\":10549:10642   */\n      tag_344\n        /* \"#utility.yul\":10638:10641   */\n      dup3\n        /* \"#utility.yul\":10549:10642   */\n      tag_208\n      jump\t// in\n    tag_344:\n        /* \"#utility.yul\":10667:10669   */\n      0x20\n        /* \"#utility.yul\":10662:10665   */\n      dup3\n        /* \"#utility.yul\":10658:10670   */\n      add\n        /* \"#utility.yul\":10651:10670   */\n      swap1\n      pop\n        /* \"#utility.yul\":10310:10676   */\n      swap2\n      swap1\n      pop\n      jump\t// out\n        /* \"#utility.yul\":10682:11101   */\n    tag_135:\n        /* \"#utility.yul\":10848:10852   */\n      0x00\n        /* \"#utility.yul\":10886:10888   */\n      0x20\n        /* \"#utility.yul\":10875:10884   */\n      dup3\n        /* \"#utility.yul\":10871:10889   */\n      add\n        /* \"#utility.yul\":10863:10889   */\n      swap1\n      pop\n        /* \"#utility.yul\":10935:10944   */\n      dup2\n        /* \"#utility.yul\":10929:10933   */\n      dup2\n        /* \"#utility.yul\":10925:10945   */\n      sub\n        /* \"#utility.yul\":10921:10922   */\n      0x00\n        /* \"#utility.yul\":10910:10919   */\n      dup4\n        /* \"#utility.yul\":10906:10923   */\n      add\n        /* \"#utility.yul\":10899:10946   */\n      mstore\n        /* \"#utility.yul\":10963:11094   */\n      tag_346\n        /* \"#utility.yul\":11089:11093   */\n      dup2\n        /* \"#utility.yul\":10963:11094   */\n      tag_209\n      jump\t// in\n    tag_346:\n        /* \"#utility.yul\":10955:11094   */\n      swap1\n      pop\n        /* \"#utility.yul\":10682:11101   */\n      swap2\n      swap1\n      pop\n      jump\t// out\n        /* \"#utility.yul\":11107:11277   */\n    tag_210:\n        /* \"#utility.yul\":11247:11269   */\n      0x54686520676f616c207761732072656163686564000000000000000000000000\n        /* \"#utility.yul\":11243:11244   */\n      0x00\n        /* \"#utility.yul\":11235:11241   */\n      dup3\n        /* \"#utility.yul\":11231:11245   */\n      add\n        /* \"#utility.yul\":11224:11270   */\n      mstore\n        /* \"#utility.yul\":11107:11277   */\n      pop\n      jump\t// out\n        /* \"#utility.yul\":11283:11649   */\n    tag_211:\n        /* \"#utility.yul\":11425:11428   */\n      0x00\n        /* \"#utility.yul\":11446:11513   */\n      tag_349\n        /* \"#utility.yul\":11510:11512   */\n      0x14\n        /* \"#utility.yul\":11505:11508   */\n      dup4\n        /* \"#utility.yul\":11446:11513   */\n      tag_192\n      jump\t// in\n    tag_349:\n        /* \"#utility.yul\":11439:11513   */\n      swap2\n      pop\n        /* \"#utility.yul\":11522:11615   */\n      tag_350\n        /* \"#utility.yul\":11611:11614   */\n      dup3\n        /* \"#utility.yul\":11522:11615   */\n      tag_210\n      jump\t// in\n    tag_350:\n        /* \"#utility.yul\":11640:11642   */\n      0x20\n        /* \"#utility.yul\":11635:11638   */\n      dup3\n        /* \"#utility.yul\":11631:11643   */\n      add\n        /* \"#utility.yul\":11624:11643   */\n      swap1\n      pop\n        /* \"#utility.yul\":11283:11649   */\n      swap2\n      swap1\n      pop\n      jump\t// out\n        /* \"#utility.yul\":11655:12074   */\n    tag_138:\n        /* \"#utility.yul\":11821:11825   */\n      0x00\n        /* \"#utility.yul\":11859:11861   */\n      0x20\n        /* \"#utility.yul\":11848:11857   */\n      dup3\n        /* \"#utility.yul\":11844:11862   */\n      add\n        /* \"#utility.yul\":11836:11862   */\n      swap1\n      pop\n        /* \"#utility.yul\":11908:11917   */\n      dup2\n        /* \"#utility.yul\":11902:11906   */\n      dup2\n        /* \"#utility.yul\":11898:11918   */\n      sub\n        /* \"#utility.yul\":11894:11895   */\n      0x00\n        /* \"#utility.yul\":11883:11892   */\n      dup4\n        /* \"#utility.yul\":11879:11896   */\n      add\n        /* \"#utility.yul\":11872:11919   */\n      mstore\n        /* \"#utility.yul\":11936:12067   */\n      tag_352\n        /* \"#utility.yul\":12062:12066   */\n      dup2\n        /* \"#utility.yul\":11936:12067   */\n      tag_211\n      jump\t// in\n    tag_352:\n        /* \"#utility.yul\":11928:12067   */\n      swap1\n      pop\n        /* \"#utility.yul\":11655:12074   */\n      swap2\n      swap1\n      pop\n      jump\t// out\n        /* \"#utility.yul\":12080:12257   */\n    tag_212:\n        /* \"#utility.yul\":12220:12249   */\n      0x596f752068617665206e6f2066756e647320746f20726566756e640000000000\n        /* \"#utility.yul\":12216:12217   */\n      0x00\n        /* \"#utility.yul\":12208:12214   */\n      dup3\n        /* \"#utility.yul\":12204:12218   */\n      add\n        /* \"#utility.yul\":12197:12250   */\n      mstore\n        /* \"#utility.yul\":12080:12257   */\n      pop\n      jump\t// out\n        /* \"#utility.yul\":12263:12629   */\n    tag_213:\n        /* \"#utility.yul\":12405:12408   */\n      0x00\n        /* \"#utility.yul\":12426:12493   */\n      tag_355\n        /* \"#utility.yul\":12490:12492   */\n      0x1b\n        /* \"#utility.yul\":12485:12488   */\n      dup4\n        /* \"#utility.yul\":12426:12493   */\n      tag_192\n      jump\t// in\n    tag_355:\n        /* \"#utility.yul\":12419:12493   */\n      swap2\n      pop\n        /* \"#utility.yul\":12502:12595   */\n      tag_356\n        /* \"#utility.yul\":12591:12594   */\n      dup3\n        /* \"#utility.yul\":12502:12595   */\n      tag_212\n      jump\t// in\n    tag_356:\n        /* \"#utility.yul\":12620:12622   */\n      0x20\n        /* \"#utility.yul\":12615:12618   */\n      dup3\n        /* \"#utility.yul\":12611:12623   */\n      add\n        /* \"#utility.yul\":12604:12623   */\n      swap1\n      pop\n        /* \"#utility.yul\":12263:12629   */\n      swap2\n      swap1\n      pop\n      jump\t// out\n        /* \"#utility.yul\":12635:13054   */\n    tag_141:\n        /* \"#utility.yul\":12801:12805   */\n      0x00\n        /* \"#utility.yul\":12839:12841   */\n      0x20\n        /* \"#utility.yul\":12828:12837   */\n      dup3\n        /* \"#utility.yul\":12824:12842   */\n      add\n        /* \"#utility.yul\":12816:12842   */\n      swap1\n      pop\n        /* \"#utility.yul\":12888:12897   */\n      dup2\n        /* \"#utility.yul\":12882:12886   */\n      dup2\n        /* \"#utility.yul\":12878:12898   */\n      sub\n        /* \"#utility.yul\":12874:12875   */\n      0x00\n        /* \"#utility.yul\":12863:12872   */\n      dup4\n        /* \"#utility.yul\":12859:12876   */\n      add\n        /* \"#utility.yul\":12852:12899   */\n      mstore\n        /* \"#utility.yul\":12916:13047   */\n      tag_358\n        /* \"#utility.yul\":13042:13046   */\n      dup2\n        /* \"#utility.yul\":12916:13047   */\n      tag_213\n      jump\t// in\n    tag_358:\n        /* \"#utility.yul\":12908:13047   */\n      swap1\n      pop\n        /* \"#utility.yul\":12635:13054   */\n      swap2\n      swap1\n      pop\n      jump\t// out\n        /* \"#utility.yul\":13060:13237   */\n    tag_214:\n        /* \"#utility.yul\":13200:13229   */\n      0x546865206d616e616765722063616e7420636f6e747269627574650000000000\n        /* \"#utility.yul\":13196:13197   */\n      0x00\n        /* \"#utility.yul\":13188:13194   */\n      dup3\n        /* \"#utility.yul\":13184:13198   */\n      add\n        /* \"#utility.yul\":13177:13230   */\n      mstore\n        /* \"#utility.yul\":13060:13237   */\n      pop\n      jump\t// out\n        /* \"#utility.yul\":13243:13609   */\n    tag_215:\n        /* \"#utility.yul\":13385:13388   */\n      0x00\n        /* \"#utility.yul\":13406:13473   */\n      tag_361\n        /* \"#utility.yul\":13470:13472   */\n      0x1b\n        /* \"#utility.yul\":13465:13468   */\n      dup4\n        /* \"#utility.yul\":13406:13473   */\n      tag_192\n      jump\t// in\n    tag_361:\n        /* \"#utility.yul\":13399:13473   */\n      swap2\n      pop\n        /* \"#utility.yul\":13482:13575   */\n      tag_362\n        /* \"#utility.yul\":13571:13574   */\n      dup3\n        /* \"#utility.yul\":13482:13575   */\n      tag_214\n      jump\t// in\n    tag_362:\n        /* \"#utility.yul\":13600:13602   */\n      0x20\n        /* \"#utility.yul\":13595:13598   */\n      dup3\n        /* \"#utility.yul\":13591:13603   */\n      add\n        /* \"#utility.yul\":13584:13603   */\n      swap1\n      pop\n        /* \"#utility.yul\":13243:13609   */\n      swap2\n      swap1\n      pop\n      jump\t// out\n        /* \"#utility.yul\":13615:14034   */\n    tag_147:\n        /* \"#utility.yul\":13781:13785   */\n      0x00\n        /* \"#utility.yul\":13819:13821   */\n      0x20\n        /* \"#utility.yul\":13808:13817   */\n      dup3\n        /* \"#utility.yul\":13804:13822   */\n      add\n        /* \"#utility.yul\":13796:13822   */\n      swap1\n      pop\n        /* \"#utility.yul\":13868:13877   */\n      dup2\n        /* \"#utility.yul\":13862:13866   */\n      dup2\n        /* \"#utility.yul\":13858:13878   */\n      sub\n        /* \"#utility.yul\":13854:13855   */\n      0x00\n        /* \"#utility.yul\":13843:13852   */\n      dup4\n        /* \"#utility.yul\":13839:13856   */\n      add\n        /* \"#utility.yul\":13832:13879   */\n      mstore\n        /* \"#utility.yul\":13896:14027   */\n      tag_364\n        /* \"#utility.yul\":14022:14026   */\n      dup2\n        /* \"#utility.yul\":13896:14027   */\n      tag_215\n      jump\t// in\n    tag_364:\n        /* \"#utility.yul\":13888:14027   */\n      swap1\n      pop\n        /* \"#utility.yul\":13615:14034   */\n      swap2\n      swap1\n      pop\n      jump\t// out\n        /* \"#utility.yul\":14040:14281   */\n    tag_216:\n        /* \"#utility.yul\":14180:14214   */\n      0x45746865722076616c7565206d7573742062652067726561746572207468616e\n        /* \"#utility.yul\":14176:14177   */\n      0x00\n        /* \"#utility.yul\":14168:14174   */\n      dup3\n        /* \"#utility.yul\":14164:14178   */\n      add\n        /* \"#utility.yul\":14157:14215   */\n      mstore\n        /* \"#utility.yul\":14249:14273   */\n      0x206d696e696d756d20636f6e747269627574696f6e2e00000000000000000000\n        /* \"#utility.yul\":14244:14246   */\n      0x20\n        /* \"#utility.yul\":14236:14242   */\n      dup3\n        /* \"#utility.yul\":14232:14247   */\n      add\n        /* \"#utility.yul\":14225:14274   */\n      mstore\n        /* \"#utility.yul\":14040:14281   */\n      pop\n      jump\t// out\n        /* \"#utility.yul\":14287:14653   */\n    tag_217:\n        /* \"#utility.yul\":14429:14432   */\n      0x00\n        /* \"#utility.yul\":14450:14517   */\n      tag_367\n        /* \"#utility.yul\":14514:14516   */\n      0x36\n        /* \"#utility.yul\":14509:14512   */\n      dup4\n        /* \"#utility.yul\":14450:14517   */\n      tag_192\n      jump\t// in\n    tag_367:\n        /* \"#utility.yul\":14443:14517   */\n      swap2\n      pop\n        /* \"#utility.yul\":14526:14619   */\n      tag_368\n        /* \"#utility.yul\":14615:14618   */\n      dup3\n        /* \"#utility.yul\":14526:14619   */\n      tag_216\n      jump\t// in\n    tag_368:\n        /* \"#utility.yul\":14644:14646   */\n      0x40\n        /* \"#utility.yul\":14639:14642   */\n      dup3\n        /* \"#utility.yul\":14635:14647   */\n      add\n        /* \"#utility.yul\":14628:14647   */\n      swap1\n      pop\n        /* \"#utility.yul\":14287:14653   */\n      swap2\n      swap1\n      pop\n      jump\t// out\n        /* \"#utility.yul\":14659:15078   */\n    tag_150:\n        /* \"#utility.yul\":14825:14829   */\n      0x00\n        /* \"#utility.yul\":14863:14865   */\n      0x20\n        /* \"#utility.yul\":14852:14861   */\n      dup3\n        /* \"#utility.yul\":14848:14866   */\n      add\n        /* \"#utility.yul\":14840:14866   */\n      swap1\n      pop\n        /* \"#utility.yul\":14912:14921   */\n      dup2\n        /* \"#utility.yul\":14906:14910   */\n      dup2\n        /* \"#utility.yul\":14902:14922   */\n      sub\n        /* \"#utility.yul\":14898:14899   */\n      0x00\n        /* \"#utility.yul\":14887:14896   */\n      dup4\n        /* \"#utility.yul\":14883:14900   */\n      add\n        /* \"#utility.yul\":14876:14923   */\n      mstore\n        /* \"#utility.yul\":14940:15071   */\n      tag_370\n        /* \"#utility.yul\":15066:15070   */\n      dup2\n        /* \"#utility.yul\":14940:15071   */\n      tag_217\n      jump\t// in\n    tag_370:\n        /* \"#utility.yul\":14932:15071   */\n      swap1\n      pop\n        /* \"#utility.yul\":14659:15078   */\n      swap2\n      swap1\n      pop\n      jump\t// out\n        /* \"#utility.yul\":15084:15389   */\n    tag_154:\n        /* \"#utility.yul\":15124:15127   */\n      0x00\n        /* \"#utility.yul\":15143:15163   */\n      tag_372\n        /* \"#utility.yul\":15161:15162   */\n      dup3\n        /* \"#utility.yul\":15143:15163   */\n      tag_180\n      jump\t// in\n    tag_372:\n        /* \"#utility.yul\":15138:15163   */\n      swap2\n      pop\n        /* \"#utility.yul\":15177:15197   */\n      tag_373\n        /* \"#utility.yul\":15195:15196   */\n      dup4\n        /* \"#utility.yul\":15177:15197   */\n      tag_180\n      jump\t// in\n    tag_373:\n        /* \"#utility.yul\":15172:15197   */\n      swap3\n      pop\n        /* \"#utility.yul\":15331:15332   */\n      dup3\n        /* \"#utility.yul\":15263:15329   */\n      0xffffffffffffffffffffffffffffffffffffffffffffffffffffffffffffffff\n        /* \"#utility.yul\":15259:15333   */\n      sub\n        /* \"#utility.yul\":15256:15257   */\n      dup3\n        /* \"#utility.yul\":15253:15334   */\n      gt\n        /* \"#utility.yul\":15250:15357   */\n      iszero\n      tag_374\n      jumpi\n        /* \"#utility.yul\":15337:15355   */\n      tag_375\n      tag_206\n      jump\t// in\n    tag_375:\n        /* \"#utility.yul\":15250:15357   */\n    tag_374:\n        /* \"#utility.yul\":15381:15382   */\n      dup3\n        /* \"#utility.yul\":15378:15379   */\n      dup3\n        /* \"#utility.yul\":15374:15383   */\n      add\n        /* \"#utility.yul\":15367:15383   */\n      swap1\n      pop\n        /* \"#utility.yul\":15084:15389   */\n      swap3\n      swap2\n      pop\n      pop\n      jump\t// out\n        /* \"#utility.yul\":15395:15569   */\n    tag_218:\n        /* \"#utility.yul\":15535:15561   */\n      0x546865206d616e616765722063616e7420617070726f76650000000000000000\n        /* \"#utility.yul\":15531:15532   */\n      0x00\n        /* \"#utility.yul\":15523:15529   */\n      dup3\n        /* \"#utility.yul\":15519:15533   */\n      add\n        /* \"#utility.yul\":15512:15562   */\n      mstore\n        /* \"#utility.yul\":15395:15569   */\n      pop\n      jump\t// out\n        /* \"#utility.yul\":15575:15941   */\n    tag_219:\n        /* \"#utility.yul\":15717:15720   */\n      0x00\n        /* \"#utility.yul\":15738:15805   */\n      tag_378\n        /* \"#utility.yul\":15802:15804   */\n      0x18\n        /* \"#utility.yul\":15797:15800   */\n      dup4\n        /* \"#utility.yul\":15738:15805   */\n      tag_192\n      jump\t// in\n    tag_378:\n        /* \"#utility.yul\":15731:15805   */\n      swap2\n      pop\n        /* \"#utility.yul\":15814:15907   */\n      tag_379\n        /* \"#utility.yul\":15903:15906   */\n      dup3\n        /* \"#utility.yul\":15814:15907   */\n      tag_218\n      jump\t// in\n    tag_379:\n        /* \"#utility.yul\":15932:15934   */\n      0x20\n        /* \"#utility.yul\":15927:15930   */\n      dup3\n        /* \"#utility.yul\":15923:15935   */\n      add\n        /* \"#utility.yul\":15916:15935   */\n      swap1\n      pop\n        /* \"#utility.yul\":15575:15941   */\n      swap2\n      swap1\n      pop\n      jump\t// out\n        /* \"#utility.yul\":15947:16366   */\n    tag_159:\n        /* \"#utility.yul\":16113:16117   */\n      0x00\n        /* \"#utility.yul\":16151:16153   */\n      0x20\n        /* \"#utility.yul\":16140:16149   */\n      dup3\n        /* \"#utility.yul\":16136:16154   */\n      add\n        /* \"#utility.yul\":16128:16154   */\n      swap1\n      pop\n        /* \"#utility.yul\":16200:16209   */\n      dup2\n        /* \"#utility.yul\":16194:16198   */\n      dup2\n        /* \"#utility.yul\":16190:16210   */\n      sub\n        /* \"#utility.yul\":16186:16187   */\n      0x00\n        /* \"#utility.yul\":16175:16184   */\n      dup4\n        /* \"#utility.yul\":16171:16188   */\n      add\n        /* \"#utility.yul\":16164:16211   */\n      mstore\n        /* \"#utility.yul\":16228:16359   */\n      tag_381\n        /* \"#utility.yul\":16354:16358   */\n      dup2\n        /* \"#utility.yul\":16228:16359   */\n      tag_219\n      jump\t// in\n    tag_381:\n        /* \"#utility.yul\":16220:16359   */\n      swap1\n      pop\n        /* \"#utility.yul\":15947:16366   */\n      swap2\n      swap1\n      pop\n      jump\t// out\n        /* \"#utility.yul\":16372:16613   */\n    tag_220:\n        /* \"#utility.yul\":16512:16546   */\n      0x596f75206d757374206265206120636f6e747269627574657220696e206f7264\n        /* \"#utility.yul\":16508:16509   */\n      0x00\n        /* \"#utility.yul\":16500:16506   */\n      dup3\n        /* \"#utility.yul\":16496:16510   */\n      add\n        /* \"#utility.yul\":16489:16547   */\n      mstore\n        /* \"#utility.yul\":16581:16605   */\n      0x657220746f20617070726f766520726571756573747300000000000000000000\n        /* \"#utility.yul\":16576:16578   */\n      0x20\n        /* \"#utility.yul\":16568:16574   */\n      dup3\n        /* \"#utility.yul\":16564:16579   */\n      add\n        /* \"#utility.yul\":16557:16606   */\n      mstore\n        /* \"#utility.yul\":16372:16613   */\n      pop\n      jump\t// out\n        /* \"#utility.yul\":16619:16985   */\n    tag_221:\n        /* \"#utility.yul\":16761:16764   */\n      0x00\n        /* \"#utility.yul\":16782:16849   */\n      tag_384\n        /* \"#utility.yul\":16846:16848   */\n      0x36\n        /* \"#utility.yul\":16841:16844   */\n      dup4\n        /* \"#utility.yul\":16782:16849   */\n      tag_192\n      jump\t// in\n    tag_384:\n        /* \"#utility.yul\":16775:16849   */\n      swap2\n      pop\n        /* \"#utility.yul\":16858:16951   */\n      tag_385\n        /* \"#utility.yul\":16947:16950   */\n      dup3\n        /* \"#utility.yul\":16858:16951   */\n      tag_220\n      jump\t// in\n    tag_385:\n        /* \"#utility.yul\":16976:16978   */\n      0x40\n        /* \"#utility.yul\":16971:16974   */\n      dup3\n        /* \"#utility.yul\":16967:16979   */\n      add\n        /* \"#utility.yul\":16960:16979   */\n      swap1\n      pop\n        /* \"#utility.yul\":16619:16985   */\n      swap2\n      swap1\n      pop\n      jump\t// out\n        /* \"#utility.yul\":16991:17410   */\n    tag_162:\n        /* \"#utility.yul\":17157:17161   */\n      0x00\n        /* \"#utility.yul\":17195:17197   */\n      0x20\n        /* \"#utility.yul\":17184:17193   */\n      dup3\n        /* \"#utility.yul\":17180:17198   */\n      add\n        /* \"#utility.yul\":17172:17198   */\n      swap1\n      pop\n        /* \"#utility.yul\":17244:17253   */\n      dup2\n        /* \"#utility.yul\":17238:17242   */\n      dup2\n        /* \"#utility.yul\":17234:17254   */\n      sub\n        /* \"#utility.yul\":17230:17231   */\n      0x00\n        /* \"#utility.yul\":17219:17228   */\n      dup4\n        /* \"#utility.yul\":17215:17232   */\n      add\n        /* \"#utility.yul\":17208:17255   */\n      mstore\n        /* \"#utility.yul\":17272:17403   */\n      tag_387\n        /* \"#utility.yul\":17398:17402   */\n      dup2\n        /* \"#utility.yul\":17272:17403   */\n      tag_221\n      jump\t// in\n    tag_387:\n        /* \"#utility.yul\":17264:17403   */\n      swap1\n      pop\n        /* \"#utility.yul\":16991:17410   */\n      swap2\n      swap1\n      pop\n      jump\t// out\n        /* \"#utility.yul\":17416:17583   */\n    tag_222:\n        /* \"#utility.yul\":17556:17575   */\n      0x596f7520616c726561647920766f746564000000000000000000000000000000\n        /* \"#utility.yul\":17552:17553   */\n      0x00\n        /* \"#utility.yul\":17544:17550   */\n      dup3\n        /* \"#utility.yul\":17540:17554   */\n      add\n        /* \"#utility.yul\":17533:17576   */\n      mstore\n        /* \"#utility.yul\":17416:17583   */\n      pop\n      jump\t// out\n        /* \"#utility.yul\":17589:17955   */\n    tag_223:\n        /* \"#utility.yul\":17731:17734   */\n      0x00\n        /* \"#utility.yul\":17752:17819   */\n      tag_390\n        /* \"#utility.yul\":17816:17818   */\n      0x11\n        /* \"#utility.yul\":17811:17814   */\n      dup4\n        /* \"#utility.yul\":17752:17819   */\n      tag_192\n      jump\t// in\n    tag_390:\n        /* \"#utility.yul\":17745:17819   */\n      swap2\n      pop\n        /* \"#utility.yul\":17828:17921   */\n      tag_391\n        /* \"#utility.yul\":17917:17920   */\n      dup3\n        /* \"#utility.yul\":17828:17921   */\n      tag_222\n      jump\t// in\n    tag_391:\n        /* \"#utility.yul\":17946:17948   */\n      0x20\n        /* \"#utility.yul\":17941:17944   */\n      dup3\n        /* \"#utility.yul\":17937:17949   */\n      add\n        /* \"#utility.yul\":17930:17949   */\n      swap1\n      pop\n        /* \"#utility.yul\":17589:17955   */\n      swap2\n      swap1\n      pop\n      jump\t// out\n        /* \"#utility.yul\":17961:18380   */\n    tag_165:\n        /* \"#utility.yul\":18127:18131   */\n      0x00\n        /* \"#utility.yul\":18165:18167   */\n      0x20\n        /* \"#utility.yul\":18154:18163   */\n      dup3\n        /* \"#utility.yul\":18150:18168   */\n      add\n        /* \"#utility.yul\":18142:18168   */\n      swap1\n      pop\n        /* \"#utility.yul\":18214:18223   */\n      dup2\n        /* \"#utility.yul\":18208:18212   */\n      dup2\n        /* \"#utility.yul\":18204:18224   */\n      sub\n        /* \"#utility.yul\":18200:18201   */\n      0x00\n        /* \"#utility.yul\":18189:18198   */\n      dup4\n        /* \"#utility.yul\":18185:18202   */\n      add\n        /* \"#utility.yul\":18178:18225   */\n      mstore\n        /* \"#utility.yul\":18242:18373   */\n      tag_393\n        /* \"#utility.yul\":18368:18372   */\n      dup2\n        /* \"#utility.yul\":18242:18373   */\n      tag_223\n      jump\t// in\n    tag_393:\n        /* \"#utility.yul\":18234:18373   */\n      swap1\n      pop\n        /* \"#utility.yul\":17961:18380   */\n      swap2\n      swap1\n      pop\n      jump\t// out\n\n    auxdata: 0xa2646970667358221220b03b6e853a4237ed518f5715bc456995953b212b9171ab2f2ba881b88822837e64736f6c63430008090033\n}\n","bytecode":{"linkReferences":{},"object":"60806040526000600660006101000a81548160ff0219169083151502179055506000600660016101000a81548160ff021916908315150217905550600060075560006008553480156200005157600080fd5b5060405162001c8138038062001c81833981810160405281019062000077919062000198565b836000806101000a81548173ffffffffffffffffffffffffffffffffffffffff021916908373ffffffffffffffffffffffffffffffffffffffff16021790555082600381905550816004819055506201518081620000d6919062000239565b42620000e391906200029a565b60058190555050505050620002f7565b600080fd5b600073ffffffffffffffffffffffffffffffffffffffff82169050919050565b60006200012582620000f8565b9050919050565b620001378162000118565b81146200014357600080fd5b50565b60008151905062000157816200012c565b92915050565b6000819050919050565b62000172816200015d565b81146200017e57600080fd5b50565b600081519050620001928162000167565b92915050565b60008060008060808587031215620001b557620001b4620000f3565b5b6000620001c58782880162000146565b9450506020620001d88782880162000181565b9350506040620001eb8782880162000181565b9250506060620001fe8782880162000181565b91505092959194509250565b7f4e487b7100000000000000000000000000000000000000000000000000000000600052601160045260246000fd5b600062000246826200015d565b915062000253836200015d565b9250817fffffffffffffffffffffffffffffffffffffffffffffffffffffffffffffffff04831182151516156200028f576200028e6200020a565b5b828202905092915050565b6000620002a7826200015d565b9150620002b4836200015d565b9250827fffffffffffffffffffffffffffffffffffffffffffffffffffffffffffffffff03821115620002ec57620002eb6200020a565b5b828201905092915050565b61197a80620003076000396000f3fe6080604052600436106101095760003560e01c80637569b3d711610095578063937e09b111610064578063937e09b114610369578063980e784414610394578063b2d5ae44146103ab578063d7bb99ba146103c2578063d7d1bbdb146103cc57610109565b80637569b3d7146102a95780637d3d6522146102d457806381d12c58146102ff5780638a9cfd551461034057610109565b80632636b945116100dc5780632636b945146101ca57806329dcb0cf146101f55780633fad1834146102205780634051ddac1461024b578063481c6a751461027e57610109565b8063034410061461010e5780630ed5a9331461013757806312065fe0146101625780631f6d49421461018d575b600080fd5b34801561011a57600080fd5b5061013560048036038101906101309190610fa3565b6103f5565b005b34801561014357600080fd5b5061014c61052e565b6040516101599190610feb565b60405180910390f35b34801561016e57600080fd5b50610177610541565b6040516101849190611015565b60405180910390f35b34801561019957600080fd5b506101b460048036038101906101af919061108e565b6105a2565b6040516101c19190611015565b60405180910390f35b3480156101d657600080fd5b506101df6105ba565b6040516101ec9190611015565b60405180910390f35b34801561020157600080fd5b5061020a6105c0565b6040516102179190611015565b60405180910390f35b34801561022c57600080fd5b506102356105c6565b6040516102429190611015565b60405180910390f35b34801561025757600080fd5b506102606105d0565b604051610275999897969594939291906110ca565b60405180910390f35b34801561028a57600080fd5b50610293610657565b6040516102a09190611157565b60405180910390f35b3480156102b557600080fd5b506102be61067b565b6040516102cb9190611015565b60405180910390f35b3480156102e057600080fd5b506102e9610681565b6040516102f69190610feb565b60405180910390f35b34801561030b57600080fd5b5061032660048036038101906103219190610fa3565b610694565b60405161033795949392919061120b565b60405180910390f35b34801561034c57600080fd5b506103676004803603810190610362919061139a565b61077f565b005b34801561037557600080fd5b5061037e61089a565b60405161038b9190611015565b60405180910390f35b3480156103a057600080fd5b506103a96108a0565b005b3480156103b757600080fd5b506103c0610915565b005b6103ca610ad6565b005b3480156103d857600080fd5b506103f360048036038101906103ee9190610fa3565b610c87565b005b60008054906101000a900473ffffffffffffffffffffffffffffffffffffffff1673ffffffffffffffffffffffffffffffffffffffff163373ffffffffffffffffffffffffffffffffffffffff161461044d57600080fd5b600060016000838152602001908152602001600020905060026007546104739190611467565b81600401541161048257600080fd5b8060030160009054906101000a900460ff161561049e57600080fd5b8060010160009054906101000a900473ffffffffffffffffffffffffffffffffffffffff1673ffffffffffffffffffffffffffffffffffffffff166108fc82600201549081150290604051600060405180830381858888f1935050505015801561050c573d6000803e3d6000fd5b5060018160030160006101000a81548160ff0219169083151502179055505050565b600660009054906101000a900460ff1681565b60008060009054906101000a900473ffffffffffffffffffffffffffffffffffffffff1673ffffffffffffffffffffffffffffffffffffffff163373ffffffffffffffffffffffffffffffffffffffff161461059c57600080fd5b47905090565b60026020528060005260406000206000915090505481565b60045481565b60055481565b6000600854905090565b6000806000806000806000806000804790506000600854905081600754600354600454600554600660009054906101000a900460ff16600660019054906101000a900460ff168760008054906101000a900473ffffffffffffffffffffffffffffffffffffffff169a509a509a509a509a509a509a509a509a505050909192939495969798565b60008054906101000a900473ffffffffffffffffffffffffffffffffffffffff1681565b60075481565b600660019054906101000a900460ff1681565b60016020528060005260406000206000915090508060000180546106b7906114c7565b80601f01602080910402602001604051908101604052809291908181526020018280546106e3906114c7565b80156107305780601f1061070557610100808354040283529160200191610730565b820191906000526020600020905b81548152906001019060200180831161071357829003601f168201915b5050505050908060010160009054906101000a900473ffffffffffffffffffffffffffffffffffffffff16908060020154908060030160009054906101000a900460ff16908060040154905085565b60008054906101000a900473ffffffffffffffffffffffffffffffffffffffff1673ffffffffffffffffffffffffffffffffffffffff163373ffffffffffffffffffffffffffffffffffffffff16146107d757600080fd5b6000600160006008548152602001908152602001600020905083816000019080519060200190610808929190610eb6565b50828160020181905550818160010160006101000a81548173ffffffffffffffffffffffffffffffffffffffff021916908373ffffffffffffffffffffffffffffffffffffffff16021790555060008160030160006101000a81548160ff021916908315150217905550600081600401819055506008600081548092919061088f906114f9565b919050555050505050565b60035481565b60008054906101000a900473ffffffffffffffffffffffffffffffffffffffff1673ffffffffffffffffffffffffffffffffffffffff163373ffffffffffffffffffffffffffffffffffffffff16146108f857600080fd5b6001600660006101000a81548160ff021916908315150217905550565b600660009054906101000a900460ff1680610931575060055442115b610970576040517f08c379a00000000000000000000000000000000000000000000000000000000081526004016109679061158e565b60405180910390fd5b600660019054906101000a900460ff16156109c0576040517f08c379a00000000000000000000000000000000000000000000000000000000081526004016109b7906115fa565b60405180910390fd5b6000600260003373ffffffffffffffffffffffffffffffffffffffff1673ffffffffffffffffffffffffffffffffffffffff16815260200190815260200160002054905060008111610a47576040517f08c379a0000000000000000000000000000000000000000000000000000000008152600401610a3e90611666565b60405180910390fd5b6000600260003373ffffffffffffffffffffffffffffffffffffffff1673ffffffffffffffffffffffffffffffffffffffff168152602001908152602001600020819055503373ffffffffffffffffffffffffffffffffffffffff166108fc829081150290604051600060405180830381858888f19350505050158015610ad2573d6000803e3d6000fd5b5050565b60008054906101000a900473ffffffffffffffffffffffffffffffffffffffff1673ffffffffffffffffffffffffffffffffffffffff163373ffffffffffffffffffffffffffffffffffffffff161415610b65576040517f08c379a0000000000000000000000000000000000000000000000000000000008152600401610b5c906116d2565b60405180910390fd5b6003543411610ba9576040517f08c379a0000000000000000000000000000000000000000000000000000000008152600401610ba090611764565b60405180910390fd5b6000600260003373ffffffffffffffffffffffffffffffffffffffff1673ffffffffffffffffffffffffffffffffffffffff168152602001908152602001600020541415610c0a5760076000815480929190610c04906114f9565b91905055505b34600260003373ffffffffffffffffffffffffffffffffffffffff1673ffffffffffffffffffffffffffffffffffffffff1681526020019081526020016000206000828254610c599190611784565b925050819055506004544710610c85576001600660016101000a81548160ff0219169083151502179055505b565b60008054906101000a900473ffffffffffffffffffffffffffffffffffffffff1673ffffffffffffffffffffffffffffffffffffffff163373ffffffffffffffffffffffffffffffffffffffff161415610d16576040517f08c379a0000000000000000000000000000000000000000000000000000000008152600401610d0d90611826565b60405180910390fd5b6000600260003373ffffffffffffffffffffffffffffffffffffffff1673ffffffffffffffffffffffffffffffffffffffff1681526020019081526020016000205411610d98576040517f08c379a0000000000000000000000000000000000000000000000000000000008152600401610d8f906118b8565b60405180910390fd5b60006001600083815260200190815260200160002090508060050160003373ffffffffffffffffffffffffffffffffffffffff1673ffffffffffffffffffffffffffffffffffffffff16815260200190815260200160002060009054906101000a900460ff1615610e3e576040517f08c379a0000000000000000000000000000000000000000000000000000000008152600401610e3590611924565b60405180910390fd5b60018160050160003373ffffffffffffffffffffffffffffffffffffffff1673ffffffffffffffffffffffffffffffffffffffff16815260200190815260200160002060006101000a81548160ff021916908315150217905550806004016000815480929190610ead906114f9565b91905055505050565b828054610ec2906114c7565b90600052602060002090601f016020900481019282610ee45760008555610f2b565b82601f10610efd57805160ff1916838001178555610f2b565b82800160010185558215610f2b579182015b82811115610f2a578251825591602001919060010190610f0f565b5b509050610f389190610f3c565b5090565b5b80821115610f55576000816000905550600101610f3d565b5090565b6000604051905090565b600080fd5b600080fd5b6000819050919050565b610f8081610f6d565b8114610f8b57600080fd5b50565b600081359050610f9d81610f77565b92915050565b600060208284031215610fb957610fb8610f63565b5b6000610fc784828501610f8e565b91505092915050565b60008115159050919050565b610fe581610fd0565b82525050565b60006020820190506110006000830184610fdc565b92915050565b61100f81610f6d565b82525050565b600060208201905061102a6000830184611006565b92915050565b600073ffffffffffffffffffffffffffffffffffffffff82169050919050565b600061105b82611030565b9050919050565b61106b81611050565b811461107657600080fd5b50565b60008135905061108881611062565b92915050565b6000602082840312156110a4576110a3610f63565b5b60006110b284828501611079565b91505092915050565b6110c481611050565b82525050565b6000610120820190506110e0600083018c611006565b6110ed602083018b611006565b6110fa604083018a611006565b6111076060830189611006565b6111146080830188611006565b61112160a0830187610fdc565b61112e60c0830186610fdc565b61113b60e0830185611006565b6111496101008301846110bb565b9a9950505050505050505050565b600060208201905061116c60008301846110bb565b92915050565b600081519050919050565b600082825260208201905092915050565b60005b838110156111ac578082015181840152602081019050611191565b838111156111bb576000848401525b50505050565b6000601f19601f8301169050919050565b60006111dd82611172565b6111e7818561117d565b93506111f781856020860161118e565b611200816111c1565b840191505092915050565b600060a082019050818103600083015261122581886111d2565b905061123460208301876110bb565b6112416040830186611006565b61124e6060830185610fdc565b61125b6080830184611006565b9695505050505050565b600080fd5b600080fd5b7f4e487b7100000000000000000000000000000000000000000000000000000000600052604160045260246000fd5b6112a7826111c1565b810181811067ffffffffffffffff821117156112c6576112c561126f565b5b80604052505050565b60006112d9610f59565b90506112e5828261129e565b919050565b600067ffffffffffffffff8211156113055761130461126f565b5b61130e826111c1565b9050602081019050919050565b82818337600083830152505050565b600061133d611338846112ea565b6112cf565b9050828152602081018484840111156113595761135861126a565b5b61136484828561131b565b509392505050565b600082601f83011261138157611380611265565b5b813561139184826020860161132a565b91505092915050565b6000806000606084860312156113b3576113b2610f63565b5b600084013567ffffffffffffffff8111156113d1576113d0610f68565b5b6113dd8682870161136c565b93505060206113ee86828701610f8e565b92505060406113ff86828701611079565b9150509250925092565b7f4e487b7100000000000000000000000000000000000000000000000000000000600052601260045260246000fd5b7f4e487b7100000000000000000000000000000000000000000000000000000000600052601160045260246000fd5b600061147282610f6d565b915061147d83610f6d565b92508261148d5761148c611409565b5b828204905092915050565b7f4e487b7100000000000000000000000000000000000000000000000000000000600052602260045260246000fd5b600060028204905060018216806114df57607f821691505b602082108114156114f3576114f2611498565b5b50919050565b600061150482610f6d565b91507fffffffffffffffffffffffffffffffffffffffffffffffffffffffffffffffff82141561153757611536611438565b5b600182019050919050565b7f526566756e6473206e6f7420617661696c61626c650000000000000000000000600082015250565b600061157860158361117d565b915061158382611542565b602082019050919050565b600060208201905081810360008301526115a78161156b565b9050919050565b7f54686520676f616c207761732072656163686564000000000000000000000000600082015250565b60006115e460148361117d565b91506115ef826115ae565b602082019050919050565b60006020820190508181036000830152611613816115d7565b9050919050565b7f596f752068617665206e6f2066756e647320746f20726566756e640000000000600082015250565b6000611650601b8361117d565b915061165b8261161a565b602082019050919050565b6000602082019050818103600083015261167f81611643565b9050919050565b7f546865206d616e616765722063616e7420636f6e747269627574650000000000600082015250565b60006116bc601b8361117d565b91506116c782611686565b602082019050919050565b600060208201905081810360008301526116eb816116af565b9050919050565b7f45746865722076616c7565206d7573742062652067726561746572207468616e60008201527f206d696e696d756d20636f6e747269627574696f6e2e00000000000000000000602082015250565b600061174e60368361117d565b9150611759826116f2565b604082019050919050565b6000602082019050818103600083015261177d81611741565b9050919050565b600061178f82610f6d565b915061179a83610f6d565b9250827fffffffffffffffffffffffffffffffffffffffffffffffffffffffffffffffff038211156117cf576117ce611438565b5b828201905092915050565b7f546865206d616e616765722063616e7420617070726f76650000000000000000600082015250565b600061181060188361117d565b915061181b826117da565b602082019050919050565b6000602082019050818103600083015261183f81611803565b9050919050565b7f596f75206d757374206265206120636f6e747269627574657220696e206f726460008201527f657220746f20617070726f766520726571756573747300000000000000000000602082015250565b60006118a260368361117d565b91506118ad82611846565b604082019050919050565b600060208201905081810360008301526118d181611895565b9050919050565b7f596f7520616c726561647920766f746564000000000000000000000000000000600082015250565b600061190e60118361117d565b9150611919826118d8565b602082019050919050565b6000602082019050818103600083015261193d81611901565b905091905056fea2646970667358221220b03b6e853a4237ed518f5715bc456995953b212b9171ab2f2ba881b88822837e64736f6c63430008090033","opcodes":"PUSH1 0x80 PUSH1 0x40 MSTORE PUSH1 0x0 PUSH1 0x6 PUSH1 0x0 PUSH2 0x100 EXP DUP2 SLOAD DUP2 PUSH1 0xFF MUL NOT AND SWAP1 DUP4 ISZERO ISZERO MUL OR SWAP1 SSTORE POP PUSH1 0x0 PUSH1 0x6 PUSH1 0x1 PUSH2 0x100 EXP DUP2 SLOAD DUP2 PUSH1 0xFF MUL NOT AND SWAP1 DUP4 ISZERO ISZERO MUL OR SWAP1 SSTORE POP PUSH1 0x0 PUSH1 0x7 SSTORE PUSH1 0x0 PUSH1 0x8 SSTORE CALLVALUE DUP1 ISZERO PUSH3 0x51 JUMPI PUSH1 0x0 DUP1 REVERT JUMPDEST POP PUSH1 0x40 MLOAD PUSH3 0x1C81 CODESIZE SUB DUP1 PUSH3 0x1C81 DUP4 CODECOPY DUP2 DUP2 ADD PUSH1 0x40 MSTORE DUP2 ADD SWAP1 PUSH3 0x77 SWAP2 SWAP1 PUSH3 0x198 JUMP JUMPDEST DUP4 PUSH1 0x0 DUP1 PUSH2 0x100 EXP DUP2 SLOAD DUP2 PUSH20 0xFFFFFFFFFFFFFFFFFFFFFFFFFFFFFFFFFFFFFFFF MUL NOT AND SWAP1 DUP4 PUSH20 0xFFFFFFFFFFFFFFFFFFFFFFFFFFFFFFFFFFFFFFFF AND MUL OR SWAP1 SSTORE POP DUP3 PUSH1 0x3 DUP2 SWAP1 SSTORE POP DUP2 PUSH1 0x4 DUP2 SWAP1 SSTORE POP PUSH3 0x15180 DUP2 PUSH3 0xD6 SWAP2 SWAP1 PUSH3 0x239 JUMP JUMPDEST TIMESTAMP PUSH3 0xE3 SWAP2 SWAP1 PUSH3 0x29A JUMP JUMPDEST PUSH1 0x5 DUP2 SWAP1 SSTORE POP POP POP POP POP PUSH3 0x2F7 JUMP JUMPDEST PUSH1 0x0 DUP1 REVERT JUMPDEST PUSH1 0x0 PUSH20 0xFFFFFFFFFFFFFFFFFFFFFFFFFFFFFFFFFFFFFFFF DUP3 AND SWAP1 POP SWAP2 SWAP1 POP JUMP JUMPDEST PUSH1 0x0 PUSH3 0x125 DUP3 PUSH3 0xF8 JUMP JUMPDEST SWAP1 POP SWAP2 SWAP1 POP JUMP JUMPDEST PUSH3 0x137 DUP2 PUSH3 0x118 JUMP JUMPDEST DUP2 EQ PUSH3 0x143 JUMPI PUSH1 0x0 DUP1 REVERT JUMPDEST POP JUMP JUMPDEST PUSH1 0x0 DUP2 MLOAD SWAP1 POP PUSH3 0x157 DUP2 PUSH3 0x12C JUMP JUMPDEST SWAP3 SWAP2 POP POP JUMP JUMPDEST PUSH1 0x0 DUP2 SWAP1 POP SWAP2 SWAP1 POP JUMP JUMPDEST PUSH3 0x172 DUP2 PUSH3 0x15D JUMP JUMPDEST DUP2 EQ PUSH3 0x17E JUMPI PUSH1 0x0 DUP1 REVERT JUMPDEST POP JUMP JUMPDEST PUSH1 0x0 DUP2 MLOAD SWAP1 POP PUSH3 0x192 DUP2 PUSH3 0x167 JUMP JUMPDEST SWAP3 SWAP2 POP POP JUMP JUMPDEST PUSH1 0x0 DUP1 PUSH1 0x0 DUP1 PUSH1 0x80 DUP6 DUP8 SUB SLT ISZERO PUSH3 0x1B5 JUMPI PUSH3 0x1B4 PUSH3 0xF3 JUMP JUMPDEST JUMPDEST PUSH1 0x0 PUSH3 0x1C5 DUP8 DUP3 DUP9 ADD PUSH3 0x146 JUMP JUMPDEST SWAP5 POP POP PUSH1 0x20 PUSH3 0x1D8 DUP8 DUP3 DUP9 ADD PUSH3 0x181 JUMP JUMPDEST SWAP4 POP POP PUSH1 0x40 PUSH3 0x1EB DUP8 DUP3 DUP9 ADD PUSH3 0x181 JUMP JUMPDEST SWAP3 POP POP PUSH1 0x60 PUSH3 0x1FE DUP8 DUP3 DUP9 ADD PUSH3 0x181 JUMP JUMPDEST SWAP2 POP POP SWAP3 SWAP6 SWAP2 SWAP5 POP SWAP3 POP JUMP JUMPDEST PUSH32 0x4E487B7100000000000000000000000000000000000000000000000000000000 PUSH1 0x0 MSTORE PUSH1 0x11 PUSH1 0x4 MSTORE PUSH1 0x24 PUSH1 0x0 REVERT JUMPDEST PUSH1 0x0 PUSH3 0x246 DUP3 PUSH3 0x15D JUMP JUMPDEST SWAP2 POP PUSH3 0x253 DUP4 PUSH3 0x15D JUMP JUMPDEST SWAP3 POP DUP2 PUSH32 0xFFFFFFFFFFFFFFFFFFFFFFFFFFFFFFFFFFFFFFFFFFFFFFFFFFFFFFFFFFFFFFFF DIV DUP4 GT DUP3 ISZERO ISZERO AND ISZERO PUSH3 0x28F JUMPI PUSH3 0x28E PUSH3 0x20A JUMP JUMPDEST JUMPDEST DUP3 DUP3 MUL SWAP1 POP SWAP3 SWAP2 POP POP JUMP JUMPDEST PUSH1 0x0 PUSH3 0x2A7 DUP3 PUSH3 0x15D JUMP JUMPDEST SWAP2 POP PUSH3 0x2B4 DUP4 PUSH3 0x15D JUMP JUMPDEST SWAP3 POP DUP3 PUSH32 0xFFFFFFFFFFFFFFFFFFFFFFFFFFFFFFFFFFFFFFFFFFFFFFFFFFFFFFFFFFFFFFFF SUB DUP3 GT ISZERO PUSH3 0x2EC JUMPI PUSH3 0x2EB PUSH3 0x20A JUMP JUMPDEST JUMPDEST DUP3 DUP3 ADD SWAP1 POP SWAP3 SWAP2 POP POP JUMP JUMPDEST PUSH2 0x197A DUP1 PUSH3 0x307 PUSH1 0x0 CODECOPY PUSH1 0x0 RETURN INVALID PUSH1 0x80 PUSH1 0x40 MSTORE PUSH1 0x4 CALLDATASIZE LT PUSH2 0x109 JUMPI PUSH1 0x0 CALLDATALOAD PUSH1 0xE0 SHR DUP1 PUSH4 0x7569B3D7 GT PUSH2 0x95 JUMPI DUP1 PUSH4 0x937E09B1 GT PUSH2 0x64 JUMPI DUP1 PUSH4 0x937E09B1 EQ PUSH2 0x369 JUMPI DUP1 PUSH4 0x980E7844 EQ PUSH2 0x394 JUMPI DUP1 PUSH4 0xB2D5AE44 EQ PUSH2 0x3AB JUMPI DUP1 PUSH4 0xD7BB99BA EQ PUSH2 0x3C2 JUMPI DUP1 PUSH4 0xD7D1BBDB EQ PUSH2 0x3CC JUMPI PUSH2 0x109 JUMP JUMPDEST DUP1 PUSH4 0x7569B3D7 EQ PUSH2 0x2A9 JUMPI DUP1 PUSH4 0x7D3D6522 EQ PUSH2 0x2D4 JUMPI DUP1 PUSH4 0x81D12C58 EQ PUSH2 0x2FF JUMPI DUP1 PUSH4 0x8A9CFD55 EQ PUSH2 0x340 JUMPI PUSH2 0x109 JUMP JUMPDEST DUP1 PUSH4 0x2636B945 GT PUSH2 0xDC JUMPI DUP1 PUSH4 0x2636B945 EQ PUSH2 0x1CA JUMPI DUP1 PUSH4 0x29DCB0CF EQ PUSH2 0x1F5 JUMPI DUP1 PUSH4 0x3FAD1834 EQ PUSH2 0x220 JUMPI DUP1 PUSH4 0x4051DDAC EQ PUSH2 0x24B JUMPI DUP1 PUSH4 0x481C6A75 EQ PUSH2 0x27E JUMPI PUSH2 0x109 JUMP JUMPDEST DUP1 PUSH4 0x3441006 EQ PUSH2 0x10E JUMPI DUP1 PUSH4 0xED5A933 EQ PUSH2 0x137 JUMPI DUP1 PUSH4 0x12065FE0 EQ PUSH2 0x162 JUMPI DUP1 PUSH4 0x1F6D4942 EQ PUSH2 0x18D JUMPI JUMPDEST PUSH1 0x0 DUP1 REVERT JUMPDEST CALLVALUE DUP1 ISZERO PUSH2 0x11A JUMPI PUSH1 0x0 DUP1 REVERT JUMPDEST POP PUSH2 0x135 PUSH1 0x4 DUP1 CALLDATASIZE SUB DUP2 ADD SWAP1 PUSH2 0x130 SWAP2 SWAP1 PUSH2 0xFA3 JUMP JUMPDEST PUSH2 0x3F5 JUMP JUMPDEST STOP JUMPDEST CALLVALUE DUP1 ISZERO PUSH2 0x143 JUMPI PUSH1 0x0 DUP1 REVERT JUMPDEST POP PUSH2 0x14C PUSH2 0x52E JUMP JUMPDEST PUSH1 0x40 MLOAD PUSH2 0x159 SWAP2 SWAP1 PUSH2 0xFEB JUMP JUMPDEST PUSH1 0x40 MLOAD DUP1 SWAP2 SUB SWAP1 RETURN JUMPDEST CALLVALUE DUP1 ISZERO PUSH2 0x16E JUMPI PUSH1 0x0 DUP1 REVERT JUMPDEST POP PUSH2 0x177 PUSH2 0x541 JUMP JUMPDEST PUSH1 0x40 MLOAD PUSH2 0x184 SWAP2 SWAP1 PUSH2 0x1015 JUMP JUMPDEST PUSH1 0x40 MLOAD DUP1 SWAP2 SUB SWAP1 RETURN JUMPDEST CALLVALUE DUP1 ISZERO PUSH2 0x199 JUMPI PUSH1 0x0 DUP1 REVERT JUMPDEST POP PUSH2 0x1B4 PUSH1 0x4 DUP1 CALLDATASIZE SUB DUP2 ADD SWAP1 PUSH2 0x1AF SWAP2 SWAP1 PUSH2 0x108E JUMP JUMPDEST PUSH2 0x5A2 JUMP JUMPDEST PUSH1 0x40 MLOAD PUSH2 0x1C1 SWAP2 SWAP1 PUSH2 0x1015 JUMP JUMPDEST PUSH1 0x40 MLOAD DUP1 SWAP2 SUB SWAP1 RETURN JUMPDEST CALLVALUE DUP1 ISZERO PUSH2 0x1D6 JUMPI PUSH1 0x0 DUP1 REVERT JUMPDEST POP PUSH2 0x1DF PUSH2 0x5BA JUMP JUMPDEST PUSH1 0x40 MLOAD PUSH2 0x1EC SWAP2 SWAP1 PUSH2 0x1015 JUMP JUMPDEST PUSH1 0x40 MLOAD DUP1 SWAP2 SUB SWAP1 RETURN JUMPDEST CALLVALUE DUP1 ISZERO PUSH2 0x201 JUMPI PUSH1 0x0 DUP1 REVERT JUMPDEST POP PUSH2 0x20A PUSH2 0x5C0 JUMP JUMPDEST PUSH1 0x40 MLOAD PUSH2 0x217 SWAP2 SWAP1 PUSH2 0x1015 JUMP JUMPDEST PUSH1 0x40 MLOAD DUP1 SWAP2 SUB SWAP1 RETURN JUMPDEST CALLVALUE DUP1 ISZERO PUSH2 0x22C JUMPI PUSH1 0x0 DUP1 REVERT JUMPDEST POP PUSH2 0x235 PUSH2 0x5C6 JUMP JUMPDEST PUSH1 0x40 MLOAD PUSH2 0x242 SWAP2 SWAP1 PUSH2 0x1015 JUMP JUMPDEST PUSH1 0x40 MLOAD DUP1 SWAP2 SUB SWAP1 RETURN JUMPDEST CALLVALUE DUP1 ISZERO PUSH2 0x257 JUMPI PUSH1 0x0 DUP1 REVERT JUMPDEST POP PUSH2 0x260 PUSH2 0x5D0 JUMP JUMPDEST PUSH1 0x40 MLOAD PUSH2 0x275 SWAP10 SWAP9 SWAP8 SWAP7 SWAP6 SWAP5 SWAP4 SWAP3 SWAP2 SWAP1 PUSH2 0x10CA JUMP JUMPDEST PUSH1 0x40 MLOAD DUP1 SWAP2 SUB SWAP1 RETURN JUMPDEST CALLVALUE DUP1 ISZERO PUSH2 0x28A JUMPI PUSH1 0x0 DUP1 REVERT JUMPDEST POP PUSH2 0x293 PUSH2 0x657 JUMP JUMPDEST PUSH1 0x40 MLOAD PUSH2 0x2A0 SWAP2 SWAP1 PUSH2 0x1157 JUMP JUMPDEST PUSH1 0x40 MLOAD DUP1 SWAP2 SUB SWAP1 RETURN JUMPDEST CALLVALUE DUP1 ISZERO PUSH2 0x2B5 JUMPI PUSH1 0x0 DUP1 REVERT JUMPDEST POP PUSH2 0x2BE PUSH2 0x67B JUMP JUMPDEST PUSH1 0x40 MLOAD PUSH2 0x2CB SWAP2 SWAP1 PUSH2 0x1015 JUMP JUMPDEST PUSH1 0x40 MLOAD DUP1 SWAP2 SUB SWAP1 RETURN JUMPDEST CALLVALUE DUP1 ISZERO PUSH2 0x2E0 JUMPI PUSH1 0x0 DUP1 REVERT JUMPDEST POP PUSH2 0x2E9 PUSH2 0x681 JUMP JUMPDEST PUSH1 0x40 MLOAD PUSH2 0x2F6 SWAP2 SWAP1 PUSH2 0xFEB JUMP JUMPDEST PUSH1 0x40 MLOAD DUP1 SWAP2 SUB SWAP1 RETURN JUMPDEST CALLVALUE DUP1 ISZERO PUSH2 0x30B JUMPI PUSH1 0x0 DUP1 REVERT JUMPDEST POP PUSH2 0x326 PUSH1 0x4 DUP1 CALLDATASIZE SUB DUP2 ADD SWAP1 PUSH2 0x321 SWAP2 SWAP1 PUSH2 0xFA3 JUMP JUMPDEST PUSH2 0x694 JUMP JUMPDEST PUSH1 0x40 MLOAD PUSH2 0x337 SWAP6 SWAP5 SWAP4 SWAP3 SWAP2 SWAP1 PUSH2 0x120B JUMP JUMPDEST PUSH1 0x40 MLOAD DUP1 SWAP2 SUB SWAP1 RETURN JUMPDEST CALLVALUE DUP1 ISZERO PUSH2 0x34C JUMPI PUSH1 0x0 DUP1 REVERT JUMPDEST POP PUSH2 0x367 PUSH1 0x4 DUP1 CALLDATASIZE SUB DUP2 ADD SWAP1 PUSH2 0x362 SWAP2 SWAP1 PUSH2 0x139A JUMP JUMPDEST PUSH2 0x77F JUMP JUMPDEST STOP JUMPDEST CALLVALUE DUP1 ISZERO PUSH2 0x375 JUMPI PUSH1 0x0 DUP1 REVERT JUMPDEST POP PUSH2 0x37E PUSH2 0x89A JUMP JUMPDEST PUSH1 0x40 MLOAD PUSH2 0x38B SWAP2 SWAP1 PUSH2 0x1015 JUMP JUMPDEST PUSH1 0x40 MLOAD DUP1 SWAP2 SUB SWAP1 RETURN JUMPDEST CALLVALUE DUP1 ISZERO PUSH2 0x3A0 JUMPI PUSH1 0x0 DUP1 REVERT JUMPDEST POP PUSH2 0x3A9 PUSH2 0x8A0 JUMP JUMPDEST STOP JUMPDEST CALLVALUE DUP1 ISZERO PUSH2 0x3B7 JUMPI PUSH1 0x0 DUP1 REVERT JUMPDEST POP PUSH2 0x3C0 PUSH2 0x915 JUMP JUMPDEST STOP JUMPDEST PUSH2 0x3CA PUSH2 0xAD6 JUMP JUMPDEST STOP JUMPDEST CALLVALUE DUP1 ISZERO PUSH2 0x3D8 JUMPI PUSH1 0x0 DUP1 REVERT JUMPDEST POP PUSH2 0x3F3 PUSH1 0x4 DUP1 CALLDATASIZE SUB DUP2 ADD SWAP1 PUSH2 0x3EE SWAP2 SWAP1 PUSH2 0xFA3 JUMP JUMPDEST PUSH2 0xC87 JUMP JUMPDEST STOP JUMPDEST PUSH1 0x0 DUP1 SLOAD SWAP1 PUSH2 0x100 EXP SWAP1 DIV PUSH20 0xFFFFFFFFFFFFFFFFFFFFFFFFFFFFFFFFFFFFFFFF AND PUSH20 0xFFFFFFFFFFFFFFFFFFFFFFFFFFFFFFFFFFFFFFFF AND CALLER PUSH20 0xFFFFFFFFFFFFFFFFFFFFFFFFFFFFFFFFFFFFFFFF AND EQ PUSH2 0x44D JUMPI PUSH1 0x0 DUP1 REVERT JUMPDEST PUSH1 0x0 PUSH1 0x1 PUSH1 0x0 DUP4 DUP2 MSTORE PUSH1 0x20 ADD SWAP1 DUP2 MSTORE PUSH1 0x20 ADD PUSH1 0x0 KECCAK256 SWAP1 POP PUSH1 0x2 PUSH1 0x7 SLOAD PUSH2 0x473 SWAP2 SWAP1 PUSH2 0x1467 JUMP JUMPDEST DUP2 PUSH1 0x4 ADD SLOAD GT PUSH2 0x482 JUMPI PUSH1 0x0 DUP1 REVERT JUMPDEST DUP1 PUSH1 0x3 ADD PUSH1 0x0 SWAP1 SLOAD SWAP1 PUSH2 0x100 EXP SWAP1 DIV PUSH1 0xFF AND ISZERO PUSH2 0x49E JUMPI PUSH1 0x0 DUP1 REVERT JUMPDEST DUP1 PUSH1 0x1 ADD PUSH1 0x0 SWAP1 SLOAD SWAP1 PUSH2 0x100 EXP SWAP1 DIV PUSH20 0xFFFFFFFFFFFFFFFFFFFFFFFFFFFFFFFFFFFFFFFF AND PUSH20 0xFFFFFFFFFFFFFFFFFFFFFFFFFFFFFFFFFFFFFFFF AND PUSH2 0x8FC DUP3 PUSH1 0x2 ADD SLOAD SWAP1 DUP2 ISZERO MUL SWAP1 PUSH1 0x40 MLOAD PUSH1 0x0 PUSH1 0x40 MLOAD DUP1 DUP4 SUB DUP2 DUP6 DUP9 DUP9 CALL SWAP4 POP POP POP POP ISZERO DUP1 ISZERO PUSH2 0x50C JUMPI RETURNDATASIZE PUSH1 0x0 DUP1 RETURNDATACOPY RETURNDATASIZE PUSH1 0x0 REVERT JUMPDEST POP PUSH1 0x1 DUP2 PUSH1 0x3 ADD PUSH1 0x0 PUSH2 0x100 EXP DUP2 SLOAD DUP2 PUSH1 0xFF MUL NOT AND SWAP1 DUP4 ISZERO ISZERO MUL OR SWAP1 SSTORE POP POP POP JUMP JUMPDEST PUSH1 0x6 PUSH1 0x0 SWAP1 SLOAD SWAP1 PUSH2 0x100 EXP SWAP1 DIV PUSH1 0xFF AND DUP2 JUMP JUMPDEST PUSH1 0x0 DUP1 PUSH1 0x0 SWAP1 SLOAD SWAP1 PUSH2 0x100 EXP SWAP1 DIV PUSH20 0xFFFFFFFFFFFFFFFFFFFFFFFFFFFFFFFFFFFFFFFF AND PUSH20 0xFFFFFFFFFFFFFFFFFFFFFFFFFFFFFFFFFFFFFFFF AND CALLER PUSH20 0xFFFFFFFFFFFFFFFFFFFFFFFFFFFFFFFFFFFFFFFF AND EQ PUSH2 0x59C JUMPI PUSH1 0x0 DUP1 REVERT JUMPDEST SELFBALANCE SWAP1 POP SWAP1 JUMP JUMPDEST PUSH1 0x2 PUSH1 0x20 MSTORE DUP1 PUSH1 0x0 MSTORE PUSH1 0x40 PUSH1 0x0 KECCAK256 PUSH1 0x0 SWAP2 POP SWAP1 POP SLOAD DUP2 JUMP JUMPDEST PUSH1 0x4 SLOAD DUP2 JUMP JUMPDEST PUSH1 0x5 SLOAD DUP2 JUMP JUMPDEST PUSH1 0x0 PUSH1 0x8 SLOAD SWAP1 POP SWAP1 JUMP JUMPDEST PUSH1 0x0 DUP1 PUSH1 0x0 DUP1 PUSH1 0x0 DUP1 PUSH1 0x0 DUP1 PUSH1 0x0 DUP1 SELFBALANCE SWAP1 POP PUSH1 0x0 PUSH1 0x8 SLOAD SWAP1 POP DUP2 PUSH1 0x7 SLOAD PUSH1 0x3 SLOAD PUSH1 0x4 SLOAD PUSH1 0x5 SLOAD PUSH1 0x6 PUSH1 0x0 SWAP1 SLOAD SWAP1 PUSH2 0x100 EXP SWAP1 DIV PUSH1 0xFF AND PUSH1 0x6 PUSH1 0x1 SWAP1 SLOAD SWAP1 PUSH2 0x100 EXP SWAP1 DIV PUSH1 0xFF AND DUP8 PUSH1 0x0 DUP1 SLOAD SWAP1 PUSH2 0x100 EXP SWAP1 DIV PUSH20 0xFFFFFFFFFFFFFFFFFFFFFFFFFFFFFFFFFFFFFFFF AND SWAP11 POP SWAP11 POP SWAP11 POP SWAP11 POP SWAP11 POP SWAP11 POP SWAP11 POP SWAP11 POP SWAP11 POP POP POP SWAP1 SWAP2 SWAP3 SWAP4 SWAP5 SWAP6 SWAP7 SWAP8 SWAP9 JUMP JUMPDEST PUSH1 0x0 DUP1 SLOAD SWAP1 PUSH2 0x100 EXP SWAP1 DIV PUSH20 0xFFFFFFFFFFFFFFFFFFFFFFFFFFFFFFFFFFFFFFFF AND DUP2 JUMP JUMPDEST PUSH1 0x7 SLOAD DUP2 JUMP JUMPDEST PUSH1 0x6 PUSH1 0x1 SWAP1 SLOAD SWAP1 PUSH2 0x100 EXP SWAP1 DIV PUSH1 0xFF AND DUP2 JUMP JUMPDEST PUSH1 0x1 PUSH1 0x20 MSTORE DUP1 PUSH1 0x0 MSTORE PUSH1 0x40 PUSH1 0x0 KECCAK256 PUSH1 0x0 SWAP2 POP SWAP1 POP DUP1 PUSH1 0x0 ADD DUP1 SLOAD PUSH2 0x6B7 SWAP1 PUSH2 0x14C7 JUMP JUMPDEST DUP1 PUSH1 0x1F ADD PUSH1 0x20 DUP1 SWAP2 DIV MUL PUSH1 0x20 ADD PUSH1 0x40 MLOAD SWAP1 DUP2 ADD PUSH1 0x40 MSTORE DUP1 SWAP3 SWAP2 SWAP1 DUP2 DUP2 MSTORE PUSH1 0x20 ADD DUP3 DUP1 SLOAD PUSH2 0x6E3 SWAP1 PUSH2 0x14C7 JUMP JUMPDEST DUP1 ISZERO PUSH2 0x730 JUMPI DUP1 PUSH1 0x1F LT PUSH2 0x705 JUMPI PUSH2 0x100 DUP1 DUP4 SLOAD DIV MUL DUP4 MSTORE SWAP2 PUSH1 0x20 ADD SWAP2 PUSH2 0x730 JUMP JUMPDEST DUP3 ADD SWAP2 SWAP1 PUSH1 0x0 MSTORE PUSH1 0x20 PUSH1 0x0 KECCAK256 SWAP1 JUMPDEST DUP2 SLOAD DUP2 MSTORE SWAP1 PUSH1 0x1 ADD SWAP1 PUSH1 0x20 ADD DUP1 DUP4 GT PUSH2 0x713 JUMPI DUP3 SWAP1 SUB PUSH1 0x1F AND DUP3 ADD SWAP2 JUMPDEST POP POP POP POP POP SWAP1 DUP1 PUSH1 0x1 ADD PUSH1 0x0 SWAP1 SLOAD SWAP1 PUSH2 0x100 EXP SWAP1 DIV PUSH20 0xFFFFFFFFFFFFFFFFFFFFFFFFFFFFFFFFFFFFFFFF AND SWAP1 DUP1 PUSH1 0x2 ADD SLOAD SWAP1 DUP1 PUSH1 0x3 ADD PUSH1 0x0 SWAP1 SLOAD SWAP1 PUSH2 0x100 EXP SWAP1 DIV PUSH1 0xFF AND SWAP1 DUP1 PUSH1 0x4 ADD SLOAD SWAP1 POP DUP6 JUMP JUMPDEST PUSH1 0x0 DUP1 SLOAD SWAP1 PUSH2 0x100 EXP SWAP1 DIV PUSH20 0xFFFFFFFFFFFFFFFFFFFFFFFFFFFFFFFFFFFFFFFF AND PUSH20 0xFFFFFFFFFFFFFFFFFFFFFFFFFFFFFFFFFFFFFFFF AND CALLER PUSH20 0xFFFFFFFFFFFFFFFFFFFFFFFFFFFFFFFFFFFFFFFF AND EQ PUSH2 0x7D7 JUMPI PUSH1 0x0 DUP1 REVERT JUMPDEST PUSH1 0x0 PUSH1 0x1 PUSH1 0x0 PUSH1 0x8 SLOAD DUP2 MSTORE PUSH1 0x20 ADD SWAP1 DUP2 MSTORE PUSH1 0x20 ADD PUSH1 0x0 KECCAK256 SWAP1 POP DUP4 DUP2 PUSH1 0x0 ADD SWAP1 DUP1 MLOAD SWAP1 PUSH1 0x20 ADD SWAP1 PUSH2 0x808 SWAP3 SWAP2 SWAP1 PUSH2 0xEB6 JUMP JUMPDEST POP DUP3 DUP2 PUSH1 0x2 ADD DUP2 SWAP1 SSTORE POP DUP2 DUP2 PUSH1 0x1 ADD PUSH1 0x0 PUSH2 0x100 EXP DUP2 SLOAD DUP2 PUSH20 0xFFFFFFFFFFFFFFFFFFFFFFFFFFFFFFFFFFFFFFFF MUL NOT AND SWAP1 DUP4 PUSH20 0xFFFFFFFFFFFFFFFFFFFFFFFFFFFFFFFFFFFFFFFF AND MUL OR SWAP1 SSTORE POP PUSH1 0x0 DUP2 PUSH1 0x3 ADD PUSH1 0x0 PUSH2 0x100 EXP DUP2 SLOAD DUP2 PUSH1 0xFF MUL NOT AND SWAP1 DUP4 ISZERO ISZERO MUL OR SWAP1 SSTORE POP PUSH1 0x0 DUP2 PUSH1 0x4 ADD DUP2 SWAP1 SSTORE POP PUSH1 0x8 PUSH1 0x0 DUP2 SLOAD DUP1 SWAP3 SWAP2 SWAP1 PUSH2 0x88F SWAP1 PUSH2 0x14F9 JUMP JUMPDEST SWAP2 SWAP1 POP SSTORE POP POP POP POP POP JUMP JUMPDEST PUSH1 0x3 SLOAD DUP2 JUMP JUMPDEST PUSH1 0x0 DUP1 SLOAD SWAP1 PUSH2 0x100 EXP SWAP1 DIV PUSH20 0xFFFFFFFFFFFFFFFFFFFFFFFFFFFFFFFFFFFFFFFF AND PUSH20 0xFFFFFFFFFFFFFFFFFFFFFFFFFFFFFFFFFFFFFFFF AND CALLER PUSH20 0xFFFFFFFFFFFFFFFFFFFFFFFFFFFFFFFFFFFFFFFF AND EQ PUSH2 0x8F8 JUMPI PUSH1 0x0 DUP1 REVERT JUMPDEST PUSH1 0x1 PUSH1 0x6 PUSH1 0x0 PUSH2 0x100 EXP DUP2 SLOAD DUP2 PUSH1 0xFF MUL NOT AND SWAP1 DUP4 ISZERO ISZERO MUL OR SWAP1 SSTORE POP JUMP JUMPDEST PUSH1 0x6 PUSH1 0x0 SWAP1 SLOAD SWAP1 PUSH2 0x100 EXP SWAP1 DIV PUSH1 0xFF AND DUP1 PUSH2 0x931 JUMPI POP PUSH1 0x5 SLOAD TIMESTAMP GT JUMPDEST PUSH2 0x970 JUMPI PUSH1 0x40 MLOAD PUSH32 0x8C379A000000000000000000000000000000000000000000000000000000000 DUP2 MSTORE PUSH1 0x4 ADD PUSH2 0x967 SWAP1 PUSH2 0x158E JUMP JUMPDEST PUSH1 0x40 MLOAD DUP1 SWAP2 SUB SWAP1 REVERT JUMPDEST PUSH1 0x6 PUSH1 0x1 SWAP1 SLOAD SWAP1 PUSH2 0x100 EXP SWAP1 DIV PUSH1 0xFF AND ISZERO PUSH2 0x9C0 JUMPI PUSH1 0x40 MLOAD PUSH32 0x8C379A000000000000000000000000000000000000000000000000000000000 DUP2 MSTORE PUSH1 0x4 ADD PUSH2 0x9B7 SWAP1 PUSH2 0x15FA JUMP JUMPDEST PUSH1 0x40 MLOAD DUP1 SWAP2 SUB SWAP1 REVERT JUMPDEST PUSH1 0x0 PUSH1 0x2 PUSH1 0x0 CALLER PUSH20 0xFFFFFFFFFFFFFFFFFFFFFFFFFFFFFFFFFFFFFFFF AND PUSH20 0xFFFFFFFFFFFFFFFFFFFFFFFFFFFFFFFFFFFFFFFF AND DUP2 MSTORE PUSH1 0x20 ADD SWAP1 DUP2 MSTORE PUSH1 0x20 ADD PUSH1 0x0 KECCAK256 SLOAD SWAP1 POP PUSH1 0x0 DUP2 GT PUSH2 0xA47 JUMPI PUSH1 0x40 MLOAD PUSH32 0x8C379A000000000000000000000000000000000000000000000000000000000 DUP2 MSTORE PUSH1 0x4 ADD PUSH2 0xA3E SWAP1 PUSH2 0x1666 JUMP JUMPDEST PUSH1 0x40 MLOAD DUP1 SWAP2 SUB SWAP1 REVERT JUMPDEST PUSH1 0x0 PUSH1 0x2 PUSH1 0x0 CALLER PUSH20 0xFFFFFFFFFFFFFFFFFFFFFFFFFFFFFFFFFFFFFFFF AND PUSH20 0xFFFFFFFFFFFFFFFFFFFFFFFFFFFFFFFFFFFFFFFF AND DUP2 MSTORE PUSH1 0x20 ADD SWAP1 DUP2 MSTORE PUSH1 0x20 ADD PUSH1 0x0 KECCAK256 DUP2 SWAP1 SSTORE POP CALLER PUSH20 0xFFFFFFFFFFFFFFFFFFFFFFFFFFFFFFFFFFFFFFFF AND PUSH2 0x8FC DUP3 SWAP1 DUP2 ISZERO MUL SWAP1 PUSH1 0x40 MLOAD PUSH1 0x0 PUSH1 0x40 MLOAD DUP1 DUP4 SUB DUP2 DUP6 DUP9 DUP9 CALL SWAP4 POP POP POP POP ISZERO DUP1 ISZERO PUSH2 0xAD2 JUMPI RETURNDATASIZE PUSH1 0x0 DUP1 RETURNDATACOPY RETURNDATASIZE PUSH1 0x0 REVERT JUMPDEST POP POP JUMP JUMPDEST PUSH1 0x0 DUP1 SLOAD SWAP1 PUSH2 0x100 EXP SWAP1 DIV PUSH20 0xFFFFFFFFFFFFFFFFFFFFFFFFFFFFFFFFFFFFFFFF AND PUSH20 0xFFFFFFFFFFFFFFFFFFFFFFFFFFFFFFFFFFFFFFFF AND CALLER PUSH20 0xFFFFFFFFFFFFFFFFFFFFFFFFFFFFFFFFFFFFFFFF AND EQ ISZERO PUSH2 0xB65 JUMPI PUSH1 0x40 MLOAD PUSH32 0x8C379A000000000000000000000000000000000000000000000000000000000 DUP2 MSTORE PUSH1 0x4 ADD PUSH2 0xB5C SWAP1 PUSH2 0x16D2 JUMP JUMPDEST PUSH1 0x40 MLOAD DUP1 SWAP2 SUB SWAP1 REVERT JUMPDEST PUSH1 0x3 SLOAD CALLVALUE GT PUSH2 0xBA9 JUMPI PUSH1 0x40 MLOAD PUSH32 0x8C379A000000000000000000000000000000000000000000000000000000000 DUP2 MSTORE PUSH1 0x4 ADD PUSH2 0xBA0 SWAP1 PUSH2 0x1764 JUMP JUMPDEST PUSH1 0x40 MLOAD DUP1 SWAP2 SUB SWAP1 REVERT JUMPDEST PUSH1 0x0 PUSH1 0x2 PUSH1 0x0 CALLER PUSH20 0xFFFFFFFFFFFFFFFFFFFFFFFFFFFFFFFFFFFFFFFF AND PUSH20 0xFFFFFFFFFFFFFFFFFFFFFFFFFFFFFFFFFFFFFFFF AND DUP2 MSTORE PUSH1 0x20 ADD SWAP1 DUP2 MSTORE PUSH1 0x20 ADD PUSH1 0x0 KECCAK256 SLOAD EQ ISZERO PUSH2 0xC0A JUMPI PUSH1 0x7 PUSH1 0x0 DUP2 SLOAD DUP1 SWAP3 SWAP2 SWAP1 PUSH2 0xC04 SWAP1 PUSH2 0x14F9 JUMP JUMPDEST SWAP2 SWAP1 POP SSTORE POP JUMPDEST CALLVALUE PUSH1 0x2 PUSH1 0x0 CALLER PUSH20 0xFFFFFFFFFFFFFFFFFFFFFFFFFFFFFFFFFFFFFFFF AND PUSH20 0xFFFFFFFFFFFFFFFFFFFFFFFFFFFFFFFFFFFFFFFF AND DUP2 MSTORE PUSH1 0x20 ADD SWAP1 DUP2 MSTORE PUSH1 0x20 ADD PUSH1 0x0 KECCAK256 PUSH1 0x0 DUP3 DUP3 SLOAD PUSH2 0xC59 SWAP2 SWAP1 PUSH2 0x1784 JUMP JUMPDEST SWAP3 POP POP DUP2 SWAP1 SSTORE POP PUSH1 0x4 SLOAD SELFBALANCE LT PUSH2 0xC85 JUMPI PUSH1 0x1 PUSH1 0x6 PUSH1 0x1 PUSH2 0x100 EXP DUP2 SLOAD DUP2 PUSH1 0xFF MUL NOT AND SWAP1 DUP4 ISZERO ISZERO MUL OR SWAP1 SSTORE POP JUMPDEST JUMP JUMPDEST PUSH1 0x0 DUP1 SLOAD SWAP1 PUSH2 0x100 EXP SWAP1 DIV PUSH20 0xFFFFFFFFFFFFFFFFFFFFFFFFFFFFFFFFFFFFFFFF AND PUSH20 0xFFFFFFFFFFFFFFFFFFFFFFFFFFFFFFFFFFFFFFFF AND CALLER PUSH20 0xFFFFFFFFFFFFFFFFFFFFFFFFFFFFFFFFFFFFFFFF AND EQ ISZERO PUSH2 0xD16 JUMPI PUSH1 0x40 MLOAD PUSH32 0x8C379A000000000000000000000000000000000000000000000000000000000 DUP2 MSTORE PUSH1 0x4 ADD PUSH2 0xD0D SWAP1 PUSH2 0x1826 JUMP JUMPDEST PUSH1 0x40 MLOAD DUP1 SWAP2 SUB SWAP1 REVERT JUMPDEST PUSH1 0x0 PUSH1 0x2 PUSH1 0x0 CALLER PUSH20 0xFFFFFFFFFFFFFFFFFFFFFFFFFFFFFFFFFFFFFFFF AND PUSH20 0xFFFFFFFFFFFFFFFFFFFFFFFFFFFFFFFFFFFFFFFF AND DUP2 MSTORE PUSH1 0x20 ADD SWAP1 DUP2 MSTORE PUSH1 0x20 ADD PUSH1 0x0 KECCAK256 SLOAD GT PUSH2 0xD98 JUMPI PUSH1 0x40 MLOAD PUSH32 0x8C379A000000000000000000000000000000000000000000000000000000000 DUP2 MSTORE PUSH1 0x4 ADD PUSH2 0xD8F SWAP1 PUSH2 0x18B8 JUMP JUMPDEST PUSH1 0x40 MLOAD DUP1 SWAP2 SUB SWAP1 REVERT JUMPDEST PUSH1 0x0 PUSH1 0x1 PUSH1 0x0 DUP4 DUP2 MSTORE PUSH1 0x20 ADD SWAP1 DUP2 MSTORE PUSH1 0x20 ADD PUSH1 0x0 KECCAK256 SWAP1 POP DUP1 PUSH1 0x5 ADD PUSH1 0x0 CALLER PUSH20 0xFFFFFFFFFFFFFFFFFFFFFFFFFFFFFFFFFFFFFFFF AND PUSH20 0xFFFFFFFFFFFFFFFFFFFFFFFFFFFFFFFFFFFFFFFF AND DUP2 MSTORE PUSH1 0x20 ADD SWAP1 DUP2 MSTORE PUSH1 0x20 ADD PUSH1 0x0 KECCAK256 PUSH1 0x0 SWAP1 SLOAD SWAP1 PUSH2 0x100 EXP SWAP1 DIV PUSH1 0xFF AND ISZERO PUSH2 0xE3E JUMPI PUSH1 0x40 MLOAD PUSH32 0x8C379A000000000000000000000000000000000000000000000000000000000 DUP2 MSTORE PUSH1 0x4 ADD PUSH2 0xE35 SWAP1 PUSH2 0x1924 JUMP JUMPDEST PUSH1 0x40 MLOAD DUP1 SWAP2 SUB SWAP1 REVERT JUMPDEST PUSH1 0x1 DUP2 PUSH1 0x5 ADD PUSH1 0x0 CALLER PUSH20 0xFFFFFFFFFFFFFFFFFFFFFFFFFFFFFFFFFFFFFFFF AND PUSH20 0xFFFFFFFFFFFFFFFFFFFFFFFFFFFFFFFFFFFFFFFF AND DUP2 MSTORE PUSH1 0x20 ADD SWAP1 DUP2 MSTORE PUSH1 0x20 ADD PUSH1 0x0 KECCAK256 PUSH1 0x0 PUSH2 0x100 EXP DUP2 SLOAD DUP2 PUSH1 0xFF MUL NOT AND SWAP1 DUP4 ISZERO ISZERO MUL OR SWAP1 SSTORE POP DUP1 PUSH1 0x4 ADD PUSH1 0x0 DUP2 SLOAD DUP1 SWAP3 SWAP2 SWAP1 PUSH2 0xEAD SWAP1 PUSH2 0x14F9 JUMP JUMPDEST SWAP2 SWAP1 POP SSTORE POP POP POP JUMP JUMPDEST DUP3 DUP1 SLOAD PUSH2 0xEC2 SWAP1 PUSH2 0x14C7 JUMP JUMPDEST SWAP1 PUSH1 0x0 MSTORE PUSH1 0x20 PUSH1 0x0 KECCAK256 SWAP1 PUSH1 0x1F ADD PUSH1 0x20 SWAP1 DIV DUP2 ADD SWAP3 DUP3 PUSH2 0xEE4 JUMPI PUSH1 0x0 DUP6 SSTORE PUSH2 0xF2B JUMP JUMPDEST DUP3 PUSH1 0x1F LT PUSH2 0xEFD JUMPI DUP1 MLOAD PUSH1 0xFF NOT AND DUP4 DUP1 ADD OR DUP6 SSTORE PUSH2 0xF2B JUMP JUMPDEST DUP3 DUP1 ADD PUSH1 0x1 ADD DUP6 SSTORE DUP3 ISZERO PUSH2 0xF2B JUMPI SWAP2 DUP3 ADD JUMPDEST DUP3 DUP2 GT ISZERO PUSH2 0xF2A JUMPI DUP3 MLOAD DUP3 SSTORE SWAP2 PUSH1 0x20 ADD SWAP2 SWAP1 PUSH1 0x1 ADD SWAP1 PUSH2 0xF0F JUMP JUMPDEST JUMPDEST POP SWAP1 POP PUSH2 0xF38 SWAP2 SWAP1 PUSH2 0xF3C JUMP JUMPDEST POP SWAP1 JUMP JUMPDEST JUMPDEST DUP1 DUP3 GT ISZERO PUSH2 0xF55 JUMPI PUSH1 0x0 DUP2 PUSH1 0x0 SWAP1 SSTORE POP PUSH1 0x1 ADD PUSH2 0xF3D JUMP JUMPDEST POP SWAP1 JUMP JUMPDEST PUSH1 0x0 PUSH1 0x40 MLOAD SWAP1 POP SWAP1 JUMP JUMPDEST PUSH1 0x0 DUP1 REVERT JUMPDEST PUSH1 0x0 DUP1 REVERT JUMPDEST PUSH1 0x0 DUP2 SWAP1 POP SWAP2 SWAP1 POP JUMP JUMPDEST PUSH2 0xF80 DUP2 PUSH2 0xF6D JUMP JUMPDEST DUP2 EQ PUSH2 0xF8B JUMPI PUSH1 0x0 DUP1 REVERT JUMPDEST POP JUMP JUMPDEST PUSH1 0x0 DUP2 CALLDATALOAD SWAP1 POP PUSH2 0xF9D DUP2 PUSH2 0xF77 JUMP JUMPDEST SWAP3 SWAP2 POP POP JUMP JUMPDEST PUSH1 0x0 PUSH1 0x20 DUP3 DUP5 SUB SLT ISZERO PUSH2 0xFB9 JUMPI PUSH2 0xFB8 PUSH2 0xF63 JUMP JUMPDEST JUMPDEST PUSH1 0x0 PUSH2 0xFC7 DUP5 DUP3 DUP6 ADD PUSH2 0xF8E JUMP JUMPDEST SWAP2 POP POP SWAP3 SWAP2 POP POP JUMP JUMPDEST PUSH1 0x0 DUP2 ISZERO ISZERO SWAP1 POP SWAP2 SWAP1 POP JUMP JUMPDEST PUSH2 0xFE5 DUP2 PUSH2 0xFD0 JUMP JUMPDEST DUP3 MSTORE POP POP JUMP JUMPDEST PUSH1 0x0 PUSH1 0x20 DUP3 ADD SWAP1 POP PUSH2 0x1000 PUSH1 0x0 DUP4 ADD DUP5 PUSH2 0xFDC JUMP JUMPDEST SWAP3 SWAP2 POP POP JUMP JUMPDEST PUSH2 0x100F DUP2 PUSH2 0xF6D JUMP JUMPDEST DUP3 MSTORE POP POP JUMP JUMPDEST PUSH1 0x0 PUSH1 0x20 DUP3 ADD SWAP1 POP PUSH2 0x102A PUSH1 0x0 DUP4 ADD DUP5 PUSH2 0x1006 JUMP JUMPDEST SWAP3 SWAP2 POP POP JUMP JUMPDEST PUSH1 0x0 PUSH20 0xFFFFFFFFFFFFFFFFFFFFFFFFFFFFFFFFFFFFFFFF DUP3 AND SWAP1 POP SWAP2 SWAP1 POP JUMP JUMPDEST PUSH1 0x0 PUSH2 0x105B DUP3 PUSH2 0x1030 JUMP JUMPDEST SWAP1 POP SWAP2 SWAP1 POP JUMP JUMPDEST PUSH2 0x106B DUP2 PUSH2 0x1050 JUMP JUMPDEST DUP2 EQ PUSH2 0x1076 JUMPI PUSH1 0x0 DUP1 REVERT JUMPDEST POP JUMP JUMPDEST PUSH1 0x0 DUP2 CALLDATALOAD SWAP1 POP PUSH2 0x1088 DUP2 PUSH2 0x1062 JUMP JUMPDEST SWAP3 SWAP2 POP POP JUMP JUMPDEST PUSH1 0x0 PUSH1 0x20 DUP3 DUP5 SUB SLT ISZERO PUSH2 0x10A4 JUMPI PUSH2 0x10A3 PUSH2 0xF63 JUMP JUMPDEST JUMPDEST PUSH1 0x0 PUSH2 0x10B2 DUP5 DUP3 DUP6 ADD PUSH2 0x1079 JUMP JUMPDEST SWAP2 POP POP SWAP3 SWAP2 POP POP JUMP JUMPDEST PUSH2 0x10C4 DUP2 PUSH2 0x1050 JUMP JUMPDEST DUP3 MSTORE POP POP JUMP JUMPDEST PUSH1 0x0 PUSH2 0x120 DUP3 ADD SWAP1 POP PUSH2 0x10E0 PUSH1 0x0 DUP4 ADD DUP13 PUSH2 0x1006 JUMP JUMPDEST PUSH2 0x10ED PUSH1 0x20 DUP4 ADD DUP12 PUSH2 0x1006 JUMP JUMPDEST PUSH2 0x10FA PUSH1 0x40 DUP4 ADD DUP11 PUSH2 0x1006 JUMP JUMPDEST PUSH2 0x1107 PUSH1 0x60 DUP4 ADD DUP10 PUSH2 0x1006 JUMP JUMPDEST PUSH2 0x1114 PUSH1 0x80 DUP4 ADD DUP9 PUSH2 0x1006 JUMP JUMPDEST PUSH2 0x1121 PUSH1 0xA0 DUP4 ADD DUP8 PUSH2 0xFDC JUMP JUMPDEST PUSH2 0x112E PUSH1 0xC0 DUP4 ADD DUP7 PUSH2 0xFDC JUMP JUMPDEST PUSH2 0x113B PUSH1 0xE0 DUP4 ADD DUP6 PUSH2 0x1006 JUMP JUMPDEST PUSH2 0x1149 PUSH2 0x100 DUP4 ADD DUP5 PUSH2 0x10BB JUMP JUMPDEST SWAP11 SWAP10 POP POP POP POP POP POP POP POP POP POP JUMP JUMPDEST PUSH1 0x0 PUSH1 0x20 DUP3 ADD SWAP1 POP PUSH2 0x116C PUSH1 0x0 DUP4 ADD DUP5 PUSH2 0x10BB JUMP JUMPDEST SWAP3 SWAP2 POP POP JUMP JUMPDEST PUSH1 0x0 DUP2 MLOAD SWAP1 POP SWAP2 SWAP1 POP JUMP JUMPDEST PUSH1 0x0 DUP3 DUP3 MSTORE PUSH1 0x20 DUP3 ADD SWAP1 POP SWAP3 SWAP2 POP POP JUMP JUMPDEST PUSH1 0x0 JUMPDEST DUP4 DUP2 LT ISZERO PUSH2 0x11AC JUMPI DUP1 DUP3 ADD MLOAD DUP2 DUP5 ADD MSTORE PUSH1 0x20 DUP2 ADD SWAP1 POP PUSH2 0x1191 JUMP JUMPDEST DUP4 DUP2 GT ISZERO PUSH2 0x11BB JUMPI PUSH1 0x0 DUP5 DUP5 ADD MSTORE JUMPDEST POP POP POP POP JUMP JUMPDEST PUSH1 0x0 PUSH1 0x1F NOT PUSH1 0x1F DUP4 ADD AND SWAP1 POP SWAP2 SWAP1 POP JUMP JUMPDEST PUSH1 0x0 PUSH2 0x11DD DUP3 PUSH2 0x1172 JUMP JUMPDEST PUSH2 0x11E7 DUP2 DUP6 PUSH2 0x117D JUMP JUMPDEST SWAP4 POP PUSH2 0x11F7 DUP2 DUP6 PUSH1 0x20 DUP7 ADD PUSH2 0x118E JUMP JUMPDEST PUSH2 0x1200 DUP2 PUSH2 0x11C1 JUMP JUMPDEST DUP5 ADD SWAP2 POP POP SWAP3 SWAP2 POP POP JUMP JUMPDEST PUSH1 0x0 PUSH1 0xA0 DUP3 ADD SWAP1 POP DUP2 DUP2 SUB PUSH1 0x0 DUP4 ADD MSTORE PUSH2 0x1225 DUP2 DUP9 PUSH2 0x11D2 JUMP JUMPDEST SWAP1 POP PUSH2 0x1234 PUSH1 0x20 DUP4 ADD DUP8 PUSH2 0x10BB JUMP JUMPDEST PUSH2 0x1241 PUSH1 0x40 DUP4 ADD DUP7 PUSH2 0x1006 JUMP JUMPDEST PUSH2 0x124E PUSH1 0x60 DUP4 ADD DUP6 PUSH2 0xFDC JUMP JUMPDEST PUSH2 0x125B PUSH1 0x80 DUP4 ADD DUP5 PUSH2 0x1006 JUMP JUMPDEST SWAP7 SWAP6 POP POP POP POP POP POP JUMP JUMPDEST PUSH1 0x0 DUP1 REVERT JUMPDEST PUSH1 0x0 DUP1 REVERT JUMPDEST PUSH32 0x4E487B7100000000000000000000000000000000000000000000000000000000 PUSH1 0x0 MSTORE PUSH1 0x41 PUSH1 0x4 MSTORE PUSH1 0x24 PUSH1 0x0 REVERT JUMPDEST PUSH2 0x12A7 DUP3 PUSH2 0x11C1 JUMP JUMPDEST DUP2 ADD DUP2 DUP2 LT PUSH8 0xFFFFFFFFFFFFFFFF DUP3 GT OR ISZERO PUSH2 0x12C6 JUMPI PUSH2 0x12C5 PUSH2 0x126F JUMP JUMPDEST JUMPDEST DUP1 PUSH1 0x40 MSTORE POP POP POP JUMP JUMPDEST PUSH1 0x0 PUSH2 0x12D9 PUSH2 0xF59 JUMP JUMPDEST SWAP1 POP PUSH2 0x12E5 DUP3 DUP3 PUSH2 0x129E JUMP JUMPDEST SWAP2 SWAP1 POP JUMP JUMPDEST PUSH1 0x0 PUSH8 0xFFFFFFFFFFFFFFFF DUP3 GT ISZERO PUSH2 0x1305 JUMPI PUSH2 0x1304 PUSH2 0x126F JUMP JUMPDEST JUMPDEST PUSH2 0x130E DUP3 PUSH2 0x11C1 JUMP JUMPDEST SWAP1 POP PUSH1 0x20 DUP2 ADD SWAP1 POP SWAP2 SWAP1 POP JUMP JUMPDEST DUP3 DUP2 DUP4 CALLDATACOPY PUSH1 0x0 DUP4 DUP4 ADD MSTORE POP POP POP JUMP JUMPDEST PUSH1 0x0 PUSH2 0x133D PUSH2 0x1338 DUP5 PUSH2 0x12EA JUMP JUMPDEST PUSH2 0x12CF JUMP JUMPDEST SWAP1 POP DUP3 DUP2 MSTORE PUSH1 0x20 DUP2 ADD DUP5 DUP5 DUP5 ADD GT ISZERO PUSH2 0x1359 JUMPI PUSH2 0x1358 PUSH2 0x126A JUMP JUMPDEST JUMPDEST PUSH2 0x1364 DUP5 DUP3 DUP6 PUSH2 0x131B JUMP JUMPDEST POP SWAP4 SWAP3 POP POP POP JUMP JUMPDEST PUSH1 0x0 DUP3 PUSH1 0x1F DUP4 ADD SLT PUSH2 0x1381 JUMPI PUSH2 0x1380 PUSH2 0x1265 JUMP JUMPDEST JUMPDEST DUP2 CALLDATALOAD PUSH2 0x1391 DUP5 DUP3 PUSH1 0x20 DUP7 ADD PUSH2 0x132A JUMP JUMPDEST SWAP2 POP POP SWAP3 SWAP2 POP POP JUMP JUMPDEST PUSH1 0x0 DUP1 PUSH1 0x0 PUSH1 0x60 DUP5 DUP7 SUB SLT ISZERO PUSH2 0x13B3 JUMPI PUSH2 0x13B2 PUSH2 0xF63 JUMP JUMPDEST JUMPDEST PUSH1 0x0 DUP5 ADD CALLDATALOAD PUSH8 0xFFFFFFFFFFFFFFFF DUP2 GT ISZERO PUSH2 0x13D1 JUMPI PUSH2 0x13D0 PUSH2 0xF68 JUMP JUMPDEST JUMPDEST PUSH2 0x13DD DUP7 DUP3 DUP8 ADD PUSH2 0x136C JUMP JUMPDEST SWAP4 POP POP PUSH1 0x20 PUSH2 0x13EE DUP7 DUP3 DUP8 ADD PUSH2 0xF8E JUMP JUMPDEST SWAP3 POP POP PUSH1 0x40 PUSH2 0x13FF DUP7 DUP3 DUP8 ADD PUSH2 0x1079 JUMP JUMPDEST SWAP2 POP POP SWAP3 POP SWAP3 POP SWAP3 JUMP JUMPDEST PUSH32 0x4E487B7100000000000000000000000000000000000000000000000000000000 PUSH1 0x0 MSTORE PUSH1 0x12 PUSH1 0x4 MSTORE PUSH1 0x24 PUSH1 0x0 REVERT JUMPDEST PUSH32 0x4E487B7100000000000000000000000000000000000000000000000000000000 PUSH1 0x0 MSTORE PUSH1 0x11 PUSH1 0x4 MSTORE PUSH1 0x24 PUSH1 0x0 REVERT JUMPDEST PUSH1 0x0 PUSH2 0x1472 DUP3 PUSH2 0xF6D JUMP JUMPDEST SWAP2 POP PUSH2 0x147D DUP4 PUSH2 0xF6D JUMP JUMPDEST SWAP3 POP DUP3 PUSH2 0x148D JUMPI PUSH2 0x148C PUSH2 0x1409 JUMP JUMPDEST JUMPDEST DUP3 DUP3 DIV SWAP1 POP SWAP3 SWAP2 POP POP JUMP JUMPDEST PUSH32 0x4E487B7100000000000000000000000000000000000000000000000000000000 PUSH1 0x0 MSTORE PUSH1 0x22 PUSH1 0x4 MSTORE PUSH1 0x24 PUSH1 0x0 REVERT JUMPDEST PUSH1 0x0 PUSH1 0x2 DUP3 DIV SWAP1 POP PUSH1 0x1 DUP3 AND DUP1 PUSH2 0x14DF JUMPI PUSH1 0x7F DUP3 AND SWAP2 POP JUMPDEST PUSH1 0x20 DUP3 LT DUP2 EQ ISZERO PUSH2 0x14F3 JUMPI PUSH2 0x14F2 PUSH2 0x1498 JUMP JUMPDEST JUMPDEST POP SWAP2 SWAP1 POP JUMP JUMPDEST PUSH1 0x0 PUSH2 0x1504 DUP3 PUSH2 0xF6D JUMP JUMPDEST SWAP2 POP PUSH32 0xFFFFFFFFFFFFFFFFFFFFFFFFFFFFFFFFFFFFFFFFFFFFFFFFFFFFFFFFFFFFFFFF DUP3 EQ ISZERO PUSH2 0x1537 JUMPI PUSH2 0x1536 PUSH2 0x1438 JUMP JUMPDEST JUMPDEST PUSH1 0x1 DUP3 ADD SWAP1 POP SWAP2 SWAP1 POP JUMP JUMPDEST PUSH32 0x526566756E6473206E6F7420617661696C61626C650000000000000000000000 PUSH1 0x0 DUP3 ADD MSTORE POP JUMP JUMPDEST PUSH1 0x0 PUSH2 0x1578 PUSH1 0x15 DUP4 PUSH2 0x117D JUMP JUMPDEST SWAP2 POP PUSH2 0x1583 DUP3 PUSH2 0x1542 JUMP JUMPDEST PUSH1 0x20 DUP3 ADD SWAP1 POP SWAP2 SWAP1 POP JUMP JUMPDEST PUSH1 0x0 PUSH1 0x20 DUP3 ADD SWAP1 POP DUP2 DUP2 SUB PUSH1 0x0 DUP4 ADD MSTORE PUSH2 0x15A7 DUP2 PUSH2 0x156B JUMP JUMPDEST SWAP1 POP SWAP2 SWAP1 POP JUMP JUMPDEST PUSH32 0x54686520676F616C207761732072656163686564000000000000000000000000 PUSH1 0x0 DUP3 ADD MSTORE POP JUMP JUMPDEST PUSH1 0x0 PUSH2 0x15E4 PUSH1 0x14 DUP4 PUSH2 0x117D JUMP JUMPDEST SWAP2 POP PUSH2 0x15EF DUP3 PUSH2 0x15AE JUMP JUMPDEST PUSH1 0x20 DUP3 ADD SWAP1 POP SWAP2 SWAP1 POP JUMP JUMPDEST PUSH1 0x0 PUSH1 0x20 DUP3 ADD SWAP1 POP DUP2 DUP2 SUB PUSH1 0x0 DUP4 ADD MSTORE PUSH2 0x1613 DUP2 PUSH2 0x15D7 JUMP JUMPDEST SWAP1 POP SWAP2 SWAP1 POP JUMP JUMPDEST PUSH32 0x596F752068617665206E6F2066756E647320746F20726566756E640000000000 PUSH1 0x0 DUP3 ADD MSTORE POP JUMP JUMPDEST PUSH1 0x0 PUSH2 0x1650 PUSH1 0x1B DUP4 PUSH2 0x117D JUMP JUMPDEST SWAP2 POP PUSH2 0x165B DUP3 PUSH2 0x161A JUMP JUMPDEST PUSH1 0x20 DUP3 ADD SWAP1 POP SWAP2 SWAP1 POP JUMP JUMPDEST PUSH1 0x0 PUSH1 0x20 DUP3 ADD SWAP1 POP DUP2 DUP2 SUB PUSH1 0x0 DUP4 ADD MSTORE PUSH2 0x167F DUP2 PUSH2 0x1643 JUMP JUMPDEST SWAP1 POP SWAP2 SWAP1 POP JUMP JUMPDEST PUSH32 0x546865206D616E616765722063616E7420636F6E747269627574650000000000 PUSH1 0x0 DUP3 ADD MSTORE POP JUMP JUMPDEST PUSH1 0x0 PUSH2 0x16BC PUSH1 0x1B DUP4 PUSH2 0x117D JUMP JUMPDEST SWAP2 POP PUSH2 0x16C7 DUP3 PUSH2 0x1686 JUMP JUMPDEST PUSH1 0x20 DUP3 ADD SWAP1 POP SWAP2 SWAP1 POP JUMP JUMPDEST PUSH1 0x0 PUSH1 0x20 DUP3 ADD SWAP1 POP DUP2 DUP2 SUB PUSH1 0x0 DUP4 ADD MSTORE PUSH2 0x16EB DUP2 PUSH2 0x16AF JUMP JUMPDEST SWAP1 POP SWAP2 SWAP1 POP JUMP JUMPDEST PUSH32 0x45746865722076616C7565206D7573742062652067726561746572207468616E PUSH1 0x0 DUP3 ADD MSTORE PUSH32 0x206D696E696D756D20636F6E747269627574696F6E2E00000000000000000000 PUSH1 0x20 DUP3 ADD MSTORE POP JUMP JUMPDEST PUSH1 0x0 PUSH2 0x174E PUSH1 0x36 DUP4 PUSH2 0x117D JUMP JUMPDEST SWAP2 POP PUSH2 0x1759 DUP3 PUSH2 0x16F2 JUMP JUMPDEST PUSH1 0x40 DUP3 ADD SWAP1 POP SWAP2 SWAP1 POP JUMP JUMPDEST PUSH1 0x0 PUSH1 0x20 DUP3 ADD SWAP1 POP DUP2 DUP2 SUB PUSH1 0x0 DUP4 ADD MSTORE PUSH2 0x177D DUP2 PUSH2 0x1741 JUMP JUMPDEST SWAP1 POP SWAP2 SWAP1 POP JUMP JUMPDEST PUSH1 0x0 PUSH2 0x178F DUP3 PUSH2 0xF6D JUMP JUMPDEST SWAP2 POP PUSH2 0x179A DUP4 PUSH2 0xF6D JUMP JUMPDEST SWAP3 POP DUP3 PUSH32 0xFFFFFFFFFFFFFFFFFFFFFFFFFFFFFFFFFFFFFFFFFFFFFFFFFFFFFFFFFFFFFFFF SUB DUP3 GT ISZERO PUSH2 0x17CF JUMPI PUSH2 0x17CE PUSH2 0x1438 JUMP JUMPDEST JUMPDEST DUP3 DUP3 ADD SWAP1 POP SWAP3 SWAP2 POP POP JUMP JUMPDEST PUSH32 0x546865206D616E616765722063616E7420617070726F76650000000000000000 PUSH1 0x0 DUP3 ADD MSTORE POP JUMP JUMPDEST PUSH1 0x0 PUSH2 0x1810 PUSH1 0x18 DUP4 PUSH2 0x117D JUMP JUMPDEST SWAP2 POP PUSH2 0x181B DUP3 PUSH2 0x17DA JUMP JUMPDEST PUSH1 0x20 DUP3 ADD SWAP1 POP SWAP2 SWAP1 POP JUMP JUMPDEST PUSH1 0x0 PUSH1 0x20 DUP3 ADD SWAP1 POP DUP2 DUP2 SUB PUSH1 0x0 DUP4 ADD MSTORE PUSH2 0x183F DUP2 PUSH2 0x1803 JUMP JUMPDEST SWAP1 POP SWAP2 SWAP1 POP JUMP JUMPDEST PUSH32 0x596F75206D757374206265206120636F6E747269627574657220696E206F7264 PUSH1 0x0 DUP3 ADD MSTORE PUSH32 0x657220746F20617070726F766520726571756573747300000000000000000000 PUSH1 0x20 DUP3 ADD MSTORE POP JUMP JUMPDEST PUSH1 0x0 PUSH2 0x18A2 PUSH1 0x36 DUP4 PUSH2 0x117D JUMP JUMPDEST SWAP2 POP PUSH2 0x18AD DUP3 PUSH2 0x1846 JUMP JUMPDEST PUSH1 0x40 DUP3 ADD SWAP1 POP SWAP2 SWAP1 POP JUMP JUMPDEST PUSH1 0x0 PUSH1 0x20 DUP3 ADD SWAP1 POP DUP2 DUP2 SUB PUSH1 0x0 DUP4 ADD MSTORE PUSH2 0x18D1 DUP2 PUSH2 0x1895 JUMP JUMPDEST SWAP1 POP SWAP2 SWAP1 POP JUMP JUMPDEST PUSH32 0x596F7520616C726561647920766F746564000000000000000000000000000000 PUSH1 0x0 DUP3 ADD MSTORE POP JUMP JUMPDEST PUSH1 0x0 PUSH2 0x190E PUSH1 0x11 DUP4 PUSH2 0x117D JUMP JUMPDEST SWAP2 POP PUSH2 0x1919 DUP3 PUSH2 0x18D8 JUMP JUMPDEST PUSH1 0x20 DUP3 ADD SWAP1 POP SWAP2 SWAP1 POP JUMP JUMPDEST PUSH1 0x0 PUSH1 0x20 DUP3 ADD SWAP1 POP DUP2 DUP2 SUB PUSH1 0x0 DUP4 ADD MSTORE PUSH2 0x193D DUP2 PUSH2 0x1901 JUMP JUMPDEST SWAP1 POP SWAP2 SWAP1 POP JUMP INVALID LOG2 PUSH5 0x6970667358 0x22 SLT KECCAK256 0xB0 EXTCODESIZE PUSH15 0x853A4237ED518F5715BC456995953B 0x21 0x2B SWAP2 PUSH18 0xAB2F2BA881B88822837E64736F6C63430008 MULMOD STOP CALLER "},"gasEstimates":{"creation":{"codeDepositCost":"1304400","executionCost":"infinite","totalCost":"infinite"},"external":{"approveRequest(uint256)":"infinite","cancelCampaign()":"26622","contribute()":"infinite","contributors(address)":"2904","contributorsCount()":"2452","createRequest(string,uint256,address)":"infinite","deadline()":"2474","finalizeRequest(uint256)":"infinite","getBalance()":"2577","getRefund()":"infinite","getRequestCount()":"2504","getSummary()":"infinite","goalAmount()":"2452","goalReached()":"2566","isCanceled()":"2517","manager()":"2622","minimumContribution()":"2451","requests(uint256)":"infinite"}},"methodIdentifiers":{"approveRequest(uint256)":"d7d1bbdb","cancelCampaign()":"980e7844","contribute()":"d7bb99ba","contributors(address)":"1f6d4942","contributorsCount()":"7569b3d7","createRequest(string,uint256,address)":"8a9cfd55","deadline()":"29dcb0cf","finalizeRequest(uint256)":"03441006","getBalance()":"12065fe0","getRefund()":"b2d5ae44","getRequestCount()":"3fad1834","getSummary()":"4051ddac","goalAmount()":"2636b945","goalReached()":"7d3d6522","isCanceled()":"0ed5a933","manager()":"481c6a75","minimumContribution()":"937e09b1","requests(uint256)":"81d12c58"}},"storageLayout":{"storage":[{"astId":47,"contract":"Campaign.sol:Campaign","label":"manager","offset":0,"slot":"0","type":"t_address"},{"astId":67,"contract":"Campaign.sol:Campaign","label":"requests","offset":0,"slot":"1","type":"t_mapping(t_uint256,t_struct(Request)62_storage)"},{"astId":71,"contract":"Campaign.sol:Campaign","label":"contributors","offset":0,"slot":"2","type":"t_mapping(t_address,t_uint256)"},{"astId":73,"contract":"Campaign.sol:Campaign","label":"minimumContribution","offset":0,"slot":"3","type":"t_uint256"},{"astId":75,"contract":"Campaign.sol:Campaign","label":"goalAmount","offset":0,"slot":"4","type":"t_uint256"},{"astId":77,"contract":"Campaign.sol:Campaign","label":"deadline","offset":0,"slot":"5","type":"t_uint256"},{"astId":80,"contract":"Campaign.sol:Campaign","label":"isCanceled","offset":0,"slot":"6","type":"t_bool"},{"astId":83,"contract":"Campaign.sol:Campaign","label":"goalReached","offset":1,"slot":"6","type":"t_bool"},{"astId":86,"contract":"Campaign.sol:Campaign","label":"contributorsCount","offset":0,"slot":"7","type":"t_uint256"},{"astId":89,"contract":"Campaign.sol:Campaign","label":"currentIndexRequest","offset":0,"slot":"8","type":"t_uint256"}],"types":{"t_address":{"encoding":"inplace","label":"address","numberOfBytes":"20"},"t_bool":{"encoding":"inplace","label":"bool","numberOfBytes":"1"},"t_mapping(t_address,t_bool)":{"encoding":"mapping","key":"t_address","label":"mapping(address => bool)","numberOfBytes":"32","value":"t_bool"},"t_mapping(t_address,t_uint256)":{"encoding":"mapping","key":"t_address","label":"mapping(address => uint256)","numberOfBytes":"32","value":"t_uint256"},"t_mapping(t_uint256,t_struct(Request)62_storage)":{"encoding":"mapping","key":"t_uint256","label":"mapping(uint256 => struct Campaign.Request)","numberOfBytes":"32","value":"t_struct(Request)62_storage"},"t_string_storage":{"encoding":"bytes","label":"string","numberOfBytes":"32"},"t_struct(Request)62_storage":{"encoding":"inplace","label":"struct Campaign.Request","members":[{"astId":49,"contract":"Campaign.sol:Campaign","label":"description","offset":0,"slot":"0","type":"t_string_storage"},{"astId":51,"contract":"Campaign.sol:Campaign","label":"recipient","offset":0,"slot":"1","type":"t_address"},{"astId":53,"contract":"Campaign.sol:Campaign","label":"value","offset":0,"slot":"2","type":"t_uint256"},{"astId":55,"contract":"Campaign.sol:Campaign","label":"complete","offset":0,"slot":"3","type":"t_bool"},{"astId":57,"contract":"Campaign.sol:Campaign","label":"approvalCount","offset":0,"slot":"4","type":"t_uint256"},{"astId":61,"contract":"Campaign.sol:Campaign","label":"voters","offset":0,"slot":"5","type":"t_mapping(t_address,t_bool)"}],"numberOfBytes":"192"},"t_uint256":{"encoding":"inplace","label":"uint256","numberOfBytes":"32"}}},"userdoc":{"kind":"user","methods":{},"version":1}}